{
	"solidity-fundamentals/3-fund-me/13-custom-error.sol": {
		"FundMe": {
			"abi": [
				{
					"inputs": [],
					"stateMutability": "nonpayable",
					"type": "constructor"
				},
				{
					"inputs": [],
					"name": "DidNotSendMinEth",
					"type": "error"
				},
				{
					"inputs": [],
					"name": "FundTransferFailed",
					"type": "error"
				},
				{
					"inputs": [],
					"name": "NotFundOwner",
					"type": "error"
				},
				{
					"inputs": [],
					"name": "MIN_USD",
					"outputs": [
						{
							"internalType": "uint256",
							"name": "",
							"type": "uint256"
						}
					],
					"stateMutability": "view",
					"type": "function"
				},
				{
					"inputs": [
						{
							"internalType": "address",
							"name": "",
							"type": "address"
						}
					],
					"name": "addressToAmountFunded",
					"outputs": [
						{
							"internalType": "uint256",
							"name": "",
							"type": "uint256"
						}
					],
					"stateMutability": "view",
					"type": "function"
				},
				{
					"inputs": [],
					"name": "fund",
					"outputs": [],
					"stateMutability": "payable",
					"type": "function"
				},
				{
					"inputs": [
						{
							"internalType": "uint256",
							"name": "",
							"type": "uint256"
						}
					],
					"name": "funders",
					"outputs": [
						{
							"internalType": "address",
							"name": "",
							"type": "address"
						}
					],
					"stateMutability": "view",
					"type": "function"
				},
				{
					"inputs": [],
					"name": "i_fundOwner",
					"outputs": [
						{
							"internalType": "address",
							"name": "",
							"type": "address"
						}
					],
					"stateMutability": "view",
					"type": "function"
				},
				{
					"inputs": [],
					"name": "withdraw",
					"outputs": [],
					"stateMutability": "nonpayable",
					"type": "function"
				}
			],
			"devdoc": {
				"kind": "dev",
				"methods": {},
				"version": 1
			},
			"evm": {
				"assembly": "    /* \"solidity-fundamentals/3-fund-me/13-custom-error.sol\":1059:2626  contract FundMe {... */\n  mstore(0x40, 0xa0)\n    /* \"solidity-fundamentals/3-fund-me/13-custom-error.sol\":1227:1269  0x694AA1769357215DE4FAC081bf1f309aDC325306 */\n  0x694aa1769357215de4fac081bf1f309adc325306\n    /* \"solidity-fundamentals/3-fund-me/13-custom-error.sol\":1165:1269  address chainlinkAggregatorV3InterfaceAddressEthUsd =... */\n  0x00\n  dup1\n  0x0100\n  exp\n  dup2\n  sload\n  dup2\n  0xffffffffffffffffffffffffffffffffffffffff\n  mul\n  not\n  and\n  swap1\n  dup4\n  0xffffffffffffffffffffffffffffffffffffffff\n  and\n  mul\n  or\n  swap1\n  sstore\n  pop\n    /* \"solidity-fundamentals/3-fund-me/13-custom-error.sol\":1411:1466  constructor() {... */\n  callvalue\n  dup1\n  iszero\n  tag_1\n  jumpi\n  0x00\n  dup1\n  revert\ntag_1:\n  pop\n    /* \"solidity-fundamentals/3-fund-me/13-custom-error.sol\":1449:1459  msg.sender */\n  caller\n    /* \"solidity-fundamentals/3-fund-me/13-custom-error.sol\":1435:1459  i_fundOwner = msg.sender */\n  0xffffffffffffffffffffffffffffffffffffffff\n  and\n  0x80\n  dup2\n  0xffffffffffffffffffffffffffffffffffffffff\n  and\n  dup2\n  mstore\n  pop\n  pop\n    /* \"solidity-fundamentals/3-fund-me/13-custom-error.sol\":1059:2626  contract FundMe {... */\n  mload(0x80)\n  codecopy(0x00, dataOffset(sub_0), dataSize(sub_0))\n  0x00\n  assignImmutable(\"0xb2219b801710730437d0358146c829b62297a059eceaa0b40b27aea2daecf595\")\n  return(0x00, dataSize(sub_0))\nstop\n\nsub_0: assembly {\n        /* \"solidity-fundamentals/3-fund-me/13-custom-error.sol\":1059:2626  contract FundMe {... */\n      mstore(0x40, 0x80)\n      jumpi(tag_1, lt(calldatasize, 0x04))\n      shr(0xe0, calldataload(0x00))\n      dup1\n      0x0acc6256\n      eq\n      tag_2\n      jumpi\n      dup1\n      0x213dbea2\n      eq\n      tag_3\n      jumpi\n      dup1\n      0x3ccfd60b\n      eq\n      tag_4\n      jumpi\n      dup1\n      0x3e47d6f3\n      eq\n      tag_5\n      jumpi\n      dup1\n      0xb60d4288\n      eq\n      tag_6\n      jumpi\n      dup1\n      0xdc0d3dff\n      eq\n      tag_7\n      jumpi\n    tag_1:\n      0x00\n      dup1\n      revert\n        /* \"solidity-fundamentals/3-fund-me/13-custom-error.sol\":1368:1404  address public immutable i_fundOwner */\n    tag_2:\n      callvalue\n      dup1\n      iszero\n      tag_8\n      jumpi\n      0x00\n      dup1\n      revert\n    tag_8:\n      pop\n      tag_9\n      tag_10\n      jump\t// in\n    tag_9:\n      mload(0x40)\n      tag_11\n      swap2\n      swap1\n      tag_12\n      jump\t// in\n    tag_11:\n      mload(0x40)\n      dup1\n      swap2\n      sub\n      swap1\n      return\n        /* \"solidity-fundamentals/3-fund-me/13-custom-error.sol\":1120:1158  uint256 public constant MIN_USD = 5e18 */\n    tag_3:\n      callvalue\n      dup1\n      iszero\n      tag_13\n      jumpi\n      0x00\n      dup1\n      revert\n    tag_13:\n      pop\n      tag_14\n      tag_15\n      jump\t// in\n    tag_14:\n      mload(0x40)\n      tag_16\n      swap2\n      swap1\n      tag_17\n      jump\t// in\n    tag_16:\n      mload(0x40)\n      dup1\n      swap2\n      sub\n      swap1\n      return\n        /* \"solidity-fundamentals/3-fund-me/13-custom-error.sol\":1843:2354  function withdraw() public onlyOwner {... */\n    tag_4:\n      callvalue\n      dup1\n      iszero\n      tag_18\n      jumpi\n      0x00\n      dup1\n      revert\n    tag_18:\n      pop\n      tag_19\n      tag_20\n      jump\t// in\n    tag_19:\n      stop\n        /* \"solidity-fundamentals/3-fund-me/13-custom-error.sol\":1305:1361  mapping(address => uint256) public addressToAmountFunded */\n    tag_5:\n      callvalue\n      dup1\n      iszero\n      tag_21\n      jumpi\n      0x00\n      dup1\n      revert\n    tag_21:\n      pop\n      tag_22\n      0x04\n      dup1\n      calldatasize\n      sub\n      dup2\n      add\n      swap1\n      tag_23\n      swap2\n      swap1\n      tag_24\n      jump\t// in\n    tag_23:\n      tag_25\n      jump\t// in\n    tag_22:\n      mload(0x40)\n      tag_26\n      swap2\n      swap1\n      tag_17\n      jump\t// in\n    tag_26:\n      mload(0x40)\n      dup1\n      swap2\n      sub\n      swap1\n      return\n        /* \"solidity-fundamentals/3-fund-me/13-custom-error.sol\":1472:1837  function fund() public payable {... */\n    tag_6:\n      tag_27\n      tag_28\n      jump\t// in\n    tag_27:\n      stop\n        /* \"solidity-fundamentals/3-fund-me/13-custom-error.sol\":1275:1299  address[] public funders */\n    tag_7:\n      callvalue\n      dup1\n      iszero\n      tag_29\n      jumpi\n      0x00\n      dup1\n      revert\n    tag_29:\n      pop\n      tag_30\n      0x04\n      dup1\n      calldatasize\n      sub\n      dup2\n      add\n      swap1\n      tag_31\n      swap2\n      swap1\n      tag_32\n      jump\t// in\n    tag_31:\n      tag_33\n      jump\t// in\n    tag_30:\n      mload(0x40)\n      tag_34\n      swap2\n      swap1\n      tag_12\n      jump\t// in\n    tag_34:\n      mload(0x40)\n      dup1\n      swap2\n      sub\n      swap1\n      return\n        /* \"solidity-fundamentals/3-fund-me/13-custom-error.sol\":1368:1404  address public immutable i_fundOwner */\n    tag_10:\n      immutable(\"0xb2219b801710730437d0358146c829b62297a059eceaa0b40b27aea2daecf595\")\n      dup2\n      jump\t// out\n        /* \"solidity-fundamentals/3-fund-me/13-custom-error.sol\":1120:1158  uint256 public constant MIN_USD = 5e18 */\n    tag_15:\n        /* \"solidity-fundamentals/3-fund-me/13-custom-error.sol\":1154:1158  5e18 */\n      0x4563918244f40000\n        /* \"solidity-fundamentals/3-fund-me/13-custom-error.sol\":1120:1158  uint256 public constant MIN_USD = 5e18 */\n      dup2\n      jump\t// out\n        /* \"solidity-fundamentals/3-fund-me/13-custom-error.sol\":1843:2354  function withdraw() public onlyOwner {... */\n    tag_20:\n        /* \"solidity-fundamentals/3-fund-me/13-custom-error.sol\":2548:2559  i_fundOwner */\n      immutable(\"0xb2219b801710730437d0358146c829b62297a059eceaa0b40b27aea2daecf595\")\n        /* \"solidity-fundamentals/3-fund-me/13-custom-error.sol\":2534:2559  msg.sender != i_fundOwner */\n      0xffffffffffffffffffffffffffffffffffffffff\n      and\n        /* \"solidity-fundamentals/3-fund-me/13-custom-error.sol\":2534:2544  msg.sender */\n      caller\n        /* \"solidity-fundamentals/3-fund-me/13-custom-error.sol\":2534:2559  msg.sender != i_fundOwner */\n      0xffffffffffffffffffffffffffffffffffffffff\n      and\n      eq\n        /* \"solidity-fundamentals/3-fund-me/13-custom-error.sol\":2530:2607  if (msg.sender != i_fundOwner) {... */\n      tag_36\n      jumpi\n        /* \"solidity-fundamentals/3-fund-me/13-custom-error.sol\":2582:2596  NotFundOwner() */\n      mload(0x40)\n      0xb3545ef300000000000000000000000000000000000000000000000000000000\n      dup2\n      mstore\n      0x04\n      add\n      mload(0x40)\n      dup1\n      swap2\n      sub\n      swap1\n      revert\n        /* \"solidity-fundamentals/3-fund-me/13-custom-error.sol\":2530:2607  if (msg.sender != i_fundOwner) {... */\n    tag_36:\n        /* \"solidity-fundamentals/3-fund-me/13-custom-error.sol\":1895:1912  uint256 funderIdx */\n      0x00\n        /* \"solidity-fundamentals/3-fund-me/13-custom-error.sol\":1890:2066  for (uint256 funderIdx = 0; funderIdx < funders.length; funderIdx++) {... */\n    tag_38:\n        /* \"solidity-fundamentals/3-fund-me/13-custom-error.sol\":1930:1937  funders */\n      0x01\n        /* \"solidity-fundamentals/3-fund-me/13-custom-error.sol\":1930:1944  funders.length */\n      dup1\n      sload\n      swap1\n      pop\n        /* \"solidity-fundamentals/3-fund-me/13-custom-error.sol\":1918:1927  funderIdx */\n      dup2\n        /* \"solidity-fundamentals/3-fund-me/13-custom-error.sol\":1918:1944  funderIdx < funders.length */\n      lt\n        /* \"solidity-fundamentals/3-fund-me/13-custom-error.sol\":1890:2066  for (uint256 funderIdx = 0; funderIdx < funders.length; funderIdx++) {... */\n      iszero\n      tag_39\n      jumpi\n        /* \"solidity-fundamentals/3-fund-me/13-custom-error.sol\":1973:1987  address funder */\n      0x00\n        /* \"solidity-fundamentals/3-fund-me/13-custom-error.sol\":1990:1997  funders */\n      0x01\n        /* \"solidity-fundamentals/3-fund-me/13-custom-error.sol\":1998:2007  funderIdx */\n      dup3\n        /* \"solidity-fundamentals/3-fund-me/13-custom-error.sol\":1990:2008  funders[funderIdx] */\n      dup2\n      sload\n      dup2\n      lt\n      tag_41\n      jumpi\n      tag_42\n      tag_43\n      jump\t// in\n    tag_42:\n    tag_41:\n      swap1\n      0x00\n      mstore\n      keccak256(0x00, 0x20)\n      add\n      0x00\n      swap1\n      sload\n      swap1\n      0x0100\n      exp\n      swap1\n      div\n      0xffffffffffffffffffffffffffffffffffffffff\n      and\n        /* \"solidity-fundamentals/3-fund-me/13-custom-error.sol\":1973:2008  address funder = funders[funderIdx] */\n      swap1\n      pop\n        /* \"solidity-fundamentals/3-fund-me/13-custom-error.sol\":2054:2055  0 */\n      0x00\n        /* \"solidity-fundamentals/3-fund-me/13-custom-error.sol\":2022:2043  addressToAmountFunded */\n      0x02\n        /* \"solidity-fundamentals/3-fund-me/13-custom-error.sol\":2022:2051  addressToAmountFunded[funder] */\n      0x00\n        /* \"solidity-fundamentals/3-fund-me/13-custom-error.sol\":2044:2050  funder */\n      dup4\n        /* \"solidity-fundamentals/3-fund-me/13-custom-error.sol\":2022:2051  addressToAmountFunded[funder] */\n      0xffffffffffffffffffffffffffffffffffffffff\n      and\n      0xffffffffffffffffffffffffffffffffffffffff\n      and\n      dup2\n      mstore\n      0x20\n      add\n      swap1\n      dup2\n      mstore\n      0x20\n      add\n      0x00\n      keccak256\n        /* \"solidity-fundamentals/3-fund-me/13-custom-error.sol\":2022:2055  addressToAmountFunded[funder] = 0 */\n      dup2\n      swap1\n      sstore\n      pop\n        /* \"solidity-fundamentals/3-fund-me/13-custom-error.sol\":1959:2066  {... */\n      pop\n        /* \"solidity-fundamentals/3-fund-me/13-custom-error.sol\":1946:1957  funderIdx++ */\n      dup1\n      dup1\n      0x01\n      add\n      swap2\n      pop\n      pop\n        /* \"solidity-fundamentals/3-fund-me/13-custom-error.sol\":1890:2066  for (uint256 funderIdx = 0; funderIdx < funders.length; funderIdx++) {... */\n      jump(tag_38)\n    tag_39:\n      pop\n        /* \"solidity-fundamentals/3-fund-me/13-custom-error.sol\":2099:2100  0 */\n      0x00\n        /* \"solidity-fundamentals/3-fund-me/13-custom-error.sol\":2085:2101  new address[](0) */\n      0xffffffffffffffff\n      dup2\n      gt\n      iszero\n      tag_45\n      jumpi\n      tag_46\n      tag_47\n      jump\t// in\n    tag_46:\n    tag_45:\n      mload(0x40)\n      swap1\n      dup1\n      dup3\n      mstore\n      dup1\n      0x20\n      mul\n      0x20\n      add\n      dup3\n      add\n      0x40\n      mstore\n      dup1\n      iszero\n      tag_48\n      jumpi\n      dup2\n      0x20\n      add\n      0x20\n      dup3\n      mul\n      dup1\n      calldatasize\n      dup4\n      calldatacopy\n      dup1\n      dup3\n      add\n      swap2\n      pop\n      pop\n      swap1\n      pop\n    tag_48:\n      pop\n        /* \"solidity-fundamentals/3-fund-me/13-custom-error.sol\":2075:2082  funders */\n      0x01\n        /* \"solidity-fundamentals/3-fund-me/13-custom-error.sol\":2075:2101  funders = new address[](0) */\n      swap1\n      dup1\n      mload\n      swap1\n      0x20\n      add\n      swap1\n      tag_49\n      swap3\n      swap2\n      swap1\n      tag_50\n      jump\t// in\n    tag_49:\n      pop\n        /* \"solidity-fundamentals/3-fund-me/13-custom-error.sol\":2113:2129  bool callSuccess */\n      0x00\n        /* \"solidity-fundamentals/3-fund-me/13-custom-error.sol\":2143:2153  msg.sender */\n      caller\n        /* \"solidity-fundamentals/3-fund-me/13-custom-error.sol\":2135:2159  payable(msg.sender).call */\n      0xffffffffffffffffffffffffffffffffffffffff\n      and\n        /* \"solidity-fundamentals/3-fund-me/13-custom-error.sol\":2180:2201  address(this).balance */\n      selfbalance\n        /* \"solidity-fundamentals/3-fund-me/13-custom-error.sol\":2135:2215  payable(msg.sender).call{... */\n      mload(0x40)\n      tag_51\n      swap1\n      tag_52\n      jump\t// in\n    tag_51:\n      0x00\n      mload(0x40)\n      dup1\n      dup4\n      sub\n      dup2\n      dup6\n      dup8\n      gas\n      call\n      swap3\n      pop\n      pop\n      pop\n      returndatasize\n      dup1\n      0x00\n      dup2\n      eq\n      tag_55\n      jumpi\n      mload(0x40)\n      swap2\n      pop\n      and(add(returndatasize, 0x3f), not(0x1f))\n      dup3\n      add\n      0x40\n      mstore\n      returndatasize\n      dup3\n      mstore\n      returndatasize\n      0x00\n      0x20\n      dup5\n      add\n      returndatacopy\n      jump(tag_54)\n    tag_55:\n      0x60\n      swap2\n      pop\n    tag_54:\n      pop\n        /* \"solidity-fundamentals/3-fund-me/13-custom-error.sol\":2112:2215  (bool callSuccess, ) = payable(msg.sender).call{... */\n      pop\n      swap1\n      pop\n        /* \"solidity-fundamentals/3-fund-me/13-custom-error.sol\":2283:2294  callSuccess */\n      dup1\n        /* \"solidity-fundamentals/3-fund-me/13-custom-error.sol\":2278:2348  if (!callSuccess) {... */\n      tag_56\n      jumpi\n        /* \"solidity-fundamentals/3-fund-me/13-custom-error.sol\":2317:2337  FundTransferFailed() */\n      mload(0x40)\n      0x9c358fad00000000000000000000000000000000000000000000000000000000\n      dup2\n      mstore\n      0x04\n      add\n      mload(0x40)\n      dup1\n      swap2\n      sub\n      swap1\n      revert\n        /* \"solidity-fundamentals/3-fund-me/13-custom-error.sol\":2278:2348  if (!callSuccess) {... */\n    tag_56:\n        /* \"solidity-fundamentals/3-fund-me/13-custom-error.sol\":1880:2354  {... */\n      pop\n        /* \"solidity-fundamentals/3-fund-me/13-custom-error.sol\":1843:2354  function withdraw() public onlyOwner {... */\n      jump\t// out\n        /* \"solidity-fundamentals/3-fund-me/13-custom-error.sol\":1305:1361  mapping(address => uint256) public addressToAmountFunded */\n    tag_25:\n      mstore(0x20, 0x02)\n      dup1\n      0x00\n      mstore\n      keccak256(0x00, 0x40)\n      0x00\n      swap2\n      pop\n      swap1\n      pop\n      sload\n      dup2\n      jump\t// out\n        /* \"solidity-fundamentals/3-fund-me/13-custom-error.sol\":1472:1837  function fund() public payable {... */\n    tag_28:\n        /* \"solidity-fundamentals/3-fund-me/13-custom-error.sol\":1154:1158  5e18 */\n      0x4563918244f40000\n        /* \"solidity-fundamentals/3-fund-me/13-custom-error.sol\":1649:1678  msg.value.getConversionRate() */\n      tag_58\n        /* \"solidity-fundamentals/3-fund-me/13-custom-error.sol\":1649:1658  msg.value */\n      callvalue\n        /* \"solidity-fundamentals/3-fund-me/13-custom-error.sol\":1649:1676  msg.value.getConversionRate */\n      tag_59\n        /* \"solidity-fundamentals/3-fund-me/13-custom-error.sol\":1649:1678  msg.value.getConversionRate() */\n      jump\t// in\n    tag_58:\n        /* \"solidity-fundamentals/3-fund-me/13-custom-error.sol\":1649:1688  msg.value.getConversionRate() < MIN_USD */\n      lt\n        /* \"solidity-fundamentals/3-fund-me/13-custom-error.sol\":1645:1740  if (msg.value.getConversionRate() < MIN_USD) {... */\n      iszero\n      tag_60\n      jumpi\n        /* \"solidity-fundamentals/3-fund-me/13-custom-error.sol\":1711:1729  DidNotSendMinEth() */\n      mload(0x40)\n      0x3ca175e100000000000000000000000000000000000000000000000000000000\n      dup2\n      mstore\n      0x04\n      add\n      mload(0x40)\n      dup1\n      swap2\n      sub\n      swap1\n      revert\n        /* \"solidity-fundamentals/3-fund-me/13-custom-error.sol\":1645:1740  if (msg.value.getConversionRate() < MIN_USD) {... */\n    tag_60:\n        /* \"solidity-fundamentals/3-fund-me/13-custom-error.sol\":1750:1757  funders */\n      0x01\n        /* \"solidity-fundamentals/3-fund-me/13-custom-error.sol\":1763:1773  msg.sender */\n      caller\n        /* \"solidity-fundamentals/3-fund-me/13-custom-error.sol\":1750:1774  funders.push(msg.sender) */\n      swap1\n      dup1\n      0x01\n      dup2\n      sload\n      add\n      dup1\n      dup3\n      sstore\n      dup1\n      swap2\n      pop\n      pop\n      0x01\n      swap1\n      sub\n      swap1\n      0x00\n      mstore\n      keccak256(0x00, 0x20)\n      add\n      0x00\n      swap1\n      swap2\n      swap1\n      swap2\n      swap1\n      swap2\n      0x0100\n      exp\n      dup2\n      sload\n      dup2\n      0xffffffffffffffffffffffffffffffffffffffff\n      mul\n      not\n      and\n      swap1\n      dup4\n      0xffffffffffffffffffffffffffffffffffffffff\n      and\n      mul\n      or\n      swap1\n      sstore\n      pop\n        /* \"solidity-fundamentals/3-fund-me/13-custom-error.sol\":1821:1830  msg.value */\n      callvalue\n        /* \"solidity-fundamentals/3-fund-me/13-custom-error.sol\":1784:1805  addressToAmountFunded */\n      0x02\n        /* \"solidity-fundamentals/3-fund-me/13-custom-error.sol\":1784:1817  addressToAmountFunded[msg.sender] */\n      0x00\n        /* \"solidity-fundamentals/3-fund-me/13-custom-error.sol\":1806:1816  msg.sender */\n      caller\n        /* \"solidity-fundamentals/3-fund-me/13-custom-error.sol\":1784:1817  addressToAmountFunded[msg.sender] */\n      0xffffffffffffffffffffffffffffffffffffffff\n      and\n      0xffffffffffffffffffffffffffffffffffffffff\n      and\n      dup2\n      mstore\n      0x20\n      add\n      swap1\n      dup2\n      mstore\n      0x20\n      add\n      0x00\n      keccak256\n      0x00\n        /* \"solidity-fundamentals/3-fund-me/13-custom-error.sol\":1784:1830  addressToAmountFunded[msg.sender] += msg.value */\n      dup3\n      dup3\n      sload\n      tag_62\n      swap2\n      swap1\n      tag_63\n      jump\t// in\n    tag_62:\n      swap3\n      pop\n      pop\n      dup2\n      swap1\n      sstore\n      pop\n        /* \"solidity-fundamentals/3-fund-me/13-custom-error.sol\":1472:1837  function fund() public payable {... */\n      jump\t// out\n        /* \"solidity-fundamentals/3-fund-me/13-custom-error.sol\":1275:1299  address[] public funders */\n    tag_33:\n      0x01\n      dup2\n      dup2\n      sload\n      dup2\n      lt\n      tag_64\n      jumpi\n      0x00\n      dup1\n      revert\n    tag_64:\n      swap1\n      0x00\n      mstore\n      keccak256(0x00, 0x20)\n      add\n      0x00\n      swap2\n      pop\n      sload\n      swap1\n      0x0100\n      exp\n      swap1\n      div\n      0xffffffffffffffffffffffffffffffffffffffff\n      and\n      dup2\n      jump\t// out\n        /* \"solidity-fundamentals/3-fund-me/library/PriceConverter.sol\":589:842  function getConversionRate(uint256 ethAmmount)... */\n    tag_59:\n        /* \"solidity-fundamentals/3-fund-me/library/PriceConverter.sol\":684:691  uint256 */\n      0x00\n        /* \"solidity-fundamentals/3-fund-me/library/PriceConverter.sol\":707:723  uint256 ethPrice */\n      dup1\n        /* \"solidity-fundamentals/3-fund-me/library/PriceConverter.sol\":726:736  getPrice() */\n      tag_67\n        /* \"solidity-fundamentals/3-fund-me/library/PriceConverter.sol\":726:734  getPrice */\n      tag_68\n        /* \"solidity-fundamentals/3-fund-me/library/PriceConverter.sol\":726:736  getPrice() */\n      jump\t// in\n    tag_67:\n        /* \"solidity-fundamentals/3-fund-me/library/PriceConverter.sol\":707:736  uint256 ethPrice = getPrice() */\n      swap1\n      pop\n        /* \"solidity-fundamentals/3-fund-me/library/PriceConverter.sol\":746:769  uint256 ethAmmountInUSD */\n      0x00\n        /* \"solidity-fundamentals/3-fund-me/library/PriceConverter.sol\":798:802  1e18 */\n      0x0de0b6b3a7640000\n        /* \"solidity-fundamentals/3-fund-me/library/PriceConverter.sol\":784:794  ethAmmount */\n      dup5\n        /* \"solidity-fundamentals/3-fund-me/library/PriceConverter.sol\":773:781  ethPrice */\n      dup4\n        /* \"solidity-fundamentals/3-fund-me/library/PriceConverter.sol\":773:794  ethPrice * ethAmmount */\n      tag_69\n      swap2\n      swap1\n      tag_70\n      jump\t// in\n    tag_69:\n        /* \"solidity-fundamentals/3-fund-me/library/PriceConverter.sol\":772:802  (ethPrice * ethAmmount) / 1e18 */\n      tag_71\n      swap2\n      swap1\n      tag_72\n      jump\t// in\n    tag_71:\n        /* \"solidity-fundamentals/3-fund-me/library/PriceConverter.sol\":746:802  uint256 ethAmmountInUSD = (ethPrice * ethAmmount) / 1e18 */\n      swap1\n      pop\n        /* \"solidity-fundamentals/3-fund-me/library/PriceConverter.sol\":820:835  ethAmmountInUSD */\n      dup1\n        /* \"solidity-fundamentals/3-fund-me/library/PriceConverter.sol\":813:835  return ethAmmountInUSD */\n      swap3\n      pop\n      pop\n      pop\n        /* \"solidity-fundamentals/3-fund-me/library/PriceConverter.sol\":589:842  function getConversionRate(uint256 ethAmmount)... */\n      swap2\n      swap1\n      pop\n      jump\t// out\n        /* \"solidity-fundamentals/3-fund-me/library/PriceConverter.sol\":202:583  function getPrice() internal view returns (uint256) {... */\n    tag_68:\n        /* \"solidity-fundamentals/3-fund-me/library/PriceConverter.sol\":245:252  uint256 */\n      0x00\n        /* \"solidity-fundamentals/3-fund-me/library/PriceConverter.sol\":264:295  AggregatorV3Interface priceFeed */\n      dup1\n        /* \"solidity-fundamentals/3-fund-me/library/PriceConverter.sol\":333:375  0x694AA1769357215DE4FAC081bf1f309aDC325306 */\n      0x694aa1769357215de4fac081bf1f309adc325306\n        /* \"solidity-fundamentals/3-fund-me/library/PriceConverter.sol\":264:385  AggregatorV3Interface priceFeed = AggregatorV3Interface(... */\n      swap1\n      pop\n        /* \"solidity-fundamentals/3-fund-me/library/PriceConverter.sol\":398:411  int256 answer */\n      0x00\n        /* \"solidity-fundamentals/3-fund-me/library/PriceConverter.sol\":421:430  priceFeed */\n      dup2\n        /* \"solidity-fundamentals/3-fund-me/library/PriceConverter.sol\":421:446  priceFeed.latestRoundData */\n      0xffffffffffffffffffffffffffffffffffffffff\n      and\n      0xfeaf968c\n        /* \"solidity-fundamentals/3-fund-me/library/PriceConverter.sol\":421:448  priceFeed.latestRoundData() */\n      mload(0x40)\n      dup2\n      0xffffffff\n      and\n      0xe0\n      shl\n      dup2\n      mstore\n      0x04\n      add\n      0xa0\n      mload(0x40)\n      dup1\n      dup4\n      sub\n      dup2\n      dup7\n      gas\n      staticcall\n      iszero\n      dup1\n      iszero\n      tag_75\n      jumpi\n      returndatasize\n      0x00\n      dup1\n      returndatacopy\n      revert(0x00, returndatasize)\n    tag_75:\n      pop\n      pop\n      pop\n      pop\n      mload(0x40)\n      returndatasize\n      not(0x1f)\n      0x1f\n      dup3\n      add\n      and\n      dup3\n      add\n      dup1\n      0x40\n      mstore\n      pop\n      dup2\n      add\n      swap1\n      tag_76\n      swap2\n      swap1\n      tag_77\n      jump\t// in\n    tag_76:\n        /* \"solidity-fundamentals/3-fund-me/library/PriceConverter.sol\":395:448  (, int256 answer, , , ) = priceFeed.latestRoundData() */\n      pop\n      pop\n      pop\n      swap2\n      pop\n      pop\n        /* \"solidity-fundamentals/3-fund-me/library/PriceConverter.sol\":472:473  0 */\n      0x00\n        /* \"solidity-fundamentals/3-fund-me/library/PriceConverter.sol\":463:469  answer */\n      dup2\n        /* \"solidity-fundamentals/3-fund-me/library/PriceConverter.sol\":463:473  answer < 0 */\n      slt\n        /* \"solidity-fundamentals/3-fund-me/library/PriceConverter.sol\":459:538  if (answer < 0) {... */\n      iszero\n      tag_78\n      jumpi\n        /* \"solidity-fundamentals/3-fund-me/library/PriceConverter.sol\":489:527  revert(\"Negative price not supported\") */\n      mload(0x40)\n      0x08c379a000000000000000000000000000000000000000000000000000000000\n      dup2\n      mstore\n      0x04\n      add\n      tag_79\n      swap1\n      tag_80\n      jump\t// in\n    tag_79:\n      mload(0x40)\n      dup1\n      swap2\n      sub\n      swap1\n      revert\n        /* \"solidity-fundamentals/3-fund-me/library/PriceConverter.sol\":459:538  if (answer < 0) {... */\n    tag_78:\n        /* \"solidity-fundamentals/3-fund-me/library/PriceConverter.sol\":571:575  1e10 */\n      0x02540be400\n        /* \"solidity-fundamentals/3-fund-me/library/PriceConverter.sol\":562:568  answer */\n      dup2\n        /* \"solidity-fundamentals/3-fund-me/library/PriceConverter.sol\":562:575  answer * 1e10 */\n      tag_81\n      swap2\n      swap1\n      tag_82\n      jump\t// in\n    tag_81:\n        /* \"solidity-fundamentals/3-fund-me/library/PriceConverter.sol\":547:576  return uint256(answer * 1e10) */\n      swap3\n      pop\n      pop\n      pop\n        /* \"solidity-fundamentals/3-fund-me/library/PriceConverter.sol\":202:583  function getPrice() internal view returns (uint256) {... */\n      swap1\n      jump\t// out\n    tag_50:\n      dup3\n      dup1\n      sload\n      dup3\n      dup3\n      sstore\n      swap1\n      0x00\n      mstore\n      keccak256(0x00, 0x20)\n      swap1\n      dup2\n      add\n      swap3\n      dup3\n      iszero\n      tag_83\n      jumpi\n      swap2\n      0x20\n      mul\n      dup3\n      add\n    tag_84:\n      dup3\n      dup2\n      gt\n      iszero\n      tag_85\n      jumpi\n      dup3\n      mload\n      dup3\n      exp(0x0100, 0x00)\n      dup2\n      sload\n      dup2\n      0xffffffffffffffffffffffffffffffffffffffff\n      mul\n      not\n      and\n      swap1\n      dup4\n      0xffffffffffffffffffffffffffffffffffffffff\n      and\n      mul\n      or\n      swap1\n      sstore\n      pop\n      swap2\n      0x20\n      add\n      swap2\n      swap1\n      0x01\n      add\n      swap1\n      jump(tag_84)\n    tag_85:\n    tag_83:\n      pop\n      swap1\n      pop\n      tag_86\n      swap2\n      swap1\n      tag_87\n      jump\t// in\n    tag_86:\n      pop\n      swap1\n      jump\t// out\n    tag_87:\n    tag_88:\n      dup1\n      dup3\n      gt\n      iszero\n      tag_89\n      jumpi\n      0x00\n      dup2\n      0x00\n      swap1\n      sstore\n      pop\n      0x01\n      add\n      jump(tag_88)\n    tag_89:\n      pop\n      swap1\n      jump\t// out\n        /* \"#utility.yul\":7:133   */\n    tag_90:\n        /* \"#utility.yul\":44:51   */\n      0x00\n        /* \"#utility.yul\":84:126   */\n      0xffffffffffffffffffffffffffffffffffffffff\n        /* \"#utility.yul\":77:82   */\n      dup3\n        /* \"#utility.yul\":73:127   */\n      and\n        /* \"#utility.yul\":62:127   */\n      swap1\n      pop\n        /* \"#utility.yul\":7:133   */\n      swap2\n      swap1\n      pop\n      jump\t// out\n        /* \"#utility.yul\":139:235   */\n    tag_91:\n        /* \"#utility.yul\":176:183   */\n      0x00\n        /* \"#utility.yul\":205:229   */\n      tag_120\n        /* \"#utility.yul\":223:228   */\n      dup3\n        /* \"#utility.yul\":205:229   */\n      tag_90\n      jump\t// in\n    tag_120:\n        /* \"#utility.yul\":194:229   */\n      swap1\n      pop\n        /* \"#utility.yul\":139:235   */\n      swap2\n      swap1\n      pop\n      jump\t// out\n        /* \"#utility.yul\":241:359   */\n    tag_92:\n        /* \"#utility.yul\":328:352   */\n      tag_122\n        /* \"#utility.yul\":346:351   */\n      dup2\n        /* \"#utility.yul\":328:352   */\n      tag_91\n      jump\t// in\n    tag_122:\n        /* \"#utility.yul\":323:326   */\n      dup3\n        /* \"#utility.yul\":316:353   */\n      mstore\n        /* \"#utility.yul\":241:359   */\n      pop\n      pop\n      jump\t// out\n        /* \"#utility.yul\":365:587   */\n    tag_12:\n        /* \"#utility.yul\":458:462   */\n      0x00\n        /* \"#utility.yul\":496:498   */\n      0x20\n        /* \"#utility.yul\":485:494   */\n      dup3\n        /* \"#utility.yul\":481:499   */\n      add\n        /* \"#utility.yul\":473:499   */\n      swap1\n      pop\n        /* \"#utility.yul\":509:580   */\n      tag_124\n        /* \"#utility.yul\":577:578   */\n      0x00\n        /* \"#utility.yul\":566:575   */\n      dup4\n        /* \"#utility.yul\":562:579   */\n      add\n        /* \"#utility.yul\":553:559   */\n      dup5\n        /* \"#utility.yul\":509:580   */\n      tag_92\n      jump\t// in\n    tag_124:\n        /* \"#utility.yul\":365:587   */\n      swap3\n      swap2\n      pop\n      pop\n      jump\t// out\n        /* \"#utility.yul\":593:670   */\n    tag_93:\n        /* \"#utility.yul\":630:637   */\n      0x00\n        /* \"#utility.yul\":659:664   */\n      dup2\n        /* \"#utility.yul\":648:664   */\n      swap1\n      pop\n        /* \"#utility.yul\":593:670   */\n      swap2\n      swap1\n      pop\n      jump\t// out\n        /* \"#utility.yul\":676:794   */\n    tag_94:\n        /* \"#utility.yul\":763:787   */\n      tag_127\n        /* \"#utility.yul\":781:786   */\n      dup2\n        /* \"#utility.yul\":763:787   */\n      tag_93\n      jump\t// in\n    tag_127:\n        /* \"#utility.yul\":758:761   */\n      dup3\n        /* \"#utility.yul\":751:788   */\n      mstore\n        /* \"#utility.yul\":676:794   */\n      pop\n      pop\n      jump\t// out\n        /* \"#utility.yul\":800:1022   */\n    tag_17:\n        /* \"#utility.yul\":893:897   */\n      0x00\n        /* \"#utility.yul\":931:933   */\n      0x20\n        /* \"#utility.yul\":920:929   */\n      dup3\n        /* \"#utility.yul\":916:934   */\n      add\n        /* \"#utility.yul\":908:934   */\n      swap1\n      pop\n        /* \"#utility.yul\":944:1015   */\n      tag_129\n        /* \"#utility.yul\":1012:1013   */\n      0x00\n        /* \"#utility.yul\":1001:1010   */\n      dup4\n        /* \"#utility.yul\":997:1014   */\n      add\n        /* \"#utility.yul\":988:994   */\n      dup5\n        /* \"#utility.yul\":944:1015   */\n      tag_94\n      jump\t// in\n    tag_129:\n        /* \"#utility.yul\":800:1022   */\n      swap3\n      swap2\n      pop\n      pop\n      jump\t// out\n        /* \"#utility.yul\":1109:1226   */\n    tag_96:\n        /* \"#utility.yul\":1218:1219   */\n      0x00\n        /* \"#utility.yul\":1215:1216   */\n      dup1\n        /* \"#utility.yul\":1208:1220   */\n      revert\n        /* \"#utility.yul\":1355:1477   */\n    tag_98:\n        /* \"#utility.yul\":1428:1452   */\n      tag_134\n        /* \"#utility.yul\":1446:1451   */\n      dup2\n        /* \"#utility.yul\":1428:1452   */\n      tag_91\n      jump\t// in\n    tag_134:\n        /* \"#utility.yul\":1421:1426   */\n      dup2\n        /* \"#utility.yul\":1418:1453   */\n      eq\n        /* \"#utility.yul\":1408:1471   */\n      tag_135\n      jumpi\n        /* \"#utility.yul\":1467:1468   */\n      0x00\n        /* \"#utility.yul\":1464:1465   */\n      dup1\n        /* \"#utility.yul\":1457:1469   */\n      revert\n        /* \"#utility.yul\":1408:1471   */\n    tag_135:\n        /* \"#utility.yul\":1355:1477   */\n      pop\n      jump\t// out\n        /* \"#utility.yul\":1483:1622   */\n    tag_99:\n        /* \"#utility.yul\":1529:1534   */\n      0x00\n        /* \"#utility.yul\":1567:1573   */\n      dup2\n        /* \"#utility.yul\":1554:1574   */\n      calldataload\n        /* \"#utility.yul\":1545:1574   */\n      swap1\n      pop\n        /* \"#utility.yul\":1583:1616   */\n      tag_137\n        /* \"#utility.yul\":1610:1615   */\n      dup2\n        /* \"#utility.yul\":1583:1616   */\n      tag_98\n      jump\t// in\n    tag_137:\n        /* \"#utility.yul\":1483:1622   */\n      swap3\n      swap2\n      pop\n      pop\n      jump\t// out\n        /* \"#utility.yul\":1628:1957   */\n    tag_24:\n        /* \"#utility.yul\":1687:1693   */\n      0x00\n        /* \"#utility.yul\":1736:1738   */\n      0x20\n        /* \"#utility.yul\":1724:1733   */\n      dup3\n        /* \"#utility.yul\":1715:1722   */\n      dup5\n        /* \"#utility.yul\":1711:1734   */\n      sub\n        /* \"#utility.yul\":1707:1739   */\n      slt\n        /* \"#utility.yul\":1704:1823   */\n      iszero\n      tag_139\n      jumpi\n        /* \"#utility.yul\":1742:1821   */\n      tag_140\n      tag_96\n      jump\t// in\n    tag_140:\n        /* \"#utility.yul\":1704:1823   */\n    tag_139:\n        /* \"#utility.yul\":1862:1863   */\n      0x00\n        /* \"#utility.yul\":1887:1940   */\n      tag_141\n        /* \"#utility.yul\":1932:1939   */\n      dup5\n        /* \"#utility.yul\":1923:1929   */\n      dup3\n        /* \"#utility.yul\":1912:1921   */\n      dup6\n        /* \"#utility.yul\":1908:1930   */\n      add\n        /* \"#utility.yul\":1887:1940   */\n      tag_99\n      jump\t// in\n    tag_141:\n        /* \"#utility.yul\":1877:1940   */\n      swap2\n      pop\n        /* \"#utility.yul\":1833:1950   */\n      pop\n        /* \"#utility.yul\":1628:1957   */\n      swap3\n      swap2\n      pop\n      pop\n      jump\t// out\n        /* \"#utility.yul\":1963:2085   */\n    tag_100:\n        /* \"#utility.yul\":2036:2060   */\n      tag_143\n        /* \"#utility.yul\":2054:2059   */\n      dup2\n        /* \"#utility.yul\":2036:2060   */\n      tag_93\n      jump\t// in\n    tag_143:\n        /* \"#utility.yul\":2029:2034   */\n      dup2\n        /* \"#utility.yul\":2026:2061   */\n      eq\n        /* \"#utility.yul\":2016:2079   */\n      tag_144\n      jumpi\n        /* \"#utility.yul\":2075:2076   */\n      0x00\n        /* \"#utility.yul\":2072:2073   */\n      dup1\n        /* \"#utility.yul\":2065:2077   */\n      revert\n        /* \"#utility.yul\":2016:2079   */\n    tag_144:\n        /* \"#utility.yul\":1963:2085   */\n      pop\n      jump\t// out\n        /* \"#utility.yul\":2091:2230   */\n    tag_101:\n        /* \"#utility.yul\":2137:2142   */\n      0x00\n        /* \"#utility.yul\":2175:2181   */\n      dup2\n        /* \"#utility.yul\":2162:2182   */\n      calldataload\n        /* \"#utility.yul\":2153:2182   */\n      swap1\n      pop\n        /* \"#utility.yul\":2191:2224   */\n      tag_146\n        /* \"#utility.yul\":2218:2223   */\n      dup2\n        /* \"#utility.yul\":2191:2224   */\n      tag_100\n      jump\t// in\n    tag_146:\n        /* \"#utility.yul\":2091:2230   */\n      swap3\n      swap2\n      pop\n      pop\n      jump\t// out\n        /* \"#utility.yul\":2236:2565   */\n    tag_32:\n        /* \"#utility.yul\":2295:2301   */\n      0x00\n        /* \"#utility.yul\":2344:2346   */\n      0x20\n        /* \"#utility.yul\":2332:2341   */\n      dup3\n        /* \"#utility.yul\":2323:2330   */\n      dup5\n        /* \"#utility.yul\":2319:2342   */\n      sub\n        /* \"#utility.yul\":2315:2347   */\n      slt\n        /* \"#utility.yul\":2312:2431   */\n      iszero\n      tag_148\n      jumpi\n        /* \"#utility.yul\":2350:2429   */\n      tag_149\n      tag_96\n      jump\t// in\n    tag_149:\n        /* \"#utility.yul\":2312:2431   */\n    tag_148:\n        /* \"#utility.yul\":2470:2471   */\n      0x00\n        /* \"#utility.yul\":2495:2548   */\n      tag_150\n        /* \"#utility.yul\":2540:2547   */\n      dup5\n        /* \"#utility.yul\":2531:2537   */\n      dup3\n        /* \"#utility.yul\":2520:2529   */\n      dup6\n        /* \"#utility.yul\":2516:2538   */\n      add\n        /* \"#utility.yul\":2495:2548   */\n      tag_101\n      jump\t// in\n    tag_150:\n        /* \"#utility.yul\":2485:2548   */\n      swap2\n      pop\n        /* \"#utility.yul\":2441:2558   */\n      pop\n        /* \"#utility.yul\":2236:2565   */\n      swap3\n      swap2\n      pop\n      pop\n      jump\t// out\n        /* \"#utility.yul\":2571:2751   */\n    tag_43:\n        /* \"#utility.yul\":2619:2696   */\n      0x4e487b7100000000000000000000000000000000000000000000000000000000\n        /* \"#utility.yul\":2616:2617   */\n      0x00\n        /* \"#utility.yul\":2609:2697   */\n      mstore\n        /* \"#utility.yul\":2716:2720   */\n      0x32\n        /* \"#utility.yul\":2713:2714   */\n      0x04\n        /* \"#utility.yul\":2706:2721   */\n      mstore\n        /* \"#utility.yul\":2740:2744   */\n      0x24\n        /* \"#utility.yul\":2737:2738   */\n      0x00\n        /* \"#utility.yul\":2730:2745   */\n      revert\n        /* \"#utility.yul\":2757:2937   */\n    tag_47:\n        /* \"#utility.yul\":2805:2882   */\n      0x4e487b7100000000000000000000000000000000000000000000000000000000\n        /* \"#utility.yul\":2802:2803   */\n      0x00\n        /* \"#utility.yul\":2795:2883   */\n      mstore\n        /* \"#utility.yul\":2902:2906   */\n      0x41\n        /* \"#utility.yul\":2899:2900   */\n      0x04\n        /* \"#utility.yul\":2892:2907   */\n      mstore\n        /* \"#utility.yul\":2926:2930   */\n      0x24\n        /* \"#utility.yul\":2923:2924   */\n      0x00\n        /* \"#utility.yul\":2916:2931   */\n      revert\n        /* \"#utility.yul\":2943:3090   */\n    tag_102:\n        /* \"#utility.yul\":3044:3055   */\n      0x00\n        /* \"#utility.yul\":3081:3084   */\n      dup2\n        /* \"#utility.yul\":3066:3084   */\n      swap1\n      pop\n        /* \"#utility.yul\":2943:3090   */\n      swap3\n      swap2\n      pop\n      pop\n      jump\t// out\n        /* \"#utility.yul\":3096:3210   */\n    tag_103:\n      pop\n      jump\t// out\n        /* \"#utility.yul\":3216:3614   */\n    tag_104:\n        /* \"#utility.yul\":3375:3378   */\n      0x00\n        /* \"#utility.yul\":3396:3479   */\n      tag_156\n        /* \"#utility.yul\":3477:3478   */\n      0x00\n        /* \"#utility.yul\":3472:3475   */\n      dup4\n        /* \"#utility.yul\":3396:3479   */\n      tag_102\n      jump\t// in\n    tag_156:\n        /* \"#utility.yul\":3389:3479   */\n      swap2\n      pop\n        /* \"#utility.yul\":3488:3581   */\n      tag_157\n        /* \"#utility.yul\":3577:3580   */\n      dup3\n        /* \"#utility.yul\":3488:3581   */\n      tag_103\n      jump\t// in\n    tag_157:\n        /* \"#utility.yul\":3606:3607   */\n      0x00\n        /* \"#utility.yul\":3601:3604   */\n      dup3\n        /* \"#utility.yul\":3597:3608   */\n      add\n        /* \"#utility.yul\":3590:3608   */\n      swap1\n      pop\n        /* \"#utility.yul\":3216:3614   */\n      swap2\n      swap1\n      pop\n      jump\t// out\n        /* \"#utility.yul\":3620:3999   */\n    tag_52:\n        /* \"#utility.yul\":3804:3807   */\n      0x00\n        /* \"#utility.yul\":3826:3973   */\n      tag_159\n        /* \"#utility.yul\":3969:3972   */\n      dup3\n        /* \"#utility.yul\":3826:3973   */\n      tag_104\n      jump\t// in\n    tag_159:\n        /* \"#utility.yul\":3819:3973   */\n      swap2\n      pop\n        /* \"#utility.yul\":3990:3993   */\n      dup2\n        /* \"#utility.yul\":3983:3993   */\n      swap1\n      pop\n        /* \"#utility.yul\":3620:3999   */\n      swap2\n      swap1\n      pop\n      jump\t// out\n        /* \"#utility.yul\":4005:4185   */\n    tag_105:\n        /* \"#utility.yul\":4053:4130   */\n      0x4e487b7100000000000000000000000000000000000000000000000000000000\n        /* \"#utility.yul\":4050:4051   */\n      0x00\n        /* \"#utility.yul\":4043:4131   */\n      mstore\n        /* \"#utility.yul\":4150:4154   */\n      0x11\n        /* \"#utility.yul\":4147:4148   */\n      0x04\n        /* \"#utility.yul\":4140:4155   */\n      mstore\n        /* \"#utility.yul\":4174:4178   */\n      0x24\n        /* \"#utility.yul\":4171:4172   */\n      0x00\n        /* \"#utility.yul\":4164:4179   */\n      revert\n        /* \"#utility.yul\":4191:4382   */\n    tag_63:\n        /* \"#utility.yul\":4231:4234   */\n      0x00\n        /* \"#utility.yul\":4250:4270   */\n      tag_162\n        /* \"#utility.yul\":4268:4269   */\n      dup3\n        /* \"#utility.yul\":4250:4270   */\n      tag_93\n      jump\t// in\n    tag_162:\n        /* \"#utility.yul\":4245:4270   */\n      swap2\n      pop\n        /* \"#utility.yul\":4284:4304   */\n      tag_163\n        /* \"#utility.yul\":4302:4303   */\n      dup4\n        /* \"#utility.yul\":4284:4304   */\n      tag_93\n      jump\t// in\n    tag_163:\n        /* \"#utility.yul\":4279:4304   */\n      swap3\n      pop\n        /* \"#utility.yul\":4327:4328   */\n      dup3\n        /* \"#utility.yul\":4324:4325   */\n      dup3\n        /* \"#utility.yul\":4320:4329   */\n      add\n        /* \"#utility.yul\":4313:4329   */\n      swap1\n      pop\n        /* \"#utility.yul\":4348:4351   */\n      dup1\n        /* \"#utility.yul\":4345:4346   */\n      dup3\n        /* \"#utility.yul\":4342:4352   */\n      gt\n        /* \"#utility.yul\":4339:4375   */\n      iszero\n      tag_164\n      jumpi\n        /* \"#utility.yul\":4355:4373   */\n      tag_165\n      tag_105\n      jump\t// in\n    tag_165:\n        /* \"#utility.yul\":4339:4375   */\n    tag_164:\n        /* \"#utility.yul\":4191:4382   */\n      swap3\n      swap2\n      pop\n      pop\n      jump\t// out\n        /* \"#utility.yul\":4388:4798   */\n    tag_70:\n        /* \"#utility.yul\":4428:4435   */\n      0x00\n        /* \"#utility.yul\":4451:4471   */\n      tag_167\n        /* \"#utility.yul\":4469:4470   */\n      dup3\n        /* \"#utility.yul\":4451:4471   */\n      tag_93\n      jump\t// in\n    tag_167:\n        /* \"#utility.yul\":4446:4471   */\n      swap2\n      pop\n        /* \"#utility.yul\":4485:4505   */\n      tag_168\n        /* \"#utility.yul\":4503:4504   */\n      dup4\n        /* \"#utility.yul\":4485:4505   */\n      tag_93\n      jump\t// in\n    tag_168:\n        /* \"#utility.yul\":4480:4505   */\n      swap3\n      pop\n        /* \"#utility.yul\":4540:4541   */\n      dup3\n        /* \"#utility.yul\":4537:4538   */\n      dup3\n        /* \"#utility.yul\":4533:4542   */\n      mul\n        /* \"#utility.yul\":4562:4592   */\n      tag_169\n        /* \"#utility.yul\":4580:4591   */\n      dup2\n        /* \"#utility.yul\":4562:4592   */\n      tag_93\n      jump\t// in\n    tag_169:\n        /* \"#utility.yul\":4551:4592   */\n      swap2\n      pop\n        /* \"#utility.yul\":4741:4742   */\n      dup3\n        /* \"#utility.yul\":4732:4739   */\n      dup3\n        /* \"#utility.yul\":4728:4743   */\n      div\n        /* \"#utility.yul\":4725:4726   */\n      dup5\n        /* \"#utility.yul\":4722:4744   */\n      eq\n        /* \"#utility.yul\":4702:4703   */\n      dup4\n        /* \"#utility.yul\":4695:4704   */\n      iszero\n        /* \"#utility.yul\":4675:4758   */\n      or\n        /* \"#utility.yul\":4652:4791   */\n      tag_170\n      jumpi\n        /* \"#utility.yul\":4771:4789   */\n      tag_171\n      tag_105\n      jump\t// in\n    tag_171:\n        /* \"#utility.yul\":4652:4791   */\n    tag_170:\n        /* \"#utility.yul\":4436:4798   */\n      pop\n        /* \"#utility.yul\":4388:4798   */\n      swap3\n      swap2\n      pop\n      pop\n      jump\t// out\n        /* \"#utility.yul\":4804:4984   */\n    tag_106:\n        /* \"#utility.yul\":4852:4929   */\n      0x4e487b7100000000000000000000000000000000000000000000000000000000\n        /* \"#utility.yul\":4849:4850   */\n      0x00\n        /* \"#utility.yul\":4842:4930   */\n      mstore\n        /* \"#utility.yul\":4949:4953   */\n      0x12\n        /* \"#utility.yul\":4946:4947   */\n      0x04\n        /* \"#utility.yul\":4939:4954   */\n      mstore\n        /* \"#utility.yul\":4973:4977   */\n      0x24\n        /* \"#utility.yul\":4970:4971   */\n      0x00\n        /* \"#utility.yul\":4963:4978   */\n      revert\n        /* \"#utility.yul\":4990:5175   */\n    tag_72:\n        /* \"#utility.yul\":5030:5031   */\n      0x00\n        /* \"#utility.yul\":5047:5067   */\n      tag_174\n        /* \"#utility.yul\":5065:5066   */\n      dup3\n        /* \"#utility.yul\":5047:5067   */\n      tag_93\n      jump\t// in\n    tag_174:\n        /* \"#utility.yul\":5042:5067   */\n      swap2\n      pop\n        /* \"#utility.yul\":5081:5101   */\n      tag_175\n        /* \"#utility.yul\":5099:5100   */\n      dup4\n        /* \"#utility.yul\":5081:5101   */\n      tag_93\n      jump\t// in\n    tag_175:\n        /* \"#utility.yul\":5076:5101   */\n      swap3\n      pop\n        /* \"#utility.yul\":5120:5121   */\n      dup3\n        /* \"#utility.yul\":5110:5145   */\n      tag_176\n      jumpi\n        /* \"#utility.yul\":5125:5143   */\n      tag_177\n      tag_106\n      jump\t// in\n    tag_177:\n        /* \"#utility.yul\":5110:5145   */\n    tag_176:\n        /* \"#utility.yul\":5167:5168   */\n      dup3\n        /* \"#utility.yul\":5164:5165   */\n      dup3\n        /* \"#utility.yul\":5160:5169   */\n      div\n        /* \"#utility.yul\":5155:5169   */\n      swap1\n      pop\n        /* \"#utility.yul\":4990:5175   */\n      swap3\n      swap2\n      pop\n      pop\n      jump\t// out\n        /* \"#utility.yul\":5181:5286   */\n    tag_107:\n        /* \"#utility.yul\":5217:5224   */\n      0x00\n        /* \"#utility.yul\":5257:5279   */\n      0xffffffffffffffffffff\n        /* \"#utility.yul\":5250:5255   */\n      dup3\n        /* \"#utility.yul\":5246:5280   */\n      and\n        /* \"#utility.yul\":5235:5280   */\n      swap1\n      pop\n        /* \"#utility.yul\":5181:5286   */\n      swap2\n      swap1\n      pop\n      jump\t// out\n        /* \"#utility.yul\":5292:5412   */\n    tag_108:\n        /* \"#utility.yul\":5364:5387   */\n      tag_180\n        /* \"#utility.yul\":5381:5386   */\n      dup2\n        /* \"#utility.yul\":5364:5387   */\n      tag_107\n      jump\t// in\n    tag_180:\n        /* \"#utility.yul\":5357:5362   */\n      dup2\n        /* \"#utility.yul\":5354:5388   */\n      eq\n        /* \"#utility.yul\":5344:5406   */\n      tag_181\n      jumpi\n        /* \"#utility.yul\":5402:5403   */\n      0x00\n        /* \"#utility.yul\":5399:5400   */\n      dup1\n        /* \"#utility.yul\":5392:5404   */\n      revert\n        /* \"#utility.yul\":5344:5406   */\n    tag_181:\n        /* \"#utility.yul\":5292:5412   */\n      pop\n      jump\t// out\n        /* \"#utility.yul\":5418:5559   */\n    tag_109:\n        /* \"#utility.yul\":5474:5479   */\n      0x00\n        /* \"#utility.yul\":5505:5511   */\n      dup2\n        /* \"#utility.yul\":5499:5512   */\n      mload\n        /* \"#utility.yul\":5490:5512   */\n      swap1\n      pop\n        /* \"#utility.yul\":5521:5553   */\n      tag_183\n        /* \"#utility.yul\":5547:5552   */\n      dup2\n        /* \"#utility.yul\":5521:5553   */\n      tag_108\n      jump\t// in\n    tag_183:\n        /* \"#utility.yul\":5418:5559   */\n      swap3\n      swap2\n      pop\n      pop\n      jump\t// out\n        /* \"#utility.yul\":5565:5641   */\n    tag_110:\n        /* \"#utility.yul\":5601:5608   */\n      0x00\n        /* \"#utility.yul\":5630:5635   */\n      dup2\n        /* \"#utility.yul\":5619:5635   */\n      swap1\n      pop\n        /* \"#utility.yul\":5565:5641   */\n      swap2\n      swap1\n      pop\n      jump\t// out\n        /* \"#utility.yul\":5647:5767   */\n    tag_111:\n        /* \"#utility.yul\":5719:5742   */\n      tag_186\n        /* \"#utility.yul\":5736:5741   */\n      dup2\n        /* \"#utility.yul\":5719:5742   */\n      tag_110\n      jump\t// in\n    tag_186:\n        /* \"#utility.yul\":5712:5717   */\n      dup2\n        /* \"#utility.yul\":5709:5743   */\n      eq\n        /* \"#utility.yul\":5699:5761   */\n      tag_187\n      jumpi\n        /* \"#utility.yul\":5757:5758   */\n      0x00\n        /* \"#utility.yul\":5754:5755   */\n      dup1\n        /* \"#utility.yul\":5747:5759   */\n      revert\n        /* \"#utility.yul\":5699:5761   */\n    tag_187:\n        /* \"#utility.yul\":5647:5767   */\n      pop\n      jump\t// out\n        /* \"#utility.yul\":5773:5914   */\n    tag_112:\n        /* \"#utility.yul\":5829:5834   */\n      0x00\n        /* \"#utility.yul\":5860:5866   */\n      dup2\n        /* \"#utility.yul\":5854:5867   */\n      mload\n        /* \"#utility.yul\":5845:5867   */\n      swap1\n      pop\n        /* \"#utility.yul\":5876:5908   */\n      tag_189\n        /* \"#utility.yul\":5902:5907   */\n      dup2\n        /* \"#utility.yul\":5876:5908   */\n      tag_111\n      jump\t// in\n    tag_189:\n        /* \"#utility.yul\":5773:5914   */\n      swap3\n      swap2\n      pop\n      pop\n      jump\t// out\n        /* \"#utility.yul\":5920:6063   */\n    tag_113:\n        /* \"#utility.yul\":5977:5982   */\n      0x00\n        /* \"#utility.yul\":6008:6014   */\n      dup2\n        /* \"#utility.yul\":6002:6015   */\n      mload\n        /* \"#utility.yul\":5993:6015   */\n      swap1\n      pop\n        /* \"#utility.yul\":6024:6057   */\n      tag_191\n        /* \"#utility.yul\":6051:6056   */\n      dup2\n        /* \"#utility.yul\":6024:6057   */\n      tag_100\n      jump\t// in\n    tag_191:\n        /* \"#utility.yul\":5920:6063   */\n      swap3\n      swap2\n      pop\n      pop\n      jump\t// out\n        /* \"#utility.yul\":6069:7040   */\n    tag_77:\n        /* \"#utility.yul\":6172:6178   */\n      0x00\n        /* \"#utility.yul\":6180:6186   */\n      dup1\n        /* \"#utility.yul\":6188:6194   */\n      0x00\n        /* \"#utility.yul\":6196:6202   */\n      dup1\n        /* \"#utility.yul\":6204:6210   */\n      0x00\n        /* \"#utility.yul\":6253:6256   */\n      0xa0\n        /* \"#utility.yul\":6241:6250   */\n      dup7\n        /* \"#utility.yul\":6232:6239   */\n      dup9\n        /* \"#utility.yul\":6228:6251   */\n      sub\n        /* \"#utility.yul\":6224:6257   */\n      slt\n        /* \"#utility.yul\":6221:6341   */\n      iszero\n      tag_193\n      jumpi\n        /* \"#utility.yul\":6260:6339   */\n      tag_194\n      tag_96\n      jump\t// in\n    tag_194:\n        /* \"#utility.yul\":6221:6341   */\n    tag_193:\n        /* \"#utility.yul\":6380:6381   */\n      0x00\n        /* \"#utility.yul\":6405:6468   */\n      tag_195\n        /* \"#utility.yul\":6460:6467   */\n      dup9\n        /* \"#utility.yul\":6451:6457   */\n      dup3\n        /* \"#utility.yul\":6440:6449   */\n      dup10\n        /* \"#utility.yul\":6436:6458   */\n      add\n        /* \"#utility.yul\":6405:6468   */\n      tag_109\n      jump\t// in\n    tag_195:\n        /* \"#utility.yul\":6395:6468   */\n      swap6\n      pop\n        /* \"#utility.yul\":6351:6478   */\n      pop\n        /* \"#utility.yul\":6517:6519   */\n      0x20\n        /* \"#utility.yul\":6543:6606   */\n      tag_196\n        /* \"#utility.yul\":6598:6605   */\n      dup9\n        /* \"#utility.yul\":6589:6595   */\n      dup3\n        /* \"#utility.yul\":6578:6587   */\n      dup10\n        /* \"#utility.yul\":6574:6596   */\n      add\n        /* \"#utility.yul\":6543:6606   */\n      tag_112\n      jump\t// in\n    tag_196:\n        /* \"#utility.yul\":6533:6606   */\n      swap5\n      pop\n        /* \"#utility.yul\":6488:6616   */\n      pop\n        /* \"#utility.yul\":6655:6657   */\n      0x40\n        /* \"#utility.yul\":6681:6745   */\n      tag_197\n        /* \"#utility.yul\":6737:6744   */\n      dup9\n        /* \"#utility.yul\":6728:6734   */\n      dup3\n        /* \"#utility.yul\":6717:6726   */\n      dup10\n        /* \"#utility.yul\":6713:6735   */\n      add\n        /* \"#utility.yul\":6681:6745   */\n      tag_113\n      jump\t// in\n    tag_197:\n        /* \"#utility.yul\":6671:6745   */\n      swap4\n      pop\n        /* \"#utility.yul\":6626:6755   */\n      pop\n        /* \"#utility.yul\":6794:6796   */\n      0x60\n        /* \"#utility.yul\":6820:6884   */\n      tag_198\n        /* \"#utility.yul\":6876:6883   */\n      dup9\n        /* \"#utility.yul\":6867:6873   */\n      dup3\n        /* \"#utility.yul\":6856:6865   */\n      dup10\n        /* \"#utility.yul\":6852:6874   */\n      add\n        /* \"#utility.yul\":6820:6884   */\n      tag_113\n      jump\t// in\n    tag_198:\n        /* \"#utility.yul\":6810:6884   */\n      swap3\n      pop\n        /* \"#utility.yul\":6765:6894   */\n      pop\n        /* \"#utility.yul\":6933:6936   */\n      0x80\n        /* \"#utility.yul\":6960:7023   */\n      tag_199\n        /* \"#utility.yul\":7015:7022   */\n      dup9\n        /* \"#utility.yul\":7006:7012   */\n      dup3\n        /* \"#utility.yul\":6995:7004   */\n      dup10\n        /* \"#utility.yul\":6991:7013   */\n      add\n        /* \"#utility.yul\":6960:7023   */\n      tag_109\n      jump\t// in\n    tag_199:\n        /* \"#utility.yul\":6950:7023   */\n      swap2\n      pop\n        /* \"#utility.yul\":6904:7033   */\n      pop\n        /* \"#utility.yul\":6069:7040   */\n      swap3\n      swap6\n      pop\n      swap3\n      swap6\n      swap1\n      swap4\n      pop\n      jump\t// out\n        /* \"#utility.yul\":7046:7215   */\n    tag_114:\n        /* \"#utility.yul\":7130:7141   */\n      0x00\n        /* \"#utility.yul\":7164:7170   */\n      dup3\n        /* \"#utility.yul\":7159:7162   */\n      dup3\n        /* \"#utility.yul\":7152:7171   */\n      mstore\n        /* \"#utility.yul\":7204:7208   */\n      0x20\n        /* \"#utility.yul\":7199:7202   */\n      dup3\n        /* \"#utility.yul\":7195:7209   */\n      add\n        /* \"#utility.yul\":7180:7209   */\n      swap1\n      pop\n        /* \"#utility.yul\":7046:7215   */\n      swap3\n      swap2\n      pop\n      pop\n      jump\t// out\n        /* \"#utility.yul\":7221:7399   */\n    tag_115:\n        /* \"#utility.yul\":7361:7391   */\n      0x4e65676174697665207072696365206e6f7420737570706f7274656400000000\n        /* \"#utility.yul\":7357:7358   */\n      0x00\n        /* \"#utility.yul\":7349:7355   */\n      dup3\n        /* \"#utility.yul\":7345:7359   */\n      add\n        /* \"#utility.yul\":7338:7392   */\n      mstore\n        /* \"#utility.yul\":7221:7399   */\n      pop\n      jump\t// out\n        /* \"#utility.yul\":7405:7771   */\n    tag_116:\n        /* \"#utility.yul\":7547:7550   */\n      0x00\n        /* \"#utility.yul\":7568:7635   */\n      tag_203\n        /* \"#utility.yul\":7632:7634   */\n      0x1c\n        /* \"#utility.yul\":7627:7630   */\n      dup4\n        /* \"#utility.yul\":7568:7635   */\n      tag_114\n      jump\t// in\n    tag_203:\n        /* \"#utility.yul\":7561:7635   */\n      swap2\n      pop\n        /* \"#utility.yul\":7644:7737   */\n      tag_204\n        /* \"#utility.yul\":7733:7736   */\n      dup3\n        /* \"#utility.yul\":7644:7737   */\n      tag_115\n      jump\t// in\n    tag_204:\n        /* \"#utility.yul\":7762:7764   */\n      0x20\n        /* \"#utility.yul\":7757:7760   */\n      dup3\n        /* \"#utility.yul\":7753:7765   */\n      add\n        /* \"#utility.yul\":7746:7765   */\n      swap1\n      pop\n        /* \"#utility.yul\":7405:7771   */\n      swap2\n      swap1\n      pop\n      jump\t// out\n        /* \"#utility.yul\":7777:8196   */\n    tag_80:\n        /* \"#utility.yul\":7943:7947   */\n      0x00\n        /* \"#utility.yul\":7981:7983   */\n      0x20\n        /* \"#utility.yul\":7970:7979   */\n      dup3\n        /* \"#utility.yul\":7966:7984   */\n      add\n        /* \"#utility.yul\":7958:7984   */\n      swap1\n      pop\n        /* \"#utility.yul\":8030:8039   */\n      dup2\n        /* \"#utility.yul\":8024:8028   */\n      dup2\n        /* \"#utility.yul\":8020:8040   */\n      sub\n        /* \"#utility.yul\":8016:8017   */\n      0x00\n        /* \"#utility.yul\":8005:8014   */\n      dup4\n        /* \"#utility.yul\":8001:8018   */\n      add\n        /* \"#utility.yul\":7994:8041   */\n      mstore\n        /* \"#utility.yul\":8058:8189   */\n      tag_206\n        /* \"#utility.yul\":8184:8188   */\n      dup2\n        /* \"#utility.yul\":8058:8189   */\n      tag_116\n      jump\t// in\n    tag_206:\n        /* \"#utility.yul\":8050:8189   */\n      swap1\n      pop\n        /* \"#utility.yul\":7777:8196   */\n      swap2\n      swap1\n      pop\n      jump\t// out\n        /* \"#utility.yul\":8202:8758   */\n    tag_82:\n        /* \"#utility.yul\":8241:8248   */\n      0x00\n        /* \"#utility.yul\":8264:8283   */\n      tag_208\n        /* \"#utility.yul\":8281:8282   */\n      dup3\n        /* \"#utility.yul\":8264:8283   */\n      tag_110\n      jump\t// in\n    tag_208:\n        /* \"#utility.yul\":8259:8283   */\n      swap2\n      pop\n        /* \"#utility.yul\":8297:8316   */\n      tag_209\n        /* \"#utility.yul\":8314:8315   */\n      dup4\n        /* \"#utility.yul\":8297:8316   */\n      tag_110\n      jump\t// in\n    tag_209:\n        /* \"#utility.yul\":8292:8316   */\n      swap3\n      pop\n        /* \"#utility.yul\":8351:8352   */\n      dup3\n        /* \"#utility.yul\":8348:8349   */\n      dup3\n        /* \"#utility.yul\":8344:8353   */\n      mul\n        /* \"#utility.yul\":8373:8402   */\n      tag_210\n        /* \"#utility.yul\":8390:8401   */\n      dup2\n        /* \"#utility.yul\":8373:8402   */\n      tag_110\n      jump\t// in\n    tag_210:\n        /* \"#utility.yul\":8362:8402   */\n      swap2\n      pop\n        /* \"#utility.yul\":8460:8526   */\n      0x8000000000000000000000000000000000000000000000000000000000000000\n        /* \"#utility.yul\":8457:8458   */\n      dup5\n        /* \"#utility.yul\":8454:8527   */\n      eq\n        /* \"#utility.yul\":8450:8451   */\n      0x00\n        /* \"#utility.yul\":8447:8448   */\n      dup5\n        /* \"#utility.yul\":8443:8452   */\n      slt\n        /* \"#utility.yul\":8439:8528   */\n      and\n        /* \"#utility.yul\":8436:8551   */\n      iszero\n      tag_211\n      jumpi\n        /* \"#utility.yul\":8531:8549   */\n      tag_212\n      tag_105\n      jump\t// in\n    tag_212:\n        /* \"#utility.yul\":8436:8551   */\n    tag_211:\n        /* \"#utility.yul\":8701:8702   */\n      dup3\n        /* \"#utility.yul\":8692:8699   */\n      dup3\n        /* \"#utility.yul\":8687:8703   */\n      sdiv\n        /* \"#utility.yul\":8684:8685   */\n      dup5\n        /* \"#utility.yul\":8681:8704   */\n      eq\n        /* \"#utility.yul\":8661:8662   */\n      dup4\n        /* \"#utility.yul\":8654:8663   */\n      iszero\n        /* \"#utility.yul\":8634:8718   */\n      or\n        /* \"#utility.yul\":8611:8751   */\n      tag_213\n      jumpi\n        /* \"#utility.yul\":8731:8749   */\n      tag_214\n      tag_105\n      jump\t// in\n    tag_214:\n        /* \"#utility.yul\":8611:8751   */\n    tag_213:\n        /* \"#utility.yul\":8249:8758   */\n      pop\n        /* \"#utility.yul\":8202:8758   */\n      swap3\n      swap2\n      pop\n      pop\n      jump\t// out\n\n    auxdata: 0xa2646970667358221220376dbea3d9dc8564cc607dda54bb8a4e1d0af6f96f011d3b6cec1dd19ed83c5764736f6c63430008180033\n}\n",
				"bytecode": {
					"linkReferences": {},
					"object": "60a060405273694aa1769357215de4fac081bf1f309adc3253065f806101000a81548173ffffffffffffffffffffffffffffffffffffffff021916908373ffffffffffffffffffffffffffffffffffffffff160217905550348015610062575f80fd5b503373ffffffffffffffffffffffffffffffffffffffff1660808173ffffffffffffffffffffffffffffffffffffffff1681525050608051610b9b6100b65f395f818161014601526101760152610b9b5ff3fe608060405260043610610054575f3560e01c80630acc625614610058578063213dbea2146100825780633ccfd60b146100ac5780633e47d6f3146100c2578063b60d4288146100fe578063dc0d3dff14610108575b5f80fd5b348015610063575f80fd5b5061006c610144565b60405161007991906106e9565b60405180910390f35b34801561008d575f80fd5b50610096610168565b6040516100a3919061071a565b60405180910390f35b3480156100b7575f80fd5b506100c0610174565b005b3480156100cd575f80fd5b506100e860048036038101906100e39190610761565b610399565b6040516100f5919061071a565b60405180910390f35b6101066103ae565b005b348015610113575f80fd5b5061012e600480360381019061012991906107b6565b6104ad565b60405161013b91906106e9565b60405180910390f35b7f000000000000000000000000000000000000000000000000000000000000000081565b674563918244f4000081565b7f000000000000000000000000000000000000000000000000000000000000000073ffffffffffffffffffffffffffffffffffffffff163373ffffffffffffffffffffffffffffffffffffffff16146101f9576040517fb3545ef300000000000000000000000000000000000000000000000000000000815260040160405180910390fd5b5f5b600180549050811015610297575f6001828154811061021d5761021c6107e1565b5b905f5260205f20015f9054906101000a900473ffffffffffffffffffffffffffffffffffffffff1690505f60025f8373ffffffffffffffffffffffffffffffffffffffff1673ffffffffffffffffffffffffffffffffffffffff1681526020019081526020015f20819055505080806001019150506101fb565b505f67ffffffffffffffff8111156102b2576102b161080e565b5b6040519080825280602002602001820160405280156102e05781602001602082028036833780820191505090505b50600190805190602001906102f6929190610608565b505f3373ffffffffffffffffffffffffffffffffffffffff164760405161031c90610868565b5f6040518083038185875af1925050503d805f8114610356576040519150601f19603f3d011682016040523d82523d5f602084013e61035b565b606091505b5050905080610396576040517f9c358fad00000000000000000000000000000000000000000000000000000000815260040160405180910390fd5b50565b6002602052805f5260405f205f915090505481565b674563918244f400006103c0346104e8565b10156103f8576040517f3ca175e100000000000000000000000000000000000000000000000000000000815260040160405180910390fd5b600133908060018154018082558091505060019003905f5260205f20015f9091909190916101000a81548173ffffffffffffffffffffffffffffffffffffffff021916908373ffffffffffffffffffffffffffffffffffffffff1602179055503460025f3373ffffffffffffffffffffffffffffffffffffffff1673ffffffffffffffffffffffffffffffffffffffff1681526020019081526020015f205f8282546104a491906108a9565b92505081905550565b600181815481106104bc575f80fd5b905f5260205f20015f915054906101000a900473ffffffffffffffffffffffffffffffffffffffff1681565b5f806104f2610520565b90505f670de0b6b3a7640000848361050a91906108dc565b610514919061094a565b90508092505050919050565b5f8073694aa1769357215de4fac081bf1f309adc32530690505f8173ffffffffffffffffffffffffffffffffffffffff1663feaf968c6040518163ffffffff1660e01b815260040160a060405180830381865afa158015610583573d5f803e3d5ffd5b505050506040513d601f19601f820116820180604052508101906105a79190610a00565b5050509150505f8112156105f0576040517f08c379a00000000000000000000000000000000000000000000000000000000081526004016105e790610ad1565b60405180910390fd5b6402540be400816106019190610aef565b9250505090565b828054828255905f5260205f2090810192821561067e579160200282015b8281111561067d578251825f6101000a81548173ffffffffffffffffffffffffffffffffffffffff021916908373ffffffffffffffffffffffffffffffffffffffff16021790555091602001919060010190610626565b5b50905061068b919061068f565b5090565b5b808211156106a6575f815f905550600101610690565b5090565b5f73ffffffffffffffffffffffffffffffffffffffff82169050919050565b5f6106d3826106aa565b9050919050565b6106e3816106c9565b82525050565b5f6020820190506106fc5f8301846106da565b92915050565b5f819050919050565b61071481610702565b82525050565b5f60208201905061072d5f83018461070b565b92915050565b5f80fd5b610740816106c9565b811461074a575f80fd5b50565b5f8135905061075b81610737565b92915050565b5f6020828403121561077657610775610733565b5b5f6107838482850161074d565b91505092915050565b61079581610702565b811461079f575f80fd5b50565b5f813590506107b08161078c565b92915050565b5f602082840312156107cb576107ca610733565b5b5f6107d8848285016107a2565b91505092915050565b7f4e487b71000000000000000000000000000000000000000000000000000000005f52603260045260245ffd5b7f4e487b71000000000000000000000000000000000000000000000000000000005f52604160045260245ffd5b5f81905092915050565b50565b5f6108535f8361083b565b915061085e82610845565b5f82019050919050565b5f61087282610848565b9150819050919050565b7f4e487b71000000000000000000000000000000000000000000000000000000005f52601160045260245ffd5b5f6108b382610702565b91506108be83610702565b92508282019050808211156108d6576108d561087c565b5b92915050565b5f6108e682610702565b91506108f183610702565b92508282026108ff81610702565b915082820484148315176109165761091561087c565b5b5092915050565b7f4e487b71000000000000000000000000000000000000000000000000000000005f52601260045260245ffd5b5f61095482610702565b915061095f83610702565b92508261096f5761096e61091d565b5b828204905092915050565b5f69ffffffffffffffffffff82169050919050565b6109988161097a565b81146109a2575f80fd5b50565b5f815190506109b38161098f565b92915050565b5f819050919050565b6109cb816109b9565b81146109d5575f80fd5b50565b5f815190506109e6816109c2565b92915050565b5f815190506109fa8161078c565b92915050565b5f805f805f60a08688031215610a1957610a18610733565b5b5f610a26888289016109a5565b9550506020610a37888289016109d8565b9450506040610a48888289016109ec565b9350506060610a59888289016109ec565b9250506080610a6a888289016109a5565b9150509295509295909350565b5f82825260208201905092915050565b7f4e65676174697665207072696365206e6f7420737570706f72746564000000005f82015250565b5f610abb601c83610a77565b9150610ac682610a87565b602082019050919050565b5f6020820190508181035f830152610ae881610aaf565b9050919050565b5f610af9826109b9565b9150610b04836109b9565b9250828202610b12816109b9565b91507f800000000000000000000000000000000000000000000000000000000000000084145f84121615610b4957610b4861087c565b5b8282058414831517610b5e57610b5d61087c565b5b509291505056fea2646970667358221220376dbea3d9dc8564cc607dda54bb8a4e1d0af6f96f011d3b6cec1dd19ed83c5764736f6c63430008180033",
					"opcodes": "PUSH1 0xA0 PUSH1 0x40 MSTORE PUSH20 0x694AA1769357215DE4FAC081BF1F309ADC325306 PUSH0 DUP1 PUSH2 0x100 EXP DUP2 SLOAD DUP2 PUSH20 0xFFFFFFFFFFFFFFFFFFFFFFFFFFFFFFFFFFFFFFFF MUL NOT AND SWAP1 DUP4 PUSH20 0xFFFFFFFFFFFFFFFFFFFFFFFFFFFFFFFFFFFFFFFF AND MUL OR SWAP1 SSTORE POP CALLVALUE DUP1 ISZERO PUSH2 0x62 JUMPI PUSH0 DUP1 REVERT JUMPDEST POP CALLER PUSH20 0xFFFFFFFFFFFFFFFFFFFFFFFFFFFFFFFFFFFFFFFF AND PUSH1 0x80 DUP2 PUSH20 0xFFFFFFFFFFFFFFFFFFFFFFFFFFFFFFFFFFFFFFFF AND DUP2 MSTORE POP POP PUSH1 0x80 MLOAD PUSH2 0xB9B PUSH2 0xB6 PUSH0 CODECOPY PUSH0 DUP2 DUP2 PUSH2 0x146 ADD MSTORE PUSH2 0x176 ADD MSTORE PUSH2 0xB9B PUSH0 RETURN INVALID PUSH1 0x80 PUSH1 0x40 MSTORE PUSH1 0x4 CALLDATASIZE LT PUSH2 0x54 JUMPI PUSH0 CALLDATALOAD PUSH1 0xE0 SHR DUP1 PUSH4 0xACC6256 EQ PUSH2 0x58 JUMPI DUP1 PUSH4 0x213DBEA2 EQ PUSH2 0x82 JUMPI DUP1 PUSH4 0x3CCFD60B EQ PUSH2 0xAC JUMPI DUP1 PUSH4 0x3E47D6F3 EQ PUSH2 0xC2 JUMPI DUP1 PUSH4 0xB60D4288 EQ PUSH2 0xFE JUMPI DUP1 PUSH4 0xDC0D3DFF EQ PUSH2 0x108 JUMPI JUMPDEST PUSH0 DUP1 REVERT JUMPDEST CALLVALUE DUP1 ISZERO PUSH2 0x63 JUMPI PUSH0 DUP1 REVERT JUMPDEST POP PUSH2 0x6C PUSH2 0x144 JUMP JUMPDEST PUSH1 0x40 MLOAD PUSH2 0x79 SWAP2 SWAP1 PUSH2 0x6E9 JUMP JUMPDEST PUSH1 0x40 MLOAD DUP1 SWAP2 SUB SWAP1 RETURN JUMPDEST CALLVALUE DUP1 ISZERO PUSH2 0x8D JUMPI PUSH0 DUP1 REVERT JUMPDEST POP PUSH2 0x96 PUSH2 0x168 JUMP JUMPDEST PUSH1 0x40 MLOAD PUSH2 0xA3 SWAP2 SWAP1 PUSH2 0x71A JUMP JUMPDEST PUSH1 0x40 MLOAD DUP1 SWAP2 SUB SWAP1 RETURN JUMPDEST CALLVALUE DUP1 ISZERO PUSH2 0xB7 JUMPI PUSH0 DUP1 REVERT JUMPDEST POP PUSH2 0xC0 PUSH2 0x174 JUMP JUMPDEST STOP JUMPDEST CALLVALUE DUP1 ISZERO PUSH2 0xCD JUMPI PUSH0 DUP1 REVERT JUMPDEST POP PUSH2 0xE8 PUSH1 0x4 DUP1 CALLDATASIZE SUB DUP2 ADD SWAP1 PUSH2 0xE3 SWAP2 SWAP1 PUSH2 0x761 JUMP JUMPDEST PUSH2 0x399 JUMP JUMPDEST PUSH1 0x40 MLOAD PUSH2 0xF5 SWAP2 SWAP1 PUSH2 0x71A JUMP JUMPDEST PUSH1 0x40 MLOAD DUP1 SWAP2 SUB SWAP1 RETURN JUMPDEST PUSH2 0x106 PUSH2 0x3AE JUMP JUMPDEST STOP JUMPDEST CALLVALUE DUP1 ISZERO PUSH2 0x113 JUMPI PUSH0 DUP1 REVERT JUMPDEST POP PUSH2 0x12E PUSH1 0x4 DUP1 CALLDATASIZE SUB DUP2 ADD SWAP1 PUSH2 0x129 SWAP2 SWAP1 PUSH2 0x7B6 JUMP JUMPDEST PUSH2 0x4AD JUMP JUMPDEST PUSH1 0x40 MLOAD PUSH2 0x13B SWAP2 SWAP1 PUSH2 0x6E9 JUMP JUMPDEST PUSH1 0x40 MLOAD DUP1 SWAP2 SUB SWAP1 RETURN JUMPDEST PUSH32 0x0 DUP2 JUMP JUMPDEST PUSH8 0x4563918244F40000 DUP2 JUMP JUMPDEST PUSH32 0x0 PUSH20 0xFFFFFFFFFFFFFFFFFFFFFFFFFFFFFFFFFFFFFFFF AND CALLER PUSH20 0xFFFFFFFFFFFFFFFFFFFFFFFFFFFFFFFFFFFFFFFF AND EQ PUSH2 0x1F9 JUMPI PUSH1 0x40 MLOAD PUSH32 0xB3545EF300000000000000000000000000000000000000000000000000000000 DUP2 MSTORE PUSH1 0x4 ADD PUSH1 0x40 MLOAD DUP1 SWAP2 SUB SWAP1 REVERT JUMPDEST PUSH0 JUMPDEST PUSH1 0x1 DUP1 SLOAD SWAP1 POP DUP2 LT ISZERO PUSH2 0x297 JUMPI PUSH0 PUSH1 0x1 DUP3 DUP2 SLOAD DUP2 LT PUSH2 0x21D JUMPI PUSH2 0x21C PUSH2 0x7E1 JUMP JUMPDEST JUMPDEST SWAP1 PUSH0 MSTORE PUSH1 0x20 PUSH0 KECCAK256 ADD PUSH0 SWAP1 SLOAD SWAP1 PUSH2 0x100 EXP SWAP1 DIV PUSH20 0xFFFFFFFFFFFFFFFFFFFFFFFFFFFFFFFFFFFFFFFF AND SWAP1 POP PUSH0 PUSH1 0x2 PUSH0 DUP4 PUSH20 0xFFFFFFFFFFFFFFFFFFFFFFFFFFFFFFFFFFFFFFFF AND PUSH20 0xFFFFFFFFFFFFFFFFFFFFFFFFFFFFFFFFFFFFFFFF AND DUP2 MSTORE PUSH1 0x20 ADD SWAP1 DUP2 MSTORE PUSH1 0x20 ADD PUSH0 KECCAK256 DUP2 SWAP1 SSTORE POP POP DUP1 DUP1 PUSH1 0x1 ADD SWAP2 POP POP PUSH2 0x1FB JUMP JUMPDEST POP PUSH0 PUSH8 0xFFFFFFFFFFFFFFFF DUP2 GT ISZERO PUSH2 0x2B2 JUMPI PUSH2 0x2B1 PUSH2 0x80E JUMP JUMPDEST JUMPDEST PUSH1 0x40 MLOAD SWAP1 DUP1 DUP3 MSTORE DUP1 PUSH1 0x20 MUL PUSH1 0x20 ADD DUP3 ADD PUSH1 0x40 MSTORE DUP1 ISZERO PUSH2 0x2E0 JUMPI DUP2 PUSH1 0x20 ADD PUSH1 0x20 DUP3 MUL DUP1 CALLDATASIZE DUP4 CALLDATACOPY DUP1 DUP3 ADD SWAP2 POP POP SWAP1 POP JUMPDEST POP PUSH1 0x1 SWAP1 DUP1 MLOAD SWAP1 PUSH1 0x20 ADD SWAP1 PUSH2 0x2F6 SWAP3 SWAP2 SWAP1 PUSH2 0x608 JUMP JUMPDEST POP PUSH0 CALLER PUSH20 0xFFFFFFFFFFFFFFFFFFFFFFFFFFFFFFFFFFFFFFFF AND SELFBALANCE PUSH1 0x40 MLOAD PUSH2 0x31C SWAP1 PUSH2 0x868 JUMP JUMPDEST PUSH0 PUSH1 0x40 MLOAD DUP1 DUP4 SUB DUP2 DUP6 DUP8 GAS CALL SWAP3 POP POP POP RETURNDATASIZE DUP1 PUSH0 DUP2 EQ PUSH2 0x356 JUMPI PUSH1 0x40 MLOAD SWAP2 POP PUSH1 0x1F NOT PUSH1 0x3F RETURNDATASIZE ADD AND DUP3 ADD PUSH1 0x40 MSTORE RETURNDATASIZE DUP3 MSTORE RETURNDATASIZE PUSH0 PUSH1 0x20 DUP5 ADD RETURNDATACOPY PUSH2 0x35B JUMP JUMPDEST PUSH1 0x60 SWAP2 POP JUMPDEST POP POP SWAP1 POP DUP1 PUSH2 0x396 JUMPI PUSH1 0x40 MLOAD PUSH32 0x9C358FAD00000000000000000000000000000000000000000000000000000000 DUP2 MSTORE PUSH1 0x4 ADD PUSH1 0x40 MLOAD DUP1 SWAP2 SUB SWAP1 REVERT JUMPDEST POP JUMP JUMPDEST PUSH1 0x2 PUSH1 0x20 MSTORE DUP1 PUSH0 MSTORE PUSH1 0x40 PUSH0 KECCAK256 PUSH0 SWAP2 POP SWAP1 POP SLOAD DUP2 JUMP JUMPDEST PUSH8 0x4563918244F40000 PUSH2 0x3C0 CALLVALUE PUSH2 0x4E8 JUMP JUMPDEST LT ISZERO PUSH2 0x3F8 JUMPI PUSH1 0x40 MLOAD PUSH32 0x3CA175E100000000000000000000000000000000000000000000000000000000 DUP2 MSTORE PUSH1 0x4 ADD PUSH1 0x40 MLOAD DUP1 SWAP2 SUB SWAP1 REVERT JUMPDEST PUSH1 0x1 CALLER SWAP1 DUP1 PUSH1 0x1 DUP2 SLOAD ADD DUP1 DUP3 SSTORE DUP1 SWAP2 POP POP PUSH1 0x1 SWAP1 SUB SWAP1 PUSH0 MSTORE PUSH1 0x20 PUSH0 KECCAK256 ADD PUSH0 SWAP1 SWAP2 SWAP1 SWAP2 SWAP1 SWAP2 PUSH2 0x100 EXP DUP2 SLOAD DUP2 PUSH20 0xFFFFFFFFFFFFFFFFFFFFFFFFFFFFFFFFFFFFFFFF MUL NOT AND SWAP1 DUP4 PUSH20 0xFFFFFFFFFFFFFFFFFFFFFFFFFFFFFFFFFFFFFFFF AND MUL OR SWAP1 SSTORE POP CALLVALUE PUSH1 0x2 PUSH0 CALLER PUSH20 0xFFFFFFFFFFFFFFFFFFFFFFFFFFFFFFFFFFFFFFFF AND PUSH20 0xFFFFFFFFFFFFFFFFFFFFFFFFFFFFFFFFFFFFFFFF AND DUP2 MSTORE PUSH1 0x20 ADD SWAP1 DUP2 MSTORE PUSH1 0x20 ADD PUSH0 KECCAK256 PUSH0 DUP3 DUP3 SLOAD PUSH2 0x4A4 SWAP2 SWAP1 PUSH2 0x8A9 JUMP JUMPDEST SWAP3 POP POP DUP2 SWAP1 SSTORE POP JUMP JUMPDEST PUSH1 0x1 DUP2 DUP2 SLOAD DUP2 LT PUSH2 0x4BC JUMPI PUSH0 DUP1 REVERT JUMPDEST SWAP1 PUSH0 MSTORE PUSH1 0x20 PUSH0 KECCAK256 ADD PUSH0 SWAP2 POP SLOAD SWAP1 PUSH2 0x100 EXP SWAP1 DIV PUSH20 0xFFFFFFFFFFFFFFFFFFFFFFFFFFFFFFFFFFFFFFFF AND DUP2 JUMP JUMPDEST PUSH0 DUP1 PUSH2 0x4F2 PUSH2 0x520 JUMP JUMPDEST SWAP1 POP PUSH0 PUSH8 0xDE0B6B3A7640000 DUP5 DUP4 PUSH2 0x50A SWAP2 SWAP1 PUSH2 0x8DC JUMP JUMPDEST PUSH2 0x514 SWAP2 SWAP1 PUSH2 0x94A JUMP JUMPDEST SWAP1 POP DUP1 SWAP3 POP POP POP SWAP2 SWAP1 POP JUMP JUMPDEST PUSH0 DUP1 PUSH20 0x694AA1769357215DE4FAC081BF1F309ADC325306 SWAP1 POP PUSH0 DUP2 PUSH20 0xFFFFFFFFFFFFFFFFFFFFFFFFFFFFFFFFFFFFFFFF AND PUSH4 0xFEAF968C PUSH1 0x40 MLOAD DUP2 PUSH4 0xFFFFFFFF AND PUSH1 0xE0 SHL DUP2 MSTORE PUSH1 0x4 ADD PUSH1 0xA0 PUSH1 0x40 MLOAD DUP1 DUP4 SUB DUP2 DUP7 GAS STATICCALL ISZERO DUP1 ISZERO PUSH2 0x583 JUMPI RETURNDATASIZE PUSH0 DUP1 RETURNDATACOPY RETURNDATASIZE PUSH0 REVERT JUMPDEST POP POP POP POP PUSH1 0x40 MLOAD RETURNDATASIZE PUSH1 0x1F NOT PUSH1 0x1F DUP3 ADD AND DUP3 ADD DUP1 PUSH1 0x40 MSTORE POP DUP2 ADD SWAP1 PUSH2 0x5A7 SWAP2 SWAP1 PUSH2 0xA00 JUMP JUMPDEST POP POP POP SWAP2 POP POP PUSH0 DUP2 SLT ISZERO PUSH2 0x5F0 JUMPI PUSH1 0x40 MLOAD PUSH32 0x8C379A000000000000000000000000000000000000000000000000000000000 DUP2 MSTORE PUSH1 0x4 ADD PUSH2 0x5E7 SWAP1 PUSH2 0xAD1 JUMP JUMPDEST PUSH1 0x40 MLOAD DUP1 SWAP2 SUB SWAP1 REVERT JUMPDEST PUSH5 0x2540BE400 DUP2 PUSH2 0x601 SWAP2 SWAP1 PUSH2 0xAEF JUMP JUMPDEST SWAP3 POP POP POP SWAP1 JUMP JUMPDEST DUP3 DUP1 SLOAD DUP3 DUP3 SSTORE SWAP1 PUSH0 MSTORE PUSH1 0x20 PUSH0 KECCAK256 SWAP1 DUP2 ADD SWAP3 DUP3 ISZERO PUSH2 0x67E JUMPI SWAP2 PUSH1 0x20 MUL DUP3 ADD JUMPDEST DUP3 DUP2 GT ISZERO PUSH2 0x67D JUMPI DUP3 MLOAD DUP3 PUSH0 PUSH2 0x100 EXP DUP2 SLOAD DUP2 PUSH20 0xFFFFFFFFFFFFFFFFFFFFFFFFFFFFFFFFFFFFFFFF MUL NOT AND SWAP1 DUP4 PUSH20 0xFFFFFFFFFFFFFFFFFFFFFFFFFFFFFFFFFFFFFFFF AND MUL OR SWAP1 SSTORE POP SWAP2 PUSH1 0x20 ADD SWAP2 SWAP1 PUSH1 0x1 ADD SWAP1 PUSH2 0x626 JUMP JUMPDEST JUMPDEST POP SWAP1 POP PUSH2 0x68B SWAP2 SWAP1 PUSH2 0x68F JUMP JUMPDEST POP SWAP1 JUMP JUMPDEST JUMPDEST DUP1 DUP3 GT ISZERO PUSH2 0x6A6 JUMPI PUSH0 DUP2 PUSH0 SWAP1 SSTORE POP PUSH1 0x1 ADD PUSH2 0x690 JUMP JUMPDEST POP SWAP1 JUMP JUMPDEST PUSH0 PUSH20 0xFFFFFFFFFFFFFFFFFFFFFFFFFFFFFFFFFFFFFFFF DUP3 AND SWAP1 POP SWAP2 SWAP1 POP JUMP JUMPDEST PUSH0 PUSH2 0x6D3 DUP3 PUSH2 0x6AA JUMP JUMPDEST SWAP1 POP SWAP2 SWAP1 POP JUMP JUMPDEST PUSH2 0x6E3 DUP2 PUSH2 0x6C9 JUMP JUMPDEST DUP3 MSTORE POP POP JUMP JUMPDEST PUSH0 PUSH1 0x20 DUP3 ADD SWAP1 POP PUSH2 0x6FC PUSH0 DUP4 ADD DUP5 PUSH2 0x6DA JUMP JUMPDEST SWAP3 SWAP2 POP POP JUMP JUMPDEST PUSH0 DUP2 SWAP1 POP SWAP2 SWAP1 POP JUMP JUMPDEST PUSH2 0x714 DUP2 PUSH2 0x702 JUMP JUMPDEST DUP3 MSTORE POP POP JUMP JUMPDEST PUSH0 PUSH1 0x20 DUP3 ADD SWAP1 POP PUSH2 0x72D PUSH0 DUP4 ADD DUP5 PUSH2 0x70B JUMP JUMPDEST SWAP3 SWAP2 POP POP JUMP JUMPDEST PUSH0 DUP1 REVERT JUMPDEST PUSH2 0x740 DUP2 PUSH2 0x6C9 JUMP JUMPDEST DUP2 EQ PUSH2 0x74A JUMPI PUSH0 DUP1 REVERT JUMPDEST POP JUMP JUMPDEST PUSH0 DUP2 CALLDATALOAD SWAP1 POP PUSH2 0x75B DUP2 PUSH2 0x737 JUMP JUMPDEST SWAP3 SWAP2 POP POP JUMP JUMPDEST PUSH0 PUSH1 0x20 DUP3 DUP5 SUB SLT ISZERO PUSH2 0x776 JUMPI PUSH2 0x775 PUSH2 0x733 JUMP JUMPDEST JUMPDEST PUSH0 PUSH2 0x783 DUP5 DUP3 DUP6 ADD PUSH2 0x74D JUMP JUMPDEST SWAP2 POP POP SWAP3 SWAP2 POP POP JUMP JUMPDEST PUSH2 0x795 DUP2 PUSH2 0x702 JUMP JUMPDEST DUP2 EQ PUSH2 0x79F JUMPI PUSH0 DUP1 REVERT JUMPDEST POP JUMP JUMPDEST PUSH0 DUP2 CALLDATALOAD SWAP1 POP PUSH2 0x7B0 DUP2 PUSH2 0x78C JUMP JUMPDEST SWAP3 SWAP2 POP POP JUMP JUMPDEST PUSH0 PUSH1 0x20 DUP3 DUP5 SUB SLT ISZERO PUSH2 0x7CB JUMPI PUSH2 0x7CA PUSH2 0x733 JUMP JUMPDEST JUMPDEST PUSH0 PUSH2 0x7D8 DUP5 DUP3 DUP6 ADD PUSH2 0x7A2 JUMP JUMPDEST SWAP2 POP POP SWAP3 SWAP2 POP POP JUMP JUMPDEST PUSH32 0x4E487B7100000000000000000000000000000000000000000000000000000000 PUSH0 MSTORE PUSH1 0x32 PUSH1 0x4 MSTORE PUSH1 0x24 PUSH0 REVERT JUMPDEST PUSH32 0x4E487B7100000000000000000000000000000000000000000000000000000000 PUSH0 MSTORE PUSH1 0x41 PUSH1 0x4 MSTORE PUSH1 0x24 PUSH0 REVERT JUMPDEST PUSH0 DUP2 SWAP1 POP SWAP3 SWAP2 POP POP JUMP JUMPDEST POP JUMP JUMPDEST PUSH0 PUSH2 0x853 PUSH0 DUP4 PUSH2 0x83B JUMP JUMPDEST SWAP2 POP PUSH2 0x85E DUP3 PUSH2 0x845 JUMP JUMPDEST PUSH0 DUP3 ADD SWAP1 POP SWAP2 SWAP1 POP JUMP JUMPDEST PUSH0 PUSH2 0x872 DUP3 PUSH2 0x848 JUMP JUMPDEST SWAP2 POP DUP2 SWAP1 POP SWAP2 SWAP1 POP JUMP JUMPDEST PUSH32 0x4E487B7100000000000000000000000000000000000000000000000000000000 PUSH0 MSTORE PUSH1 0x11 PUSH1 0x4 MSTORE PUSH1 0x24 PUSH0 REVERT JUMPDEST PUSH0 PUSH2 0x8B3 DUP3 PUSH2 0x702 JUMP JUMPDEST SWAP2 POP PUSH2 0x8BE DUP4 PUSH2 0x702 JUMP JUMPDEST SWAP3 POP DUP3 DUP3 ADD SWAP1 POP DUP1 DUP3 GT ISZERO PUSH2 0x8D6 JUMPI PUSH2 0x8D5 PUSH2 0x87C JUMP JUMPDEST JUMPDEST SWAP3 SWAP2 POP POP JUMP JUMPDEST PUSH0 PUSH2 0x8E6 DUP3 PUSH2 0x702 JUMP JUMPDEST SWAP2 POP PUSH2 0x8F1 DUP4 PUSH2 0x702 JUMP JUMPDEST SWAP3 POP DUP3 DUP3 MUL PUSH2 0x8FF DUP2 PUSH2 0x702 JUMP JUMPDEST SWAP2 POP DUP3 DUP3 DIV DUP5 EQ DUP4 ISZERO OR PUSH2 0x916 JUMPI PUSH2 0x915 PUSH2 0x87C JUMP JUMPDEST JUMPDEST POP SWAP3 SWAP2 POP POP JUMP JUMPDEST PUSH32 0x4E487B7100000000000000000000000000000000000000000000000000000000 PUSH0 MSTORE PUSH1 0x12 PUSH1 0x4 MSTORE PUSH1 0x24 PUSH0 REVERT JUMPDEST PUSH0 PUSH2 0x954 DUP3 PUSH2 0x702 JUMP JUMPDEST SWAP2 POP PUSH2 0x95F DUP4 PUSH2 0x702 JUMP JUMPDEST SWAP3 POP DUP3 PUSH2 0x96F JUMPI PUSH2 0x96E PUSH2 0x91D JUMP JUMPDEST JUMPDEST DUP3 DUP3 DIV SWAP1 POP SWAP3 SWAP2 POP POP JUMP JUMPDEST PUSH0 PUSH10 0xFFFFFFFFFFFFFFFFFFFF DUP3 AND SWAP1 POP SWAP2 SWAP1 POP JUMP JUMPDEST PUSH2 0x998 DUP2 PUSH2 0x97A JUMP JUMPDEST DUP2 EQ PUSH2 0x9A2 JUMPI PUSH0 DUP1 REVERT JUMPDEST POP JUMP JUMPDEST PUSH0 DUP2 MLOAD SWAP1 POP PUSH2 0x9B3 DUP2 PUSH2 0x98F JUMP JUMPDEST SWAP3 SWAP2 POP POP JUMP JUMPDEST PUSH0 DUP2 SWAP1 POP SWAP2 SWAP1 POP JUMP JUMPDEST PUSH2 0x9CB DUP2 PUSH2 0x9B9 JUMP JUMPDEST DUP2 EQ PUSH2 0x9D5 JUMPI PUSH0 DUP1 REVERT JUMPDEST POP JUMP JUMPDEST PUSH0 DUP2 MLOAD SWAP1 POP PUSH2 0x9E6 DUP2 PUSH2 0x9C2 JUMP JUMPDEST SWAP3 SWAP2 POP POP JUMP JUMPDEST PUSH0 DUP2 MLOAD SWAP1 POP PUSH2 0x9FA DUP2 PUSH2 0x78C JUMP JUMPDEST SWAP3 SWAP2 POP POP JUMP JUMPDEST PUSH0 DUP1 PUSH0 DUP1 PUSH0 PUSH1 0xA0 DUP7 DUP9 SUB SLT ISZERO PUSH2 0xA19 JUMPI PUSH2 0xA18 PUSH2 0x733 JUMP JUMPDEST JUMPDEST PUSH0 PUSH2 0xA26 DUP9 DUP3 DUP10 ADD PUSH2 0x9A5 JUMP JUMPDEST SWAP6 POP POP PUSH1 0x20 PUSH2 0xA37 DUP9 DUP3 DUP10 ADD PUSH2 0x9D8 JUMP JUMPDEST SWAP5 POP POP PUSH1 0x40 PUSH2 0xA48 DUP9 DUP3 DUP10 ADD PUSH2 0x9EC JUMP JUMPDEST SWAP4 POP POP PUSH1 0x60 PUSH2 0xA59 DUP9 DUP3 DUP10 ADD PUSH2 0x9EC JUMP JUMPDEST SWAP3 POP POP PUSH1 0x80 PUSH2 0xA6A DUP9 DUP3 DUP10 ADD PUSH2 0x9A5 JUMP JUMPDEST SWAP2 POP POP SWAP3 SWAP6 POP SWAP3 SWAP6 SWAP1 SWAP4 POP JUMP JUMPDEST PUSH0 DUP3 DUP3 MSTORE PUSH1 0x20 DUP3 ADD SWAP1 POP SWAP3 SWAP2 POP POP JUMP JUMPDEST PUSH32 0x4E65676174697665207072696365206E6F7420737570706F7274656400000000 PUSH0 DUP3 ADD MSTORE POP JUMP JUMPDEST PUSH0 PUSH2 0xABB PUSH1 0x1C DUP4 PUSH2 0xA77 JUMP JUMPDEST SWAP2 POP PUSH2 0xAC6 DUP3 PUSH2 0xA87 JUMP JUMPDEST PUSH1 0x20 DUP3 ADD SWAP1 POP SWAP2 SWAP1 POP JUMP JUMPDEST PUSH0 PUSH1 0x20 DUP3 ADD SWAP1 POP DUP2 DUP2 SUB PUSH0 DUP4 ADD MSTORE PUSH2 0xAE8 DUP2 PUSH2 0xAAF JUMP JUMPDEST SWAP1 POP SWAP2 SWAP1 POP JUMP JUMPDEST PUSH0 PUSH2 0xAF9 DUP3 PUSH2 0x9B9 JUMP JUMPDEST SWAP2 POP PUSH2 0xB04 DUP4 PUSH2 0x9B9 JUMP JUMPDEST SWAP3 POP DUP3 DUP3 MUL PUSH2 0xB12 DUP2 PUSH2 0x9B9 JUMP JUMPDEST SWAP2 POP PUSH32 0x8000000000000000000000000000000000000000000000000000000000000000 DUP5 EQ PUSH0 DUP5 SLT AND ISZERO PUSH2 0xB49 JUMPI PUSH2 0xB48 PUSH2 0x87C JUMP JUMPDEST JUMPDEST DUP3 DUP3 SDIV DUP5 EQ DUP4 ISZERO OR PUSH2 0xB5E JUMPI PUSH2 0xB5D PUSH2 0x87C JUMP JUMPDEST JUMPDEST POP SWAP3 SWAP2 POP POP JUMP INVALID LOG2 PUSH5 0x6970667358 0x22 SLT KECCAK256 CALLDATACOPY PUSH14 0xBEA3D9DC8564CC607DDA54BB8A4E SAR EXP 0xF6 0xF9 PUSH16 0x11D3B6CEC1DD19ED83C5764736F6C63 NUMBER STOP ADDMOD XOR STOP CALLER "
				},
				"gasEstimates": {
					"creation": {
						"codeDepositCost": "594200",
						"executionCost": "infinite",
						"totalCost": "infinite"
					},
					"external": {
						"MIN_USD()": "325",
						"addressToAmountFunded(address)": "2846",
						"fund()": "infinite",
						"funders(uint256)": "5032",
						"i_fundOwner()": "infinite",
						"withdraw()": "infinite"
					}
				},
				"methodIdentifiers": {
					"MIN_USD()": "213dbea2",
					"addressToAmountFunded(address)": "3e47d6f3",
					"fund()": "b60d4288",
					"funders(uint256)": "dc0d3dff",
					"i_fundOwner()": "0acc6256",
					"withdraw()": "3ccfd60b"
				}
			},
			"storageLayout": {
				"storage": [
					{
						"astId": 64,
						"contract": "solidity-fundamentals/3-fund-me/13-custom-error.sol:FundMe",
						"label": "chainlinkAggregatorV3InterfaceAddressEthUsd",
						"offset": 0,
						"slot": "0",
						"type": "t_address"
					},
					{
						"astId": 67,
						"contract": "solidity-fundamentals/3-fund-me/13-custom-error.sol:FundMe",
						"label": "funders",
						"offset": 0,
						"slot": "1",
						"type": "t_array(t_address)dyn_storage"
					},
					{
						"astId": 71,
						"contract": "solidity-fundamentals/3-fund-me/13-custom-error.sol:FundMe",
						"label": "addressToAmountFunded",
						"offset": 0,
						"slot": "2",
						"type": "t_mapping(t_address,t_uint256)"
					}
				],
				"types": {
					"t_address": {
						"encoding": "inplace",
						"label": "address",
						"numberOfBytes": "20"
					},
					"t_array(t_address)dyn_storage": {
						"base": "t_address",
						"encoding": "dynamic_array",
						"label": "address[]",
						"numberOfBytes": "32"
					},
					"t_mapping(t_address,t_uint256)": {
						"encoding": "mapping",
						"key": "t_address",
						"label": "mapping(address => uint256)",
						"numberOfBytes": "32",
						"value": "t_uint256"
					},
					"t_uint256": {
						"encoding": "inplace",
						"label": "uint256",
						"numberOfBytes": "32"
					}
				}
			},
			"userdoc": {
				"kind": "user",
				"methods": {},
				"version": 1
			}
		}
	}
}