{
	"solidity-fundamentals/3-fund-me/9-withdraw-transfer-send-call.sol": {
		"FundMe": {
			"abi": [
				{
					"inputs": [
						{
							"internalType": "address",
							"name": "",
							"type": "address"
						}
					],
					"name": "addressToAmountFunded",
					"outputs": [
						{
							"internalType": "uint256",
							"name": "",
							"type": "uint256"
						}
					],
					"stateMutability": "view",
					"type": "function"
				},
				{
					"inputs": [],
					"name": "fund",
					"outputs": [],
					"stateMutability": "payable",
					"type": "function"
				},
				{
					"inputs": [
						{
							"internalType": "uint256",
							"name": "",
							"type": "uint256"
						}
					],
					"name": "funders",
					"outputs": [
						{
							"internalType": "address",
							"name": "",
							"type": "address"
						}
					],
					"stateMutability": "view",
					"type": "function"
				},
				{
					"inputs": [],
					"name": "minUsd",
					"outputs": [
						{
							"internalType": "uint256",
							"name": "",
							"type": "uint256"
						}
					],
					"stateMutability": "view",
					"type": "function"
				},
				{
					"inputs": [],
					"name": "withdraw",
					"outputs": [],
					"stateMutability": "nonpayable",
					"type": "function"
				}
			],
			"devdoc": {
				"kind": "dev",
				"methods": {},
				"version": 1
			},
			"evm": {
				"assembly": "    /* \"solidity-fundamentals/3-fund-me/9-withdraw-transfer-send-call.sol\":121:4083  contract FundMe {... */\n  mstore(0x40, 0x80)\n    /* \"solidity-fundamentals/3-fund-me/9-withdraw-transfer-send-call.sol\":206:210  5e18 */\n  0x4563918244f40000\n    /* \"solidity-fundamentals/3-fund-me/9-withdraw-transfer-send-call.sol\":182:210  uint256 public minUsd = 5e18 */\n  0x00\n  sstore\n    /* \"solidity-fundamentals/3-fund-me/9-withdraw-transfer-send-call.sol\":278:320  0x694AA1769357215DE4FAC081bf1f309aDC325306 */\n  0x694aa1769357215de4fac081bf1f309adc325306\n    /* \"solidity-fundamentals/3-fund-me/9-withdraw-transfer-send-call.sol\":216:320  address chainlinkAggregatorV3InterfaceAddressEthUsd =... */\n  0x01\n  exp(0x0100, 0x00)\n  dup2\n  sload\n  dup2\n  0xffffffffffffffffffffffffffffffffffffffff\n  mul\n  not\n  and\n  swap1\n  dup4\n  0xffffffffffffffffffffffffffffffffffffffff\n  and\n  mul\n  or\n  swap1\n  sstore\n  pop\n    /* \"solidity-fundamentals/3-fund-me/9-withdraw-transfer-send-call.sol\":121:4083  contract FundMe {... */\n  callvalue\n  dup1\n  iszero\n  tag_1\n  jumpi\n  0x00\n  dup1\n  revert\ntag_1:\n  pop\n  dataSize(sub_0)\n  dup1\n  dataOffset(sub_0)\n  0x00\n  codecopy\n  0x00\n  return\nstop\n\nsub_0: assembly {\n        /* \"solidity-fundamentals/3-fund-me/9-withdraw-transfer-send-call.sol\":121:4083  contract FundMe {... */\n      mstore(0x40, 0x80)\n      jumpi(tag_1, lt(calldatasize, 0x04))\n      shr(0xe0, calldataload(0x00))\n      dup1\n      0x3ccfd60b\n      eq\n      tag_2\n      jumpi\n      dup1\n      0x3e47d6f3\n      eq\n      tag_3\n      jumpi\n      dup1\n      0x51b80e41\n      eq\n      tag_4\n      jumpi\n      dup1\n      0xb60d4288\n      eq\n      tag_5\n      jumpi\n      dup1\n      0xdc0d3dff\n      eq\n      tag_6\n      jumpi\n    tag_1:\n      0x00\n      dup1\n      revert\n        /* \"solidity-fundamentals/3-fund-me/9-withdraw-transfer-send-call.sol\":672:4081  function withdraw() public {... */\n    tag_2:\n      callvalue\n      dup1\n      iszero\n      tag_7\n      jumpi\n      0x00\n      dup1\n      revert\n    tag_7:\n      pop\n      tag_8\n      tag_9\n      jump\t// in\n    tag_8:\n      stop\n        /* \"solidity-fundamentals/3-fund-me/9-withdraw-transfer-send-call.sol\":356:412  mapping(address => uint256) public addressToAmountFunded */\n    tag_3:\n      callvalue\n      dup1\n      iszero\n      tag_10\n      jumpi\n      0x00\n      dup1\n      revert\n    tag_10:\n      pop\n      tag_11\n      0x04\n      dup1\n      calldatasize\n      sub\n      dup2\n      add\n      swap1\n      tag_12\n      swap2\n      swap1\n      tag_13\n      jump\t// in\n    tag_12:\n      tag_14\n      jump\t// in\n    tag_11:\n      mload(0x40)\n      tag_15\n      swap2\n      swap1\n      tag_16\n      jump\t// in\n    tag_15:\n      mload(0x40)\n      dup1\n      swap2\n      sub\n      swap1\n      return\n        /* \"solidity-fundamentals/3-fund-me/9-withdraw-transfer-send-call.sol\":182:210  uint256 public minUsd = 5e18 */\n    tag_4:\n      callvalue\n      dup1\n      iszero\n      tag_17\n      jumpi\n      0x00\n      dup1\n      revert\n    tag_17:\n      pop\n      tag_18\n      tag_19\n      jump\t// in\n    tag_18:\n      mload(0x40)\n      tag_20\n      swap2\n      swap1\n      tag_16\n      jump\t// in\n    tag_20:\n      mload(0x40)\n      dup1\n      swap2\n      sub\n      swap1\n      return\n        /* \"solidity-fundamentals/3-fund-me/9-withdraw-transfer-send-call.sol\":419:666  function fund() public payable {... */\n    tag_5:\n      tag_21\n      tag_22\n      jump\t// in\n    tag_21:\n      stop\n        /* \"solidity-fundamentals/3-fund-me/9-withdraw-transfer-send-call.sol\":326:350  address[] public funders */\n    tag_6:\n      callvalue\n      dup1\n      iszero\n      tag_23\n      jumpi\n      0x00\n      dup1\n      revert\n    tag_23:\n      pop\n      tag_24\n      0x04\n      dup1\n      calldatasize\n      sub\n      dup2\n      add\n      swap1\n      tag_25\n      swap2\n      swap1\n      tag_26\n      jump\t// in\n    tag_25:\n      tag_27\n      jump\t// in\n    tag_24:\n      mload(0x40)\n      tag_28\n      swap2\n      swap1\n      tag_29\n      jump\t// in\n    tag_28:\n      mload(0x40)\n      dup1\n      swap2\n      sub\n      swap1\n      return\n        /* \"solidity-fundamentals/3-fund-me/9-withdraw-transfer-send-call.sol\":672:4081  function withdraw() public {... */\n    tag_9:\n        /* \"solidity-fundamentals/3-fund-me/9-withdraw-transfer-send-call.sol\":714:731  uint256 funderIdx */\n      0x00\n        /* \"solidity-fundamentals/3-fund-me/9-withdraw-transfer-send-call.sol\":709:885  for (uint256 funderIdx = 0; funderIdx < funders.length; funderIdx++) {... */\n    tag_31:\n        /* \"solidity-fundamentals/3-fund-me/9-withdraw-transfer-send-call.sol\":749:756  funders */\n      0x02\n        /* \"solidity-fundamentals/3-fund-me/9-withdraw-transfer-send-call.sol\":749:763  funders.length */\n      dup1\n      sload\n      swap1\n      pop\n        /* \"solidity-fundamentals/3-fund-me/9-withdraw-transfer-send-call.sol\":737:746  funderIdx */\n      dup2\n        /* \"solidity-fundamentals/3-fund-me/9-withdraw-transfer-send-call.sol\":737:763  funderIdx < funders.length */\n      lt\n        /* \"solidity-fundamentals/3-fund-me/9-withdraw-transfer-send-call.sol\":709:885  for (uint256 funderIdx = 0; funderIdx < funders.length; funderIdx++) {... */\n      iszero\n      tag_32\n      jumpi\n        /* \"solidity-fundamentals/3-fund-me/9-withdraw-transfer-send-call.sol\":792:806  address funder */\n      0x00\n        /* \"solidity-fundamentals/3-fund-me/9-withdraw-transfer-send-call.sol\":809:816  funders */\n      0x02\n        /* \"solidity-fundamentals/3-fund-me/9-withdraw-transfer-send-call.sol\":817:826  funderIdx */\n      dup3\n        /* \"solidity-fundamentals/3-fund-me/9-withdraw-transfer-send-call.sol\":809:827  funders[funderIdx] */\n      dup2\n      sload\n      dup2\n      lt\n      tag_34\n      jumpi\n      tag_35\n      tag_36\n      jump\t// in\n    tag_35:\n    tag_34:\n      swap1\n      0x00\n      mstore\n      keccak256(0x00, 0x20)\n      add\n      0x00\n      swap1\n      sload\n      swap1\n      0x0100\n      exp\n      swap1\n      div\n      0xffffffffffffffffffffffffffffffffffffffff\n      and\n        /* \"solidity-fundamentals/3-fund-me/9-withdraw-transfer-send-call.sol\":792:827  address funder = funders[funderIdx] */\n      swap1\n      pop\n        /* \"solidity-fundamentals/3-fund-me/9-withdraw-transfer-send-call.sol\":873:874  0 */\n      0x00\n        /* \"solidity-fundamentals/3-fund-me/9-withdraw-transfer-send-call.sol\":841:862  addressToAmountFunded */\n      0x03\n        /* \"solidity-fundamentals/3-fund-me/9-withdraw-transfer-send-call.sol\":841:870  addressToAmountFunded[funder] */\n      0x00\n        /* \"solidity-fundamentals/3-fund-me/9-withdraw-transfer-send-call.sol\":863:869  funder */\n      dup4\n        /* \"solidity-fundamentals/3-fund-me/9-withdraw-transfer-send-call.sol\":841:870  addressToAmountFunded[funder] */\n      0xffffffffffffffffffffffffffffffffffffffff\n      and\n      0xffffffffffffffffffffffffffffffffffffffff\n      and\n      dup2\n      mstore\n      0x20\n      add\n      swap1\n      dup2\n      mstore\n      0x20\n      add\n      0x00\n      keccak256\n        /* \"solidity-fundamentals/3-fund-me/9-withdraw-transfer-send-call.sol\":841:874  addressToAmountFunded[funder] = 0 */\n      dup2\n      swap1\n      sstore\n      pop\n        /* \"solidity-fundamentals/3-fund-me/9-withdraw-transfer-send-call.sol\":778:885  {... */\n      pop\n        /* \"solidity-fundamentals/3-fund-me/9-withdraw-transfer-send-call.sol\":765:776  funderIdx++ */\n      dup1\n      dup1\n      0x01\n      add\n      swap2\n      pop\n      pop\n        /* \"solidity-fundamentals/3-fund-me/9-withdraw-transfer-send-call.sol\":709:885  for (uint256 funderIdx = 0; funderIdx < funders.length; funderIdx++) {... */\n      jump(tag_31)\n    tag_32:\n      pop\n        /* \"solidity-fundamentals/3-fund-me/9-withdraw-transfer-send-call.sol\":918:919  0 */\n      0x00\n        /* \"solidity-fundamentals/3-fund-me/9-withdraw-transfer-send-call.sol\":904:920  new address[](0) */\n      0xffffffffffffffff\n      dup2\n      gt\n      iszero\n      tag_38\n      jumpi\n      tag_39\n      tag_40\n      jump\t// in\n    tag_39:\n    tag_38:\n      mload(0x40)\n      swap1\n      dup1\n      dup3\n      mstore\n      dup1\n      0x20\n      mul\n      0x20\n      add\n      dup3\n      add\n      0x40\n      mstore\n      dup1\n      iszero\n      tag_41\n      jumpi\n      dup2\n      0x20\n      add\n      0x20\n      dup3\n      mul\n      dup1\n      calldatasize\n      dup4\n      calldatacopy\n      dup1\n      dup3\n      add\n      swap2\n      pop\n      pop\n      swap1\n      pop\n    tag_41:\n      pop\n        /* \"solidity-fundamentals/3-fund-me/9-withdraw-transfer-send-call.sol\":894:901  funders */\n      0x02\n        /* \"solidity-fundamentals/3-fund-me/9-withdraw-transfer-send-call.sol\":894:920  funders = new address[](0) */\n      swap1\n      dup1\n      mload\n      swap1\n      0x20\n      add\n      swap1\n      tag_42\n      swap3\n      swap2\n      swap1\n      tag_43\n      jump\t// in\n    tag_42:\n      pop\n        /* \"solidity-fundamentals/3-fund-me/9-withdraw-transfer-send-call.sol\":1699:1709  msg.sender */\n      caller\n        /* \"solidity-fundamentals/3-fund-me/9-withdraw-transfer-send-call.sol\":1691:1719  payable(msg.sender).transfer */\n      0xffffffffffffffffffffffffffffffffffffffff\n      and\n        /* \"solidity-fundamentals/3-fund-me/9-withdraw-transfer-send-call.sol\":1691:1742  payable(msg.sender).transfer(address(this).balance) */\n      0x08fc\n        /* \"solidity-fundamentals/3-fund-me/9-withdraw-transfer-send-call.sol\":1720:1741  address(this).balance */\n      selfbalance\n        /* \"solidity-fundamentals/3-fund-me/9-withdraw-transfer-send-call.sol\":1691:1742  payable(msg.sender).transfer(address(this).balance) */\n      swap1\n      dup2\n      iszero\n      mul\n      swap1\n      mload(0x40)\n      0x00\n      mload(0x40)\n      dup1\n      dup4\n      sub\n      dup2\n      dup6\n      dup9\n      dup9\n      call\n      swap4\n      pop\n      pop\n      pop\n      pop\n      iszero\n      dup1\n      iszero\n      tag_45\n      jumpi\n      returndatasize\n      0x00\n      dup1\n      returndatacopy\n      revert(0x00, returndatasize)\n    tag_45:\n      pop\n        /* \"solidity-fundamentals/3-fund-me/9-withdraw-transfer-send-call.sol\":2061:2077  bool sendSuccess */\n      0x00\n        /* \"solidity-fundamentals/3-fund-me/9-withdraw-transfer-send-call.sol\":2088:2098  msg.sender */\n      caller\n        /* \"solidity-fundamentals/3-fund-me/9-withdraw-transfer-send-call.sol\":2080:2104  payable(msg.sender).send */\n      0xffffffffffffffffffffffffffffffffffffffff\n      and\n        /* \"solidity-fundamentals/3-fund-me/9-withdraw-transfer-send-call.sol\":2080:2127  payable(msg.sender).send(address(this).balance) */\n      0x08fc\n        /* \"solidity-fundamentals/3-fund-me/9-withdraw-transfer-send-call.sol\":2105:2126  address(this).balance */\n      selfbalance\n        /* \"solidity-fundamentals/3-fund-me/9-withdraw-transfer-send-call.sol\":2080:2127  payable(msg.sender).send(address(this).balance) */\n      swap1\n      dup2\n      iszero\n      mul\n      swap1\n      mload(0x40)\n      0x00\n      mload(0x40)\n      dup1\n      dup4\n      sub\n      dup2\n      dup6\n      dup9\n      dup9\n      call\n      swap4\n      pop\n      pop\n      pop\n      pop\n        /* \"solidity-fundamentals/3-fund-me/9-withdraw-transfer-send-call.sol\":2061:2127  bool sendSuccess = payable(msg.sender).send(address(this).balance) */\n      swap1\n      pop\n        /* \"solidity-fundamentals/3-fund-me/9-withdraw-transfer-send-call.sol\":2145:2156  sendSuccess */\n      dup1\n        /* \"solidity-fundamentals/3-fund-me/9-withdraw-transfer-send-call.sol\":2137:2177  require(sendSuccess, \"Send failed!!!!!\") */\n      tag_47\n      jumpi\n      mload(0x40)\n      0x08c379a000000000000000000000000000000000000000000000000000000000\n      dup2\n      mstore\n      0x04\n      add\n      tag_48\n      swap1\n      tag_49\n      jump\t// in\n    tag_48:\n      mload(0x40)\n      dup1\n      swap2\n      sub\n      swap1\n      revert\n    tag_47:\n        /* \"solidity-fundamentals/3-fund-me/9-withdraw-transfer-send-call.sol\":3922:3938  bool callSuccess */\n      0x00\n        /* \"solidity-fundamentals/3-fund-me/9-withdraw-transfer-send-call.sol\":3952:3962  msg.sender */\n      caller\n        /* \"solidity-fundamentals/3-fund-me/9-withdraw-transfer-send-call.sol\":3944:3968  payable(msg.sender).call */\n      0xffffffffffffffffffffffffffffffffffffffff\n      and\n        /* \"solidity-fundamentals/3-fund-me/9-withdraw-transfer-send-call.sol\":3989:4010  address(this).balance */\n      selfbalance\n        /* \"solidity-fundamentals/3-fund-me/9-withdraw-transfer-send-call.sol\":3944:4024  payable(msg.sender).call{... */\n      mload(0x40)\n      tag_50\n      swap1\n      tag_51\n      jump\t// in\n    tag_50:\n      0x00\n      mload(0x40)\n      dup1\n      dup4\n      sub\n      dup2\n      dup6\n      dup8\n      gas\n      call\n      swap3\n      pop\n      pop\n      pop\n      returndatasize\n      dup1\n      0x00\n      dup2\n      eq\n      tag_54\n      jumpi\n      mload(0x40)\n      swap2\n      pop\n      and(add(returndatasize, 0x3f), not(0x1f))\n      dup3\n      add\n      0x40\n      mstore\n      returndatasize\n      dup3\n      mstore\n      returndatasize\n      0x00\n      0x20\n      dup5\n      add\n      returndatacopy\n      jump(tag_53)\n    tag_54:\n      0x60\n      swap2\n      pop\n    tag_53:\n      pop\n        /* \"solidity-fundamentals/3-fund-me/9-withdraw-transfer-send-call.sol\":3921:4024  (bool callSuccess, ) = payable(msg.sender).call{... */\n      pop\n      swap1\n      pop\n        /* \"solidity-fundamentals/3-fund-me/9-withdraw-transfer-send-call.sol\":4042:4053  callSuccess */\n      dup1\n        /* \"solidity-fundamentals/3-fund-me/9-withdraw-transfer-send-call.sol\":4034:4074  require(callSuccess, \"Call failed!!!!!\") */\n      tag_55\n      jumpi\n      mload(0x40)\n      0x08c379a000000000000000000000000000000000000000000000000000000000\n      dup2\n      mstore\n      0x04\n      add\n      tag_56\n      swap1\n      tag_57\n      jump\t// in\n    tag_56:\n      mload(0x40)\n      dup1\n      swap2\n      sub\n      swap1\n      revert\n    tag_55:\n        /* \"solidity-fundamentals/3-fund-me/9-withdraw-transfer-send-call.sol\":699:4081  {... */\n      pop\n      pop\n        /* \"solidity-fundamentals/3-fund-me/9-withdraw-transfer-send-call.sol\":672:4081  function withdraw() public {... */\n      jump\t// out\n        /* \"solidity-fundamentals/3-fund-me/9-withdraw-transfer-send-call.sol\":356:412  mapping(address => uint256) public addressToAmountFunded */\n    tag_14:\n      mstore(0x20, 0x03)\n      dup1\n      0x00\n      mstore\n      keccak256(0x00, 0x40)\n      0x00\n      swap2\n      pop\n      swap1\n      pop\n      sload\n      dup2\n      jump\t// out\n        /* \"solidity-fundamentals/3-fund-me/9-withdraw-transfer-send-call.sol\":182:210  uint256 public minUsd = 5e18 */\n    tag_19:\n      sload(0x00)\n      dup2\n      jump\t// out\n        /* \"solidity-fundamentals/3-fund-me/9-withdraw-transfer-send-call.sol\":419:666  function fund() public payable {... */\n    tag_22:\n        /* \"solidity-fundamentals/3-fund-me/9-withdraw-transfer-send-call.sol\":514:520  minUsd */\n      sload(0x00)\n        /* \"solidity-fundamentals/3-fund-me/9-withdraw-transfer-send-call.sol\":481:510  msg.value.getConversionRate() */\n      tag_59\n        /* \"solidity-fundamentals/3-fund-me/9-withdraw-transfer-send-call.sol\":481:490  msg.value */\n      callvalue\n        /* \"solidity-fundamentals/3-fund-me/9-withdraw-transfer-send-call.sol\":481:508  msg.value.getConversionRate */\n      tag_60\n        /* \"solidity-fundamentals/3-fund-me/9-withdraw-transfer-send-call.sol\":481:510  msg.value.getConversionRate() */\n      jump\t// in\n    tag_59:\n        /* \"solidity-fundamentals/3-fund-me/9-withdraw-transfer-send-call.sol\":481:520  msg.value.getConversionRate() >= minUsd */\n      lt\n      iszero\n        /* \"solidity-fundamentals/3-fund-me/9-withdraw-transfer-send-call.sol\":460:568  require(... */\n      tag_61\n      jumpi\n      mload(0x40)\n      0x08c379a000000000000000000000000000000000000000000000000000000000\n      dup2\n      mstore\n      0x04\n      add\n      tag_62\n      swap1\n      tag_63\n      jump\t// in\n    tag_62:\n      mload(0x40)\n      dup1\n      swap2\n      sub\n      swap1\n      revert\n    tag_61:\n        /* \"solidity-fundamentals/3-fund-me/9-withdraw-transfer-send-call.sol\":579:586  funders */\n      0x02\n        /* \"solidity-fundamentals/3-fund-me/9-withdraw-transfer-send-call.sol\":592:602  msg.sender */\n      caller\n        /* \"solidity-fundamentals/3-fund-me/9-withdraw-transfer-send-call.sol\":579:603  funders.push(msg.sender) */\n      swap1\n      dup1\n      0x01\n      dup2\n      sload\n      add\n      dup1\n      dup3\n      sstore\n      dup1\n      swap2\n      pop\n      pop\n      0x01\n      swap1\n      sub\n      swap1\n      0x00\n      mstore\n      keccak256(0x00, 0x20)\n      add\n      0x00\n      swap1\n      swap2\n      swap1\n      swap2\n      swap1\n      swap2\n      0x0100\n      exp\n      dup2\n      sload\n      dup2\n      0xffffffffffffffffffffffffffffffffffffffff\n      mul\n      not\n      and\n      swap1\n      dup4\n      0xffffffffffffffffffffffffffffffffffffffff\n      and\n      mul\n      or\n      swap1\n      sstore\n      pop\n        /* \"solidity-fundamentals/3-fund-me/9-withdraw-transfer-send-call.sol\":650:659  msg.value */\n      callvalue\n        /* \"solidity-fundamentals/3-fund-me/9-withdraw-transfer-send-call.sol\":613:634  addressToAmountFunded */\n      0x03\n        /* \"solidity-fundamentals/3-fund-me/9-withdraw-transfer-send-call.sol\":613:646  addressToAmountFunded[msg.sender] */\n      0x00\n        /* \"solidity-fundamentals/3-fund-me/9-withdraw-transfer-send-call.sol\":635:645  msg.sender */\n      caller\n        /* \"solidity-fundamentals/3-fund-me/9-withdraw-transfer-send-call.sol\":613:646  addressToAmountFunded[msg.sender] */\n      0xffffffffffffffffffffffffffffffffffffffff\n      and\n      0xffffffffffffffffffffffffffffffffffffffff\n      and\n      dup2\n      mstore\n      0x20\n      add\n      swap1\n      dup2\n      mstore\n      0x20\n      add\n      0x00\n      keccak256\n      0x00\n        /* \"solidity-fundamentals/3-fund-me/9-withdraw-transfer-send-call.sol\":613:659  addressToAmountFunded[msg.sender] += msg.value */\n      dup3\n      dup3\n      sload\n      tag_65\n      swap2\n      swap1\n      tag_66\n      jump\t// in\n    tag_65:\n      swap3\n      pop\n      pop\n      dup2\n      swap1\n      sstore\n      pop\n        /* \"solidity-fundamentals/3-fund-me/9-withdraw-transfer-send-call.sol\":419:666  function fund() public payable {... */\n      jump\t// out\n        /* \"solidity-fundamentals/3-fund-me/9-withdraw-transfer-send-call.sol\":326:350  address[] public funders */\n    tag_27:\n      0x02\n      dup2\n      dup2\n      sload\n      dup2\n      lt\n      tag_67\n      jumpi\n      0x00\n      dup1\n      revert\n    tag_67:\n      swap1\n      0x00\n      mstore\n      keccak256(0x00, 0x20)\n      add\n      0x00\n      swap2\n      pop\n      sload\n      swap1\n      0x0100\n      exp\n      swap1\n      div\n      0xffffffffffffffffffffffffffffffffffffffff\n      and\n      dup2\n      jump\t// out\n        /* \"solidity-fundamentals/3-fund-me/library/PriceConverter.sol\":589:842  function getConversionRate(uint256 ethAmmount)... */\n    tag_60:\n        /* \"solidity-fundamentals/3-fund-me/library/PriceConverter.sol\":684:691  uint256 */\n      0x00\n        /* \"solidity-fundamentals/3-fund-me/library/PriceConverter.sol\":707:723  uint256 ethPrice */\n      dup1\n        /* \"solidity-fundamentals/3-fund-me/library/PriceConverter.sol\":726:736  getPrice() */\n      tag_70\n        /* \"solidity-fundamentals/3-fund-me/library/PriceConverter.sol\":726:734  getPrice */\n      tag_71\n        /* \"solidity-fundamentals/3-fund-me/library/PriceConverter.sol\":726:736  getPrice() */\n      jump\t// in\n    tag_70:\n        /* \"solidity-fundamentals/3-fund-me/library/PriceConverter.sol\":707:736  uint256 ethPrice = getPrice() */\n      swap1\n      pop\n        /* \"solidity-fundamentals/3-fund-me/library/PriceConverter.sol\":746:769  uint256 ethAmmountInUSD */\n      0x00\n        /* \"solidity-fundamentals/3-fund-me/library/PriceConverter.sol\":798:802  1e18 */\n      0x0de0b6b3a7640000\n        /* \"solidity-fundamentals/3-fund-me/library/PriceConverter.sol\":784:794  ethAmmount */\n      dup5\n        /* \"solidity-fundamentals/3-fund-me/library/PriceConverter.sol\":773:781  ethPrice */\n      dup4\n        /* \"solidity-fundamentals/3-fund-me/library/PriceConverter.sol\":773:794  ethPrice * ethAmmount */\n      tag_72\n      swap2\n      swap1\n      tag_73\n      jump\t// in\n    tag_72:\n        /* \"solidity-fundamentals/3-fund-me/library/PriceConverter.sol\":772:802  (ethPrice * ethAmmount) / 1e18 */\n      tag_74\n      swap2\n      swap1\n      tag_75\n      jump\t// in\n    tag_74:\n        /* \"solidity-fundamentals/3-fund-me/library/PriceConverter.sol\":746:802  uint256 ethAmmountInUSD = (ethPrice * ethAmmount) / 1e18 */\n      swap1\n      pop\n        /* \"solidity-fundamentals/3-fund-me/library/PriceConverter.sol\":820:835  ethAmmountInUSD */\n      dup1\n        /* \"solidity-fundamentals/3-fund-me/library/PriceConverter.sol\":813:835  return ethAmmountInUSD */\n      swap3\n      pop\n      pop\n      pop\n        /* \"solidity-fundamentals/3-fund-me/library/PriceConverter.sol\":589:842  function getConversionRate(uint256 ethAmmount)... */\n      swap2\n      swap1\n      pop\n      jump\t// out\n        /* \"solidity-fundamentals/3-fund-me/library/PriceConverter.sol\":202:583  function getPrice() internal view returns (uint256) {... */\n    tag_71:\n        /* \"solidity-fundamentals/3-fund-me/library/PriceConverter.sol\":245:252  uint256 */\n      0x00\n        /* \"solidity-fundamentals/3-fund-me/library/PriceConverter.sol\":264:295  AggregatorV3Interface priceFeed */\n      dup1\n        /* \"solidity-fundamentals/3-fund-me/library/PriceConverter.sol\":333:375  0x694AA1769357215DE4FAC081bf1f309aDC325306 */\n      0x694aa1769357215de4fac081bf1f309adc325306\n        /* \"solidity-fundamentals/3-fund-me/library/PriceConverter.sol\":264:385  AggregatorV3Interface priceFeed = AggregatorV3Interface(... */\n      swap1\n      pop\n        /* \"solidity-fundamentals/3-fund-me/library/PriceConverter.sol\":398:411  int256 answer */\n      0x00\n        /* \"solidity-fundamentals/3-fund-me/library/PriceConverter.sol\":421:430  priceFeed */\n      dup2\n        /* \"solidity-fundamentals/3-fund-me/library/PriceConverter.sol\":421:446  priceFeed.latestRoundData */\n      0xffffffffffffffffffffffffffffffffffffffff\n      and\n      0xfeaf968c\n        /* \"solidity-fundamentals/3-fund-me/library/PriceConverter.sol\":421:448  priceFeed.latestRoundData() */\n      mload(0x40)\n      dup2\n      0xffffffff\n      and\n      0xe0\n      shl\n      dup2\n      mstore\n      0x04\n      add\n      0xa0\n      mload(0x40)\n      dup1\n      dup4\n      sub\n      dup2\n      dup7\n      gas\n      staticcall\n      iszero\n      dup1\n      iszero\n      tag_78\n      jumpi\n      returndatasize\n      0x00\n      dup1\n      returndatacopy\n      revert(0x00, returndatasize)\n    tag_78:\n      pop\n      pop\n      pop\n      pop\n      mload(0x40)\n      returndatasize\n      not(0x1f)\n      0x1f\n      dup3\n      add\n      and\n      dup3\n      add\n      dup1\n      0x40\n      mstore\n      pop\n      dup2\n      add\n      swap1\n      tag_79\n      swap2\n      swap1\n      tag_80\n      jump\t// in\n    tag_79:\n        /* \"solidity-fundamentals/3-fund-me/library/PriceConverter.sol\":395:448  (, int256 answer, , , ) = priceFeed.latestRoundData() */\n      pop\n      pop\n      pop\n      swap2\n      pop\n      pop\n        /* \"solidity-fundamentals/3-fund-me/library/PriceConverter.sol\":472:473  0 */\n      0x00\n        /* \"solidity-fundamentals/3-fund-me/library/PriceConverter.sol\":463:469  answer */\n      dup2\n        /* \"solidity-fundamentals/3-fund-me/library/PriceConverter.sol\":463:473  answer < 0 */\n      slt\n        /* \"solidity-fundamentals/3-fund-me/library/PriceConverter.sol\":459:538  if (answer < 0) {... */\n      iszero\n      tag_81\n      jumpi\n        /* \"solidity-fundamentals/3-fund-me/library/PriceConverter.sol\":489:527  revert(\"Negative price not supported\") */\n      mload(0x40)\n      0x08c379a000000000000000000000000000000000000000000000000000000000\n      dup2\n      mstore\n      0x04\n      add\n      tag_82\n      swap1\n      tag_83\n      jump\t// in\n    tag_82:\n      mload(0x40)\n      dup1\n      swap2\n      sub\n      swap1\n      revert\n        /* \"solidity-fundamentals/3-fund-me/library/PriceConverter.sol\":459:538  if (answer < 0) {... */\n    tag_81:\n        /* \"solidity-fundamentals/3-fund-me/library/PriceConverter.sol\":571:575  1e10 */\n      0x02540be400\n        /* \"solidity-fundamentals/3-fund-me/library/PriceConverter.sol\":562:568  answer */\n      dup2\n        /* \"solidity-fundamentals/3-fund-me/library/PriceConverter.sol\":562:575  answer * 1e10 */\n      tag_84\n      swap2\n      swap1\n      tag_85\n      jump\t// in\n    tag_84:\n        /* \"solidity-fundamentals/3-fund-me/library/PriceConverter.sol\":547:576  return uint256(answer * 1e10) */\n      swap3\n      pop\n      pop\n      pop\n        /* \"solidity-fundamentals/3-fund-me/library/PriceConverter.sol\":202:583  function getPrice() internal view returns (uint256) {... */\n      swap1\n      jump\t// out\n    tag_43:\n      dup3\n      dup1\n      sload\n      dup3\n      dup3\n      sstore\n      swap1\n      0x00\n      mstore\n      keccak256(0x00, 0x20)\n      swap1\n      dup2\n      add\n      swap3\n      dup3\n      iszero\n      tag_86\n      jumpi\n      swap2\n      0x20\n      mul\n      dup3\n      add\n    tag_87:\n      dup3\n      dup2\n      gt\n      iszero\n      tag_88\n      jumpi\n      dup3\n      mload\n      dup3\n      exp(0x0100, 0x00)\n      dup2\n      sload\n      dup2\n      0xffffffffffffffffffffffffffffffffffffffff\n      mul\n      not\n      and\n      swap1\n      dup4\n      0xffffffffffffffffffffffffffffffffffffffff\n      and\n      mul\n      or\n      swap1\n      sstore\n      pop\n      swap2\n      0x20\n      add\n      swap2\n      swap1\n      0x01\n      add\n      swap1\n      jump(tag_87)\n    tag_88:\n    tag_86:\n      pop\n      swap1\n      pop\n      tag_89\n      swap2\n      swap1\n      tag_90\n      jump\t// in\n    tag_89:\n      pop\n      swap1\n      jump\t// out\n    tag_90:\n    tag_91:\n      dup1\n      dup3\n      gt\n      iszero\n      tag_92\n      jumpi\n      0x00\n      dup2\n      0x00\n      swap1\n      sstore\n      pop\n      0x01\n      add\n      jump(tag_91)\n    tag_92:\n      pop\n      swap1\n      jump\t// out\n        /* \"#utility.yul\":88:205   */\n    tag_94:\n        /* \"#utility.yul\":197:198   */\n      0x00\n        /* \"#utility.yul\":194:195   */\n      dup1\n        /* \"#utility.yul\":187:199   */\n      revert\n        /* \"#utility.yul\":334:460   */\n    tag_96:\n        /* \"#utility.yul\":371:378   */\n      0x00\n        /* \"#utility.yul\":411:453   */\n      0xffffffffffffffffffffffffffffffffffffffff\n        /* \"#utility.yul\":404:409   */\n      dup3\n        /* \"#utility.yul\":400:454   */\n      and\n        /* \"#utility.yul\":389:454   */\n      swap1\n      pop\n        /* \"#utility.yul\":334:460   */\n      swap2\n      swap1\n      pop\n      jump\t// out\n        /* \"#utility.yul\":466:562   */\n    tag_97:\n        /* \"#utility.yul\":503:510   */\n      0x00\n        /* \"#utility.yul\":532:556   */\n      tag_132\n        /* \"#utility.yul\":550:555   */\n      dup3\n        /* \"#utility.yul\":532:556   */\n      tag_96\n      jump\t// in\n    tag_132:\n        /* \"#utility.yul\":521:556   */\n      swap1\n      pop\n        /* \"#utility.yul\":466:562   */\n      swap2\n      swap1\n      pop\n      jump\t// out\n        /* \"#utility.yul\":568:690   */\n    tag_98:\n        /* \"#utility.yul\":641:665   */\n      tag_134\n        /* \"#utility.yul\":659:664   */\n      dup2\n        /* \"#utility.yul\":641:665   */\n      tag_97\n      jump\t// in\n    tag_134:\n        /* \"#utility.yul\":634:639   */\n      dup2\n        /* \"#utility.yul\":631:666   */\n      eq\n        /* \"#utility.yul\":621:684   */\n      tag_135\n      jumpi\n        /* \"#utility.yul\":680:681   */\n      0x00\n        /* \"#utility.yul\":677:678   */\n      dup1\n        /* \"#utility.yul\":670:682   */\n      revert\n        /* \"#utility.yul\":621:684   */\n    tag_135:\n        /* \"#utility.yul\":568:690   */\n      pop\n      jump\t// out\n        /* \"#utility.yul\":696:835   */\n    tag_99:\n        /* \"#utility.yul\":742:747   */\n      0x00\n        /* \"#utility.yul\":780:786   */\n      dup2\n        /* \"#utility.yul\":767:787   */\n      calldataload\n        /* \"#utility.yul\":758:787   */\n      swap1\n      pop\n        /* \"#utility.yul\":796:829   */\n      tag_137\n        /* \"#utility.yul\":823:828   */\n      dup2\n        /* \"#utility.yul\":796:829   */\n      tag_98\n      jump\t// in\n    tag_137:\n        /* \"#utility.yul\":696:835   */\n      swap3\n      swap2\n      pop\n      pop\n      jump\t// out\n        /* \"#utility.yul\":841:1170   */\n    tag_13:\n        /* \"#utility.yul\":900:906   */\n      0x00\n        /* \"#utility.yul\":949:951   */\n      0x20\n        /* \"#utility.yul\":937:946   */\n      dup3\n        /* \"#utility.yul\":928:935   */\n      dup5\n        /* \"#utility.yul\":924:947   */\n      sub\n        /* \"#utility.yul\":920:952   */\n      slt\n        /* \"#utility.yul\":917:1036   */\n      iszero\n      tag_139\n      jumpi\n        /* \"#utility.yul\":955:1034   */\n      tag_140\n      tag_94\n      jump\t// in\n    tag_140:\n        /* \"#utility.yul\":917:1036   */\n    tag_139:\n        /* \"#utility.yul\":1075:1076   */\n      0x00\n        /* \"#utility.yul\":1100:1153   */\n      tag_141\n        /* \"#utility.yul\":1145:1152   */\n      dup5\n        /* \"#utility.yul\":1136:1142   */\n      dup3\n        /* \"#utility.yul\":1125:1134   */\n      dup6\n        /* \"#utility.yul\":1121:1143   */\n      add\n        /* \"#utility.yul\":1100:1153   */\n      tag_99\n      jump\t// in\n    tag_141:\n        /* \"#utility.yul\":1090:1153   */\n      swap2\n      pop\n        /* \"#utility.yul\":1046:1163   */\n      pop\n        /* \"#utility.yul\":841:1170   */\n      swap3\n      swap2\n      pop\n      pop\n      jump\t// out\n        /* \"#utility.yul\":1176:1253   */\n    tag_100:\n        /* \"#utility.yul\":1213:1220   */\n      0x00\n        /* \"#utility.yul\":1242:1247   */\n      dup2\n        /* \"#utility.yul\":1231:1247   */\n      swap1\n      pop\n        /* \"#utility.yul\":1176:1253   */\n      swap2\n      swap1\n      pop\n      jump\t// out\n        /* \"#utility.yul\":1259:1377   */\n    tag_101:\n        /* \"#utility.yul\":1346:1370   */\n      tag_144\n        /* \"#utility.yul\":1364:1369   */\n      dup2\n        /* \"#utility.yul\":1346:1370   */\n      tag_100\n      jump\t// in\n    tag_144:\n        /* \"#utility.yul\":1341:1344   */\n      dup3\n        /* \"#utility.yul\":1334:1371   */\n      mstore\n        /* \"#utility.yul\":1259:1377   */\n      pop\n      pop\n      jump\t// out\n        /* \"#utility.yul\":1383:1605   */\n    tag_16:\n        /* \"#utility.yul\":1476:1480   */\n      0x00\n        /* \"#utility.yul\":1514:1516   */\n      0x20\n        /* \"#utility.yul\":1503:1512   */\n      dup3\n        /* \"#utility.yul\":1499:1517   */\n      add\n        /* \"#utility.yul\":1491:1517   */\n      swap1\n      pop\n        /* \"#utility.yul\":1527:1598   */\n      tag_146\n        /* \"#utility.yul\":1595:1596   */\n      0x00\n        /* \"#utility.yul\":1584:1593   */\n      dup4\n        /* \"#utility.yul\":1580:1597   */\n      add\n        /* \"#utility.yul\":1571:1577   */\n      dup5\n        /* \"#utility.yul\":1527:1598   */\n      tag_101\n      jump\t// in\n    tag_146:\n        /* \"#utility.yul\":1383:1605   */\n      swap3\n      swap2\n      pop\n      pop\n      jump\t// out\n        /* \"#utility.yul\":1611:1733   */\n    tag_102:\n        /* \"#utility.yul\":1684:1708   */\n      tag_148\n        /* \"#utility.yul\":1702:1707   */\n      dup2\n        /* \"#utility.yul\":1684:1708   */\n      tag_100\n      jump\t// in\n    tag_148:\n        /* \"#utility.yul\":1677:1682   */\n      dup2\n        /* \"#utility.yul\":1674:1709   */\n      eq\n        /* \"#utility.yul\":1664:1727   */\n      tag_149\n      jumpi\n        /* \"#utility.yul\":1723:1724   */\n      0x00\n        /* \"#utility.yul\":1720:1721   */\n      dup1\n        /* \"#utility.yul\":1713:1725   */\n      revert\n        /* \"#utility.yul\":1664:1727   */\n    tag_149:\n        /* \"#utility.yul\":1611:1733   */\n      pop\n      jump\t// out\n        /* \"#utility.yul\":1739:1878   */\n    tag_103:\n        /* \"#utility.yul\":1785:1790   */\n      0x00\n        /* \"#utility.yul\":1823:1829   */\n      dup2\n        /* \"#utility.yul\":1810:1830   */\n      calldataload\n        /* \"#utility.yul\":1801:1830   */\n      swap1\n      pop\n        /* \"#utility.yul\":1839:1872   */\n      tag_151\n        /* \"#utility.yul\":1866:1871   */\n      dup2\n        /* \"#utility.yul\":1839:1872   */\n      tag_102\n      jump\t// in\n    tag_151:\n        /* \"#utility.yul\":1739:1878   */\n      swap3\n      swap2\n      pop\n      pop\n      jump\t// out\n        /* \"#utility.yul\":1884:2213   */\n    tag_26:\n        /* \"#utility.yul\":1943:1949   */\n      0x00\n        /* \"#utility.yul\":1992:1994   */\n      0x20\n        /* \"#utility.yul\":1980:1989   */\n      dup3\n        /* \"#utility.yul\":1971:1978   */\n      dup5\n        /* \"#utility.yul\":1967:1990   */\n      sub\n        /* \"#utility.yul\":1963:1995   */\n      slt\n        /* \"#utility.yul\":1960:2079   */\n      iszero\n      tag_153\n      jumpi\n        /* \"#utility.yul\":1998:2077   */\n      tag_154\n      tag_94\n      jump\t// in\n    tag_154:\n        /* \"#utility.yul\":1960:2079   */\n    tag_153:\n        /* \"#utility.yul\":2118:2119   */\n      0x00\n        /* \"#utility.yul\":2143:2196   */\n      tag_155\n        /* \"#utility.yul\":2188:2195   */\n      dup5\n        /* \"#utility.yul\":2179:2185   */\n      dup3\n        /* \"#utility.yul\":2168:2177   */\n      dup6\n        /* \"#utility.yul\":2164:2186   */\n      add\n        /* \"#utility.yul\":2143:2196   */\n      tag_103\n      jump\t// in\n    tag_155:\n        /* \"#utility.yul\":2133:2196   */\n      swap2\n      pop\n        /* \"#utility.yul\":2089:2206   */\n      pop\n        /* \"#utility.yul\":1884:2213   */\n      swap3\n      swap2\n      pop\n      pop\n      jump\t// out\n        /* \"#utility.yul\":2219:2337   */\n    tag_104:\n        /* \"#utility.yul\":2306:2330   */\n      tag_157\n        /* \"#utility.yul\":2324:2329   */\n      dup2\n        /* \"#utility.yul\":2306:2330   */\n      tag_97\n      jump\t// in\n    tag_157:\n        /* \"#utility.yul\":2301:2304   */\n      dup3\n        /* \"#utility.yul\":2294:2331   */\n      mstore\n        /* \"#utility.yul\":2219:2337   */\n      pop\n      pop\n      jump\t// out\n        /* \"#utility.yul\":2343:2565   */\n    tag_29:\n        /* \"#utility.yul\":2436:2440   */\n      0x00\n        /* \"#utility.yul\":2474:2476   */\n      0x20\n        /* \"#utility.yul\":2463:2472   */\n      dup3\n        /* \"#utility.yul\":2459:2477   */\n      add\n        /* \"#utility.yul\":2451:2477   */\n      swap1\n      pop\n        /* \"#utility.yul\":2487:2558   */\n      tag_159\n        /* \"#utility.yul\":2555:2556   */\n      0x00\n        /* \"#utility.yul\":2544:2553   */\n      dup4\n        /* \"#utility.yul\":2540:2557   */\n      add\n        /* \"#utility.yul\":2531:2537   */\n      dup5\n        /* \"#utility.yul\":2487:2558   */\n      tag_104\n      jump\t// in\n    tag_159:\n        /* \"#utility.yul\":2343:2565   */\n      swap3\n      swap2\n      pop\n      pop\n      jump\t// out\n        /* \"#utility.yul\":2571:2751   */\n    tag_36:\n        /* \"#utility.yul\":2619:2696   */\n      0x4e487b7100000000000000000000000000000000000000000000000000000000\n        /* \"#utility.yul\":2616:2617   */\n      0x00\n        /* \"#utility.yul\":2609:2697   */\n      mstore\n        /* \"#utility.yul\":2716:2720   */\n      0x32\n        /* \"#utility.yul\":2713:2714   */\n      0x04\n        /* \"#utility.yul\":2706:2721   */\n      mstore\n        /* \"#utility.yul\":2740:2744   */\n      0x24\n        /* \"#utility.yul\":2737:2738   */\n      0x00\n        /* \"#utility.yul\":2730:2745   */\n      revert\n        /* \"#utility.yul\":2757:2937   */\n    tag_40:\n        /* \"#utility.yul\":2805:2882   */\n      0x4e487b7100000000000000000000000000000000000000000000000000000000\n        /* \"#utility.yul\":2802:2803   */\n      0x00\n        /* \"#utility.yul\":2795:2883   */\n      mstore\n        /* \"#utility.yul\":2902:2906   */\n      0x41\n        /* \"#utility.yul\":2899:2900   */\n      0x04\n        /* \"#utility.yul\":2892:2907   */\n      mstore\n        /* \"#utility.yul\":2926:2930   */\n      0x24\n        /* \"#utility.yul\":2923:2924   */\n      0x00\n        /* \"#utility.yul\":2916:2931   */\n      revert\n        /* \"#utility.yul\":2943:3112   */\n    tag_105:\n        /* \"#utility.yul\":3027:3038   */\n      0x00\n        /* \"#utility.yul\":3061:3067   */\n      dup3\n        /* \"#utility.yul\":3056:3059   */\n      dup3\n        /* \"#utility.yul\":3049:3068   */\n      mstore\n        /* \"#utility.yul\":3101:3105   */\n      0x20\n        /* \"#utility.yul\":3096:3099   */\n      dup3\n        /* \"#utility.yul\":3092:3106   */\n      add\n        /* \"#utility.yul\":3077:3106   */\n      swap1\n      pop\n        /* \"#utility.yul\":2943:3112   */\n      swap3\n      swap2\n      pop\n      pop\n      jump\t// out\n        /* \"#utility.yul\":3118:3284   */\n    tag_106:\n        /* \"#utility.yul\":3258:3276   */\n      0x53656e64206661696c6564212121212100000000000000000000000000000000\n        /* \"#utility.yul\":3254:3255   */\n      0x00\n        /* \"#utility.yul\":3246:3252   */\n      dup3\n        /* \"#utility.yul\":3242:3256   */\n      add\n        /* \"#utility.yul\":3235:3277   */\n      mstore\n        /* \"#utility.yul\":3118:3284   */\n      pop\n      jump\t// out\n        /* \"#utility.yul\":3290:3656   */\n    tag_107:\n        /* \"#utility.yul\":3432:3435   */\n      0x00\n        /* \"#utility.yul\":3453:3520   */\n      tag_165\n        /* \"#utility.yul\":3517:3519   */\n      0x10\n        /* \"#utility.yul\":3512:3515   */\n      dup4\n        /* \"#utility.yul\":3453:3520   */\n      tag_105\n      jump\t// in\n    tag_165:\n        /* \"#utility.yul\":3446:3520   */\n      swap2\n      pop\n        /* \"#utility.yul\":3529:3622   */\n      tag_166\n        /* \"#utility.yul\":3618:3621   */\n      dup3\n        /* \"#utility.yul\":3529:3622   */\n      tag_106\n      jump\t// in\n    tag_166:\n        /* \"#utility.yul\":3647:3649   */\n      0x20\n        /* \"#utility.yul\":3642:3645   */\n      dup3\n        /* \"#utility.yul\":3638:3650   */\n      add\n        /* \"#utility.yul\":3631:3650   */\n      swap1\n      pop\n        /* \"#utility.yul\":3290:3656   */\n      swap2\n      swap1\n      pop\n      jump\t// out\n        /* \"#utility.yul\":3662:4081   */\n    tag_49:\n        /* \"#utility.yul\":3828:3832   */\n      0x00\n        /* \"#utility.yul\":3866:3868   */\n      0x20\n        /* \"#utility.yul\":3855:3864   */\n      dup3\n        /* \"#utility.yul\":3851:3869   */\n      add\n        /* \"#utility.yul\":3843:3869   */\n      swap1\n      pop\n        /* \"#utility.yul\":3915:3924   */\n      dup2\n        /* \"#utility.yul\":3909:3913   */\n      dup2\n        /* \"#utility.yul\":3905:3925   */\n      sub\n        /* \"#utility.yul\":3901:3902   */\n      0x00\n        /* \"#utility.yul\":3890:3899   */\n      dup4\n        /* \"#utility.yul\":3886:3903   */\n      add\n        /* \"#utility.yul\":3879:3926   */\n      mstore\n        /* \"#utility.yul\":3943:4074   */\n      tag_168\n        /* \"#utility.yul\":4069:4073   */\n      dup2\n        /* \"#utility.yul\":3943:4074   */\n      tag_107\n      jump\t// in\n    tag_168:\n        /* \"#utility.yul\":3935:4074   */\n      swap1\n      pop\n        /* \"#utility.yul\":3662:4081   */\n      swap2\n      swap1\n      pop\n      jump\t// out\n        /* \"#utility.yul\":4087:4234   */\n    tag_108:\n        /* \"#utility.yul\":4188:4199   */\n      0x00\n        /* \"#utility.yul\":4225:4228   */\n      dup2\n        /* \"#utility.yul\":4210:4228   */\n      swap1\n      pop\n        /* \"#utility.yul\":4087:4234   */\n      swap3\n      swap2\n      pop\n      pop\n      jump\t// out\n        /* \"#utility.yul\":4240:4354   */\n    tag_109:\n      pop\n      jump\t// out\n        /* \"#utility.yul\":4360:4758   */\n    tag_110:\n        /* \"#utility.yul\":4519:4522   */\n      0x00\n        /* \"#utility.yul\":4540:4623   */\n      tag_172\n        /* \"#utility.yul\":4621:4622   */\n      0x00\n        /* \"#utility.yul\":4616:4619   */\n      dup4\n        /* \"#utility.yul\":4540:4623   */\n      tag_108\n      jump\t// in\n    tag_172:\n        /* \"#utility.yul\":4533:4623   */\n      swap2\n      pop\n        /* \"#utility.yul\":4632:4725   */\n      tag_173\n        /* \"#utility.yul\":4721:4724   */\n      dup3\n        /* \"#utility.yul\":4632:4725   */\n      tag_109\n      jump\t// in\n    tag_173:\n        /* \"#utility.yul\":4750:4751   */\n      0x00\n        /* \"#utility.yul\":4745:4748   */\n      dup3\n        /* \"#utility.yul\":4741:4752   */\n      add\n        /* \"#utility.yul\":4734:4752   */\n      swap1\n      pop\n        /* \"#utility.yul\":4360:4758   */\n      swap2\n      swap1\n      pop\n      jump\t// out\n        /* \"#utility.yul\":4764:5143   */\n    tag_51:\n        /* \"#utility.yul\":4948:4951   */\n      0x00\n        /* \"#utility.yul\":4970:5117   */\n      tag_175\n        /* \"#utility.yul\":5113:5116   */\n      dup3\n        /* \"#utility.yul\":4970:5117   */\n      tag_110\n      jump\t// in\n    tag_175:\n        /* \"#utility.yul\":4963:5117   */\n      swap2\n      pop\n        /* \"#utility.yul\":5134:5137   */\n      dup2\n        /* \"#utility.yul\":5127:5137   */\n      swap1\n      pop\n        /* \"#utility.yul\":4764:5143   */\n      swap2\n      swap1\n      pop\n      jump\t// out\n        /* \"#utility.yul\":5149:5315   */\n    tag_111:\n        /* \"#utility.yul\":5289:5307   */\n      0x43616c6c206661696c6564212121212100000000000000000000000000000000\n        /* \"#utility.yul\":5285:5286   */\n      0x00\n        /* \"#utility.yul\":5277:5283   */\n      dup3\n        /* \"#utility.yul\":5273:5287   */\n      add\n        /* \"#utility.yul\":5266:5308   */\n      mstore\n        /* \"#utility.yul\":5149:5315   */\n      pop\n      jump\t// out\n        /* \"#utility.yul\":5321:5687   */\n    tag_112:\n        /* \"#utility.yul\":5463:5466   */\n      0x00\n        /* \"#utility.yul\":5484:5551   */\n      tag_178\n        /* \"#utility.yul\":5548:5550   */\n      0x10\n        /* \"#utility.yul\":5543:5546   */\n      dup4\n        /* \"#utility.yul\":5484:5551   */\n      tag_105\n      jump\t// in\n    tag_178:\n        /* \"#utility.yul\":5477:5551   */\n      swap2\n      pop\n        /* \"#utility.yul\":5560:5653   */\n      tag_179\n        /* \"#utility.yul\":5649:5652   */\n      dup3\n        /* \"#utility.yul\":5560:5653   */\n      tag_111\n      jump\t// in\n    tag_179:\n        /* \"#utility.yul\":5678:5680   */\n      0x20\n        /* \"#utility.yul\":5673:5676   */\n      dup3\n        /* \"#utility.yul\":5669:5681   */\n      add\n        /* \"#utility.yul\":5662:5681   */\n      swap1\n      pop\n        /* \"#utility.yul\":5321:5687   */\n      swap2\n      swap1\n      pop\n      jump\t// out\n        /* \"#utility.yul\":5693:6112   */\n    tag_57:\n        /* \"#utility.yul\":5859:5863   */\n      0x00\n        /* \"#utility.yul\":5897:5899   */\n      0x20\n        /* \"#utility.yul\":5886:5895   */\n      dup3\n        /* \"#utility.yul\":5882:5900   */\n      add\n        /* \"#utility.yul\":5874:5900   */\n      swap1\n      pop\n        /* \"#utility.yul\":5946:5955   */\n      dup2\n        /* \"#utility.yul\":5940:5944   */\n      dup2\n        /* \"#utility.yul\":5936:5956   */\n      sub\n        /* \"#utility.yul\":5932:5933   */\n      0x00\n        /* \"#utility.yul\":5921:5930   */\n      dup4\n        /* \"#utility.yul\":5917:5934   */\n      add\n        /* \"#utility.yul\":5910:5957   */\n      mstore\n        /* \"#utility.yul\":5974:6105   */\n      tag_181\n        /* \"#utility.yul\":6100:6104   */\n      dup2\n        /* \"#utility.yul\":5974:6105   */\n      tag_112\n      jump\t// in\n    tag_181:\n        /* \"#utility.yul\":5966:6105   */\n      swap1\n      pop\n        /* \"#utility.yul\":5693:6112   */\n      swap2\n      swap1\n      pop\n      jump\t// out\n        /* \"#utility.yul\":6118:6290   */\n    tag_113:\n        /* \"#utility.yul\":6258:6282   */\n      0x6469646e27742073656e6420656e6f7567682045544800000000000000000000\n        /* \"#utility.yul\":6254:6255   */\n      0x00\n        /* \"#utility.yul\":6246:6252   */\n      dup3\n        /* \"#utility.yul\":6242:6256   */\n      add\n        /* \"#utility.yul\":6235:6283   */\n      mstore\n        /* \"#utility.yul\":6118:6290   */\n      pop\n      jump\t// out\n        /* \"#utility.yul\":6296:6662   */\n    tag_114:\n        /* \"#utility.yul\":6438:6441   */\n      0x00\n        /* \"#utility.yul\":6459:6526   */\n      tag_184\n        /* \"#utility.yul\":6523:6525   */\n      0x16\n        /* \"#utility.yul\":6518:6521   */\n      dup4\n        /* \"#utility.yul\":6459:6526   */\n      tag_105\n      jump\t// in\n    tag_184:\n        /* \"#utility.yul\":6452:6526   */\n      swap2\n      pop\n        /* \"#utility.yul\":6535:6628   */\n      tag_185\n        /* \"#utility.yul\":6624:6627   */\n      dup3\n        /* \"#utility.yul\":6535:6628   */\n      tag_113\n      jump\t// in\n    tag_185:\n        /* \"#utility.yul\":6653:6655   */\n      0x20\n        /* \"#utility.yul\":6648:6651   */\n      dup3\n        /* \"#utility.yul\":6644:6656   */\n      add\n        /* \"#utility.yul\":6637:6656   */\n      swap1\n      pop\n        /* \"#utility.yul\":6296:6662   */\n      swap2\n      swap1\n      pop\n      jump\t// out\n        /* \"#utility.yul\":6668:7087   */\n    tag_63:\n        /* \"#utility.yul\":6834:6838   */\n      0x00\n        /* \"#utility.yul\":6872:6874   */\n      0x20\n        /* \"#utility.yul\":6861:6870   */\n      dup3\n        /* \"#utility.yul\":6857:6875   */\n      add\n        /* \"#utility.yul\":6849:6875   */\n      swap1\n      pop\n        /* \"#utility.yul\":6921:6930   */\n      dup2\n        /* \"#utility.yul\":6915:6919   */\n      dup2\n        /* \"#utility.yul\":6911:6931   */\n      sub\n        /* \"#utility.yul\":6907:6908   */\n      0x00\n        /* \"#utility.yul\":6896:6905   */\n      dup4\n        /* \"#utility.yul\":6892:6909   */\n      add\n        /* \"#utility.yul\":6885:6932   */\n      mstore\n        /* \"#utility.yul\":6949:7080   */\n      tag_187\n        /* \"#utility.yul\":7075:7079   */\n      dup2\n        /* \"#utility.yul\":6949:7080   */\n      tag_114\n      jump\t// in\n    tag_187:\n        /* \"#utility.yul\":6941:7080   */\n      swap1\n      pop\n        /* \"#utility.yul\":6668:7087   */\n      swap2\n      swap1\n      pop\n      jump\t// out\n        /* \"#utility.yul\":7093:7273   */\n    tag_115:\n        /* \"#utility.yul\":7141:7218   */\n      0x4e487b7100000000000000000000000000000000000000000000000000000000\n        /* \"#utility.yul\":7138:7139   */\n      0x00\n        /* \"#utility.yul\":7131:7219   */\n      mstore\n        /* \"#utility.yul\":7238:7242   */\n      0x11\n        /* \"#utility.yul\":7235:7236   */\n      0x04\n        /* \"#utility.yul\":7228:7243   */\n      mstore\n        /* \"#utility.yul\":7262:7266   */\n      0x24\n        /* \"#utility.yul\":7259:7260   */\n      0x00\n        /* \"#utility.yul\":7252:7267   */\n      revert\n        /* \"#utility.yul\":7279:7470   */\n    tag_66:\n        /* \"#utility.yul\":7319:7322   */\n      0x00\n        /* \"#utility.yul\":7338:7358   */\n      tag_190\n        /* \"#utility.yul\":7356:7357   */\n      dup3\n        /* \"#utility.yul\":7338:7358   */\n      tag_100\n      jump\t// in\n    tag_190:\n        /* \"#utility.yul\":7333:7358   */\n      swap2\n      pop\n        /* \"#utility.yul\":7372:7392   */\n      tag_191\n        /* \"#utility.yul\":7390:7391   */\n      dup4\n        /* \"#utility.yul\":7372:7392   */\n      tag_100\n      jump\t// in\n    tag_191:\n        /* \"#utility.yul\":7367:7392   */\n      swap3\n      pop\n        /* \"#utility.yul\":7415:7416   */\n      dup3\n        /* \"#utility.yul\":7412:7413   */\n      dup3\n        /* \"#utility.yul\":7408:7417   */\n      add\n        /* \"#utility.yul\":7401:7417   */\n      swap1\n      pop\n        /* \"#utility.yul\":7436:7439   */\n      dup1\n        /* \"#utility.yul\":7433:7434   */\n      dup3\n        /* \"#utility.yul\":7430:7440   */\n      gt\n        /* \"#utility.yul\":7427:7463   */\n      iszero\n      tag_192\n      jumpi\n        /* \"#utility.yul\":7443:7461   */\n      tag_193\n      tag_115\n      jump\t// in\n    tag_193:\n        /* \"#utility.yul\":7427:7463   */\n    tag_192:\n        /* \"#utility.yul\":7279:7470   */\n      swap3\n      swap2\n      pop\n      pop\n      jump\t// out\n        /* \"#utility.yul\":7476:7886   */\n    tag_73:\n        /* \"#utility.yul\":7516:7523   */\n      0x00\n        /* \"#utility.yul\":7539:7559   */\n      tag_195\n        /* \"#utility.yul\":7557:7558   */\n      dup3\n        /* \"#utility.yul\":7539:7559   */\n      tag_100\n      jump\t// in\n    tag_195:\n        /* \"#utility.yul\":7534:7559   */\n      swap2\n      pop\n        /* \"#utility.yul\":7573:7593   */\n      tag_196\n        /* \"#utility.yul\":7591:7592   */\n      dup4\n        /* \"#utility.yul\":7573:7593   */\n      tag_100\n      jump\t// in\n    tag_196:\n        /* \"#utility.yul\":7568:7593   */\n      swap3\n      pop\n        /* \"#utility.yul\":7628:7629   */\n      dup3\n        /* \"#utility.yul\":7625:7626   */\n      dup3\n        /* \"#utility.yul\":7621:7630   */\n      mul\n        /* \"#utility.yul\":7650:7680   */\n      tag_197\n        /* \"#utility.yul\":7668:7679   */\n      dup2\n        /* \"#utility.yul\":7650:7680   */\n      tag_100\n      jump\t// in\n    tag_197:\n        /* \"#utility.yul\":7639:7680   */\n      swap2\n      pop\n        /* \"#utility.yul\":7829:7830   */\n      dup3\n        /* \"#utility.yul\":7820:7827   */\n      dup3\n        /* \"#utility.yul\":7816:7831   */\n      div\n        /* \"#utility.yul\":7813:7814   */\n      dup5\n        /* \"#utility.yul\":7810:7832   */\n      eq\n        /* \"#utility.yul\":7790:7791   */\n      dup4\n        /* \"#utility.yul\":7783:7792   */\n      iszero\n        /* \"#utility.yul\":7763:7846   */\n      or\n        /* \"#utility.yul\":7740:7879   */\n      tag_198\n      jumpi\n        /* \"#utility.yul\":7859:7877   */\n      tag_199\n      tag_115\n      jump\t// in\n    tag_199:\n        /* \"#utility.yul\":7740:7879   */\n    tag_198:\n        /* \"#utility.yul\":7524:7886   */\n      pop\n        /* \"#utility.yul\":7476:7886   */\n      swap3\n      swap2\n      pop\n      pop\n      jump\t// out\n        /* \"#utility.yul\":7892:8072   */\n    tag_116:\n        /* \"#utility.yul\":7940:8017   */\n      0x4e487b7100000000000000000000000000000000000000000000000000000000\n        /* \"#utility.yul\":7937:7938   */\n      0x00\n        /* \"#utility.yul\":7930:8018   */\n      mstore\n        /* \"#utility.yul\":8037:8041   */\n      0x12\n        /* \"#utility.yul\":8034:8035   */\n      0x04\n        /* \"#utility.yul\":8027:8042   */\n      mstore\n        /* \"#utility.yul\":8061:8065   */\n      0x24\n        /* \"#utility.yul\":8058:8059   */\n      0x00\n        /* \"#utility.yul\":8051:8066   */\n      revert\n        /* \"#utility.yul\":8078:8263   */\n    tag_75:\n        /* \"#utility.yul\":8118:8119   */\n      0x00\n        /* \"#utility.yul\":8135:8155   */\n      tag_202\n        /* \"#utility.yul\":8153:8154   */\n      dup3\n        /* \"#utility.yul\":8135:8155   */\n      tag_100\n      jump\t// in\n    tag_202:\n        /* \"#utility.yul\":8130:8155   */\n      swap2\n      pop\n        /* \"#utility.yul\":8169:8189   */\n      tag_203\n        /* \"#utility.yul\":8187:8188   */\n      dup4\n        /* \"#utility.yul\":8169:8189   */\n      tag_100\n      jump\t// in\n    tag_203:\n        /* \"#utility.yul\":8164:8189   */\n      swap3\n      pop\n        /* \"#utility.yul\":8208:8209   */\n      dup3\n        /* \"#utility.yul\":8198:8233   */\n      tag_204\n      jumpi\n        /* \"#utility.yul\":8213:8231   */\n      tag_205\n      tag_116\n      jump\t// in\n    tag_205:\n        /* \"#utility.yul\":8198:8233   */\n    tag_204:\n        /* \"#utility.yul\":8255:8256   */\n      dup3\n        /* \"#utility.yul\":8252:8253   */\n      dup3\n        /* \"#utility.yul\":8248:8257   */\n      div\n        /* \"#utility.yul\":8243:8257   */\n      swap1\n      pop\n        /* \"#utility.yul\":8078:8263   */\n      swap3\n      swap2\n      pop\n      pop\n      jump\t// out\n        /* \"#utility.yul\":8269:8374   */\n    tag_117:\n        /* \"#utility.yul\":8305:8312   */\n      0x00\n        /* \"#utility.yul\":8345:8367   */\n      0xffffffffffffffffffff\n        /* \"#utility.yul\":8338:8343   */\n      dup3\n        /* \"#utility.yul\":8334:8368   */\n      and\n        /* \"#utility.yul\":8323:8368   */\n      swap1\n      pop\n        /* \"#utility.yul\":8269:8374   */\n      swap2\n      swap1\n      pop\n      jump\t// out\n        /* \"#utility.yul\":8380:8500   */\n    tag_118:\n        /* \"#utility.yul\":8452:8475   */\n      tag_208\n        /* \"#utility.yul\":8469:8474   */\n      dup2\n        /* \"#utility.yul\":8452:8475   */\n      tag_117\n      jump\t// in\n    tag_208:\n        /* \"#utility.yul\":8445:8450   */\n      dup2\n        /* \"#utility.yul\":8442:8476   */\n      eq\n        /* \"#utility.yul\":8432:8494   */\n      tag_209\n      jumpi\n        /* \"#utility.yul\":8490:8491   */\n      0x00\n        /* \"#utility.yul\":8487:8488   */\n      dup1\n        /* \"#utility.yul\":8480:8492   */\n      revert\n        /* \"#utility.yul\":8432:8494   */\n    tag_209:\n        /* \"#utility.yul\":8380:8500   */\n      pop\n      jump\t// out\n        /* \"#utility.yul\":8506:8647   */\n    tag_119:\n        /* \"#utility.yul\":8562:8567   */\n      0x00\n        /* \"#utility.yul\":8593:8599   */\n      dup2\n        /* \"#utility.yul\":8587:8600   */\n      mload\n        /* \"#utility.yul\":8578:8600   */\n      swap1\n      pop\n        /* \"#utility.yul\":8609:8641   */\n      tag_211\n        /* \"#utility.yul\":8635:8640   */\n      dup2\n        /* \"#utility.yul\":8609:8641   */\n      tag_118\n      jump\t// in\n    tag_211:\n        /* \"#utility.yul\":8506:8647   */\n      swap3\n      swap2\n      pop\n      pop\n      jump\t// out\n        /* \"#utility.yul\":8653:8729   */\n    tag_120:\n        /* \"#utility.yul\":8689:8696   */\n      0x00\n        /* \"#utility.yul\":8718:8723   */\n      dup2\n        /* \"#utility.yul\":8707:8723   */\n      swap1\n      pop\n        /* \"#utility.yul\":8653:8729   */\n      swap2\n      swap1\n      pop\n      jump\t// out\n        /* \"#utility.yul\":8735:8855   */\n    tag_121:\n        /* \"#utility.yul\":8807:8830   */\n      tag_214\n        /* \"#utility.yul\":8824:8829   */\n      dup2\n        /* \"#utility.yul\":8807:8830   */\n      tag_120\n      jump\t// in\n    tag_214:\n        /* \"#utility.yul\":8800:8805   */\n      dup2\n        /* \"#utility.yul\":8797:8831   */\n      eq\n        /* \"#utility.yul\":8787:8849   */\n      tag_215\n      jumpi\n        /* \"#utility.yul\":8845:8846   */\n      0x00\n        /* \"#utility.yul\":8842:8843   */\n      dup1\n        /* \"#utility.yul\":8835:8847   */\n      revert\n        /* \"#utility.yul\":8787:8849   */\n    tag_215:\n        /* \"#utility.yul\":8735:8855   */\n      pop\n      jump\t// out\n        /* \"#utility.yul\":8861:9002   */\n    tag_122:\n        /* \"#utility.yul\":8917:8922   */\n      0x00\n        /* \"#utility.yul\":8948:8954   */\n      dup2\n        /* \"#utility.yul\":8942:8955   */\n      mload\n        /* \"#utility.yul\":8933:8955   */\n      swap1\n      pop\n        /* \"#utility.yul\":8964:8996   */\n      tag_217\n        /* \"#utility.yul\":8990:8995   */\n      dup2\n        /* \"#utility.yul\":8964:8996   */\n      tag_121\n      jump\t// in\n    tag_217:\n        /* \"#utility.yul\":8861:9002   */\n      swap3\n      swap2\n      pop\n      pop\n      jump\t// out\n        /* \"#utility.yul\":9008:9151   */\n    tag_123:\n        /* \"#utility.yul\":9065:9070   */\n      0x00\n        /* \"#utility.yul\":9096:9102   */\n      dup2\n        /* \"#utility.yul\":9090:9103   */\n      mload\n        /* \"#utility.yul\":9081:9103   */\n      swap1\n      pop\n        /* \"#utility.yul\":9112:9145   */\n      tag_219\n        /* \"#utility.yul\":9139:9144   */\n      dup2\n        /* \"#utility.yul\":9112:9145   */\n      tag_102\n      jump\t// in\n    tag_219:\n        /* \"#utility.yul\":9008:9151   */\n      swap3\n      swap2\n      pop\n      pop\n      jump\t// out\n        /* \"#utility.yul\":9157:10128   */\n    tag_80:\n        /* \"#utility.yul\":9260:9266   */\n      0x00\n        /* \"#utility.yul\":9268:9274   */\n      dup1\n        /* \"#utility.yul\":9276:9282   */\n      0x00\n        /* \"#utility.yul\":9284:9290   */\n      dup1\n        /* \"#utility.yul\":9292:9298   */\n      0x00\n        /* \"#utility.yul\":9341:9344   */\n      0xa0\n        /* \"#utility.yul\":9329:9338   */\n      dup7\n        /* \"#utility.yul\":9320:9327   */\n      dup9\n        /* \"#utility.yul\":9316:9339   */\n      sub\n        /* \"#utility.yul\":9312:9345   */\n      slt\n        /* \"#utility.yul\":9309:9429   */\n      iszero\n      tag_221\n      jumpi\n        /* \"#utility.yul\":9348:9427   */\n      tag_222\n      tag_94\n      jump\t// in\n    tag_222:\n        /* \"#utility.yul\":9309:9429   */\n    tag_221:\n        /* \"#utility.yul\":9468:9469   */\n      0x00\n        /* \"#utility.yul\":9493:9556   */\n      tag_223\n        /* \"#utility.yul\":9548:9555   */\n      dup9\n        /* \"#utility.yul\":9539:9545   */\n      dup3\n        /* \"#utility.yul\":9528:9537   */\n      dup10\n        /* \"#utility.yul\":9524:9546   */\n      add\n        /* \"#utility.yul\":9493:9556   */\n      tag_119\n      jump\t// in\n    tag_223:\n        /* \"#utility.yul\":9483:9556   */\n      swap6\n      pop\n        /* \"#utility.yul\":9439:9566   */\n      pop\n        /* \"#utility.yul\":9605:9607   */\n      0x20\n        /* \"#utility.yul\":9631:9694   */\n      tag_224\n        /* \"#utility.yul\":9686:9693   */\n      dup9\n        /* \"#utility.yul\":9677:9683   */\n      dup3\n        /* \"#utility.yul\":9666:9675   */\n      dup10\n        /* \"#utility.yul\":9662:9684   */\n      add\n        /* \"#utility.yul\":9631:9694   */\n      tag_122\n      jump\t// in\n    tag_224:\n        /* \"#utility.yul\":9621:9694   */\n      swap5\n      pop\n        /* \"#utility.yul\":9576:9704   */\n      pop\n        /* \"#utility.yul\":9743:9745   */\n      0x40\n        /* \"#utility.yul\":9769:9833   */\n      tag_225\n        /* \"#utility.yul\":9825:9832   */\n      dup9\n        /* \"#utility.yul\":9816:9822   */\n      dup3\n        /* \"#utility.yul\":9805:9814   */\n      dup10\n        /* \"#utility.yul\":9801:9823   */\n      add\n        /* \"#utility.yul\":9769:9833   */\n      tag_123\n      jump\t// in\n    tag_225:\n        /* \"#utility.yul\":9759:9833   */\n      swap4\n      pop\n        /* \"#utility.yul\":9714:9843   */\n      pop\n        /* \"#utility.yul\":9882:9884   */\n      0x60\n        /* \"#utility.yul\":9908:9972   */\n      tag_226\n        /* \"#utility.yul\":9964:9971   */\n      dup9\n        /* \"#utility.yul\":9955:9961   */\n      dup3\n        /* \"#utility.yul\":9944:9953   */\n      dup10\n        /* \"#utility.yul\":9940:9962   */\n      add\n        /* \"#utility.yul\":9908:9972   */\n      tag_123\n      jump\t// in\n    tag_226:\n        /* \"#utility.yul\":9898:9972   */\n      swap3\n      pop\n        /* \"#utility.yul\":9853:9982   */\n      pop\n        /* \"#utility.yul\":10021:10024   */\n      0x80\n        /* \"#utility.yul\":10048:10111   */\n      tag_227\n        /* \"#utility.yul\":10103:10110   */\n      dup9\n        /* \"#utility.yul\":10094:10100   */\n      dup3\n        /* \"#utility.yul\":10083:10092   */\n      dup10\n        /* \"#utility.yul\":10079:10101   */\n      add\n        /* \"#utility.yul\":10048:10111   */\n      tag_119\n      jump\t// in\n    tag_227:\n        /* \"#utility.yul\":10038:10111   */\n      swap2\n      pop\n        /* \"#utility.yul\":9992:10121   */\n      pop\n        /* \"#utility.yul\":9157:10128   */\n      swap3\n      swap6\n      pop\n      swap3\n      swap6\n      swap1\n      swap4\n      pop\n      jump\t// out\n        /* \"#utility.yul\":10134:10312   */\n    tag_124:\n        /* \"#utility.yul\":10274:10304   */\n      0x4e65676174697665207072696365206e6f7420737570706f7274656400000000\n        /* \"#utility.yul\":10270:10271   */\n      0x00\n        /* \"#utility.yul\":10262:10268   */\n      dup3\n        /* \"#utility.yul\":10258:10272   */\n      add\n        /* \"#utility.yul\":10251:10305   */\n      mstore\n        /* \"#utility.yul\":10134:10312   */\n      pop\n      jump\t// out\n        /* \"#utility.yul\":10318:10684   */\n    tag_125:\n        /* \"#utility.yul\":10460:10463   */\n      0x00\n        /* \"#utility.yul\":10481:10548   */\n      tag_230\n        /* \"#utility.yul\":10545:10547   */\n      0x1c\n        /* \"#utility.yul\":10540:10543   */\n      dup4\n        /* \"#utility.yul\":10481:10548   */\n      tag_105\n      jump\t// in\n    tag_230:\n        /* \"#utility.yul\":10474:10548   */\n      swap2\n      pop\n        /* \"#utility.yul\":10557:10650   */\n      tag_231\n        /* \"#utility.yul\":10646:10649   */\n      dup3\n        /* \"#utility.yul\":10557:10650   */\n      tag_124\n      jump\t// in\n    tag_231:\n        /* \"#utility.yul\":10675:10677   */\n      0x20\n        /* \"#utility.yul\":10670:10673   */\n      dup3\n        /* \"#utility.yul\":10666:10678   */\n      add\n        /* \"#utility.yul\":10659:10678   */\n      swap1\n      pop\n        /* \"#utility.yul\":10318:10684   */\n      swap2\n      swap1\n      pop\n      jump\t// out\n        /* \"#utility.yul\":10690:11109   */\n    tag_83:\n        /* \"#utility.yul\":10856:10860   */\n      0x00\n        /* \"#utility.yul\":10894:10896   */\n      0x20\n        /* \"#utility.yul\":10883:10892   */\n      dup3\n        /* \"#utility.yul\":10879:10897   */\n      add\n        /* \"#utility.yul\":10871:10897   */\n      swap1\n      pop\n        /* \"#utility.yul\":10943:10952   */\n      dup2\n        /* \"#utility.yul\":10937:10941   */\n      dup2\n        /* \"#utility.yul\":10933:10953   */\n      sub\n        /* \"#utility.yul\":10929:10930   */\n      0x00\n        /* \"#utility.yul\":10918:10927   */\n      dup4\n        /* \"#utility.yul\":10914:10931   */\n      add\n        /* \"#utility.yul\":10907:10954   */\n      mstore\n        /* \"#utility.yul\":10971:11102   */\n      tag_233\n        /* \"#utility.yul\":11097:11101   */\n      dup2\n        /* \"#utility.yul\":10971:11102   */\n      tag_125\n      jump\t// in\n    tag_233:\n        /* \"#utility.yul\":10963:11102   */\n      swap1\n      pop\n        /* \"#utility.yul\":10690:11109   */\n      swap2\n      swap1\n      pop\n      jump\t// out\n        /* \"#utility.yul\":11115:11671   */\n    tag_85:\n        /* \"#utility.yul\":11154:11161   */\n      0x00\n        /* \"#utility.yul\":11177:11196   */\n      tag_235\n        /* \"#utility.yul\":11194:11195   */\n      dup3\n        /* \"#utility.yul\":11177:11196   */\n      tag_120\n      jump\t// in\n    tag_235:\n        /* \"#utility.yul\":11172:11196   */\n      swap2\n      pop\n        /* \"#utility.yul\":11210:11229   */\n      tag_236\n        /* \"#utility.yul\":11227:11228   */\n      dup4\n        /* \"#utility.yul\":11210:11229   */\n      tag_120\n      jump\t// in\n    tag_236:\n        /* \"#utility.yul\":11205:11229   */\n      swap3\n      pop\n        /* \"#utility.yul\":11264:11265   */\n      dup3\n        /* \"#utility.yul\":11261:11262   */\n      dup3\n        /* \"#utility.yul\":11257:11266   */\n      mul\n        /* \"#utility.yul\":11286:11315   */\n      tag_237\n        /* \"#utility.yul\":11303:11314   */\n      dup2\n        /* \"#utility.yul\":11286:11315   */\n      tag_120\n      jump\t// in\n    tag_237:\n        /* \"#utility.yul\":11275:11315   */\n      swap2\n      pop\n        /* \"#utility.yul\":11373:11439   */\n      0x8000000000000000000000000000000000000000000000000000000000000000\n        /* \"#utility.yul\":11370:11371   */\n      dup5\n        /* \"#utility.yul\":11367:11440   */\n      eq\n        /* \"#utility.yul\":11363:11364   */\n      0x00\n        /* \"#utility.yul\":11360:11361   */\n      dup5\n        /* \"#utility.yul\":11356:11365   */\n      slt\n        /* \"#utility.yul\":11352:11441   */\n      and\n        /* \"#utility.yul\":11349:11464   */\n      iszero\n      tag_238\n      jumpi\n        /* \"#utility.yul\":11444:11462   */\n      tag_239\n      tag_115\n      jump\t// in\n    tag_239:\n        /* \"#utility.yul\":11349:11464   */\n    tag_238:\n        /* \"#utility.yul\":11614:11615   */\n      dup3\n        /* \"#utility.yul\":11605:11612   */\n      dup3\n        /* \"#utility.yul\":11600:11616   */\n      sdiv\n        /* \"#utility.yul\":11597:11598   */\n      dup5\n        /* \"#utility.yul\":11594:11617   */\n      eq\n        /* \"#utility.yul\":11574:11575   */\n      dup4\n        /* \"#utility.yul\":11567:11576   */\n      iszero\n        /* \"#utility.yul\":11547:11631   */\n      or\n        /* \"#utility.yul\":11524:11664   */\n      tag_240\n      jumpi\n        /* \"#utility.yul\":11644:11662   */\n      tag_241\n      tag_115\n      jump\t// in\n    tag_241:\n        /* \"#utility.yul\":11524:11664   */\n    tag_240:\n        /* \"#utility.yul\":11162:11671   */\n      pop\n        /* \"#utility.yul\":11115:11671   */\n      swap3\n      swap2\n      pop\n      pop\n      jump\t// out\n\n    auxdata: 0xa2646970667358221220a1429450e18a42e76c9ee7773dc0d4da353858fbae8dd4a988b8de29109f8f9164736f6c63430008180033\n}\n",
				"bytecode": {
					"linkReferences": {},
					"object": "6080604052674563918244f400005f5573694aa1769357215de4fac081bf1f309adc32530660015f6101000a81548173ffffffffffffffffffffffffffffffffffffffff021916908373ffffffffffffffffffffffffffffffffffffffff16021790555034801561006e575f80fd5b50610cb58061007c5f395ff3fe608060405260043610610049575f3560e01c80633ccfd60b1461004d5780633e47d6f31461006357806351b80e411461009f578063b60d4288146100c9578063dc0d3dff146100d3575b5f80fd5b348015610058575f80fd5b5061006161010f565b005b34801561006e575f80fd5b50610089600480360381019061008491906106ea565b610374565b604051610096919061072d565b60405180910390f35b3480156100aa575f80fd5b506100b3610389565b6040516100c0919061072d565b60405180910390f35b6100d161038e565b005b3480156100de575f80fd5b506100f960048036038101906100f49190610770565b61048f565b60405161010691906107aa565b60405180910390f35b5f5b6002805490508110156101ad575f60028281548110610133576101326107c3565b5b905f5260205f20015f9054906101000a900473ffffffffffffffffffffffffffffffffffffffff1690505f60035f8373ffffffffffffffffffffffffffffffffffffffff1673ffffffffffffffffffffffffffffffffffffffff1681526020019081526020015f2081905550508080600101915050610111565b505f67ffffffffffffffff8111156101c8576101c76107f0565b5b6040519080825280602002602001820160405280156101f65781602001602082028036833780820191505090505b506002908051906020019061020c9291906105ea565b503373ffffffffffffffffffffffffffffffffffffffff166108fc4790811502906040515f60405180830381858888f19350505050158015610250573d5f803e3d5ffd5b505f3373ffffffffffffffffffffffffffffffffffffffff166108fc4790811502906040515f60405180830381858888f193505050509050806102c8576040517f08c379a00000000000000000000000000000000000000000000000000000000081526004016102bf90610877565b60405180910390fd5b5f3373ffffffffffffffffffffffffffffffffffffffff16476040516102ed906108c2565b5f6040518083038185875af1925050503d805f8114610327576040519150601f19603f3d011682016040523d82523d5f602084013e61032c565b606091505b5050905080610370576040517f08c379a000000000000000000000000000000000000000000000000000000000815260040161036790610920565b60405180910390fd5b5050565b6003602052805f5260405f205f915090505481565b5f5481565b5f54610399346104ca565b10156103da576040517f08c379a00000000000000000000000000000000000000000000000000000000081526004016103d190610988565b60405180910390fd5b600233908060018154018082558091505060019003905f5260205f20015f9091909190916101000a81548173ffffffffffffffffffffffffffffffffffffffff021916908373ffffffffffffffffffffffffffffffffffffffff1602179055503460035f3373ffffffffffffffffffffffffffffffffffffffff1673ffffffffffffffffffffffffffffffffffffffff1681526020019081526020015f205f82825461048691906109d3565b92505081905550565b6002818154811061049e575f80fd5b905f5260205f20015f915054906101000a900473ffffffffffffffffffffffffffffffffffffffff1681565b5f806104d4610502565b90505f670de0b6b3a764000084836104ec9190610a06565b6104f69190610a74565b90508092505050919050565b5f8073694aa1769357215de4fac081bf1f309adc32530690505f8173ffffffffffffffffffffffffffffffffffffffff1663feaf968c6040518163ffffffff1660e01b815260040160a060405180830381865afa158015610565573d5f803e3d5ffd5b505050506040513d601f19601f820116820180604052508101906105899190610b2a565b5050509150505f8112156105d2576040517f08c379a00000000000000000000000000000000000000000000000000000000081526004016105c990610beb565b60405180910390fd5b6402540be400816105e39190610c09565b9250505090565b828054828255905f5260205f20908101928215610660579160200282015b8281111561065f578251825f6101000a81548173ffffffffffffffffffffffffffffffffffffffff021916908373ffffffffffffffffffffffffffffffffffffffff16021790555091602001919060010190610608565b5b50905061066d9190610671565b5090565b5b80821115610688575f815f905550600101610672565b5090565b5f80fd5b5f73ffffffffffffffffffffffffffffffffffffffff82169050919050565b5f6106b982610690565b9050919050565b6106c9816106af565b81146106d3575f80fd5b50565b5f813590506106e4816106c0565b92915050565b5f602082840312156106ff576106fe61068c565b5b5f61070c848285016106d6565b91505092915050565b5f819050919050565b61072781610715565b82525050565b5f6020820190506107405f83018461071e565b92915050565b61074f81610715565b8114610759575f80fd5b50565b5f8135905061076a81610746565b92915050565b5f602082840312156107855761078461068c565b5b5f6107928482850161075c565b91505092915050565b6107a4816106af565b82525050565b5f6020820190506107bd5f83018461079b565b92915050565b7f4e487b71000000000000000000000000000000000000000000000000000000005f52603260045260245ffd5b7f4e487b71000000000000000000000000000000000000000000000000000000005f52604160045260245ffd5b5f82825260208201905092915050565b7f53656e64206661696c65642121212121000000000000000000000000000000005f82015250565b5f61086160108361081d565b915061086c8261082d565b602082019050919050565b5f6020820190508181035f83015261088e81610855565b9050919050565b5f81905092915050565b50565b5f6108ad5f83610895565b91506108b88261089f565b5f82019050919050565b5f6108cc826108a2565b9150819050919050565b7f43616c6c206661696c65642121212121000000000000000000000000000000005f82015250565b5f61090a60108361081d565b9150610915826108d6565b602082019050919050565b5f6020820190508181035f830152610937816108fe565b9050919050565b7f6469646e27742073656e6420656e6f75676820455448000000000000000000005f82015250565b5f61097260168361081d565b915061097d8261093e565b602082019050919050565b5f6020820190508181035f83015261099f81610966565b9050919050565b7f4e487b71000000000000000000000000000000000000000000000000000000005f52601160045260245ffd5b5f6109dd82610715565b91506109e883610715565b9250828201905080821115610a00576109ff6109a6565b5b92915050565b5f610a1082610715565b9150610a1b83610715565b9250828202610a2981610715565b91508282048414831517610a4057610a3f6109a6565b5b5092915050565b7f4e487b71000000000000000000000000000000000000000000000000000000005f52601260045260245ffd5b5f610a7e82610715565b9150610a8983610715565b925082610a9957610a98610a47565b5b828204905092915050565b5f69ffffffffffffffffffff82169050919050565b610ac281610aa4565b8114610acc575f80fd5b50565b5f81519050610add81610ab9565b92915050565b5f819050919050565b610af581610ae3565b8114610aff575f80fd5b50565b5f81519050610b1081610aec565b92915050565b5f81519050610b2481610746565b92915050565b5f805f805f60a08688031215610b4357610b4261068c565b5b5f610b5088828901610acf565b9550506020610b6188828901610b02565b9450506040610b7288828901610b16565b9350506060610b8388828901610b16565b9250506080610b9488828901610acf565b9150509295509295909350565b7f4e65676174697665207072696365206e6f7420737570706f72746564000000005f82015250565b5f610bd5601c8361081d565b9150610be082610ba1565b602082019050919050565b5f6020820190508181035f830152610c0281610bc9565b9050919050565b5f610c1382610ae3565b9150610c1e83610ae3565b9250828202610c2c81610ae3565b91507f800000000000000000000000000000000000000000000000000000000000000084145f84121615610c6357610c626109a6565b5b8282058414831517610c7857610c776109a6565b5b509291505056fea2646970667358221220a1429450e18a42e76c9ee7773dc0d4da353858fbae8dd4a988b8de29109f8f9164736f6c63430008180033",
					"opcodes": "PUSH1 0x80 PUSH1 0x40 MSTORE PUSH8 0x4563918244F40000 PUSH0 SSTORE PUSH20 0x694AA1769357215DE4FAC081BF1F309ADC325306 PUSH1 0x1 PUSH0 PUSH2 0x100 EXP DUP2 SLOAD DUP2 PUSH20 0xFFFFFFFFFFFFFFFFFFFFFFFFFFFFFFFFFFFFFFFF MUL NOT AND SWAP1 DUP4 PUSH20 0xFFFFFFFFFFFFFFFFFFFFFFFFFFFFFFFFFFFFFFFF AND MUL OR SWAP1 SSTORE POP CALLVALUE DUP1 ISZERO PUSH2 0x6E JUMPI PUSH0 DUP1 REVERT JUMPDEST POP PUSH2 0xCB5 DUP1 PUSH2 0x7C PUSH0 CODECOPY PUSH0 RETURN INVALID PUSH1 0x80 PUSH1 0x40 MSTORE PUSH1 0x4 CALLDATASIZE LT PUSH2 0x49 JUMPI PUSH0 CALLDATALOAD PUSH1 0xE0 SHR DUP1 PUSH4 0x3CCFD60B EQ PUSH2 0x4D JUMPI DUP1 PUSH4 0x3E47D6F3 EQ PUSH2 0x63 JUMPI DUP1 PUSH4 0x51B80E41 EQ PUSH2 0x9F JUMPI DUP1 PUSH4 0xB60D4288 EQ PUSH2 0xC9 JUMPI DUP1 PUSH4 0xDC0D3DFF EQ PUSH2 0xD3 JUMPI JUMPDEST PUSH0 DUP1 REVERT JUMPDEST CALLVALUE DUP1 ISZERO PUSH2 0x58 JUMPI PUSH0 DUP1 REVERT JUMPDEST POP PUSH2 0x61 PUSH2 0x10F JUMP JUMPDEST STOP JUMPDEST CALLVALUE DUP1 ISZERO PUSH2 0x6E JUMPI PUSH0 DUP1 REVERT JUMPDEST POP PUSH2 0x89 PUSH1 0x4 DUP1 CALLDATASIZE SUB DUP2 ADD SWAP1 PUSH2 0x84 SWAP2 SWAP1 PUSH2 0x6EA JUMP JUMPDEST PUSH2 0x374 JUMP JUMPDEST PUSH1 0x40 MLOAD PUSH2 0x96 SWAP2 SWAP1 PUSH2 0x72D JUMP JUMPDEST PUSH1 0x40 MLOAD DUP1 SWAP2 SUB SWAP1 RETURN JUMPDEST CALLVALUE DUP1 ISZERO PUSH2 0xAA JUMPI PUSH0 DUP1 REVERT JUMPDEST POP PUSH2 0xB3 PUSH2 0x389 JUMP JUMPDEST PUSH1 0x40 MLOAD PUSH2 0xC0 SWAP2 SWAP1 PUSH2 0x72D JUMP JUMPDEST PUSH1 0x40 MLOAD DUP1 SWAP2 SUB SWAP1 RETURN JUMPDEST PUSH2 0xD1 PUSH2 0x38E JUMP JUMPDEST STOP JUMPDEST CALLVALUE DUP1 ISZERO PUSH2 0xDE JUMPI PUSH0 DUP1 REVERT JUMPDEST POP PUSH2 0xF9 PUSH1 0x4 DUP1 CALLDATASIZE SUB DUP2 ADD SWAP1 PUSH2 0xF4 SWAP2 SWAP1 PUSH2 0x770 JUMP JUMPDEST PUSH2 0x48F JUMP JUMPDEST PUSH1 0x40 MLOAD PUSH2 0x106 SWAP2 SWAP1 PUSH2 0x7AA JUMP JUMPDEST PUSH1 0x40 MLOAD DUP1 SWAP2 SUB SWAP1 RETURN JUMPDEST PUSH0 JUMPDEST PUSH1 0x2 DUP1 SLOAD SWAP1 POP DUP2 LT ISZERO PUSH2 0x1AD JUMPI PUSH0 PUSH1 0x2 DUP3 DUP2 SLOAD DUP2 LT PUSH2 0x133 JUMPI PUSH2 0x132 PUSH2 0x7C3 JUMP JUMPDEST JUMPDEST SWAP1 PUSH0 MSTORE PUSH1 0x20 PUSH0 KECCAK256 ADD PUSH0 SWAP1 SLOAD SWAP1 PUSH2 0x100 EXP SWAP1 DIV PUSH20 0xFFFFFFFFFFFFFFFFFFFFFFFFFFFFFFFFFFFFFFFF AND SWAP1 POP PUSH0 PUSH1 0x3 PUSH0 DUP4 PUSH20 0xFFFFFFFFFFFFFFFFFFFFFFFFFFFFFFFFFFFFFFFF AND PUSH20 0xFFFFFFFFFFFFFFFFFFFFFFFFFFFFFFFFFFFFFFFF AND DUP2 MSTORE PUSH1 0x20 ADD SWAP1 DUP2 MSTORE PUSH1 0x20 ADD PUSH0 KECCAK256 DUP2 SWAP1 SSTORE POP POP DUP1 DUP1 PUSH1 0x1 ADD SWAP2 POP POP PUSH2 0x111 JUMP JUMPDEST POP PUSH0 PUSH8 0xFFFFFFFFFFFFFFFF DUP2 GT ISZERO PUSH2 0x1C8 JUMPI PUSH2 0x1C7 PUSH2 0x7F0 JUMP JUMPDEST JUMPDEST PUSH1 0x40 MLOAD SWAP1 DUP1 DUP3 MSTORE DUP1 PUSH1 0x20 MUL PUSH1 0x20 ADD DUP3 ADD PUSH1 0x40 MSTORE DUP1 ISZERO PUSH2 0x1F6 JUMPI DUP2 PUSH1 0x20 ADD PUSH1 0x20 DUP3 MUL DUP1 CALLDATASIZE DUP4 CALLDATACOPY DUP1 DUP3 ADD SWAP2 POP POP SWAP1 POP JUMPDEST POP PUSH1 0x2 SWAP1 DUP1 MLOAD SWAP1 PUSH1 0x20 ADD SWAP1 PUSH2 0x20C SWAP3 SWAP2 SWAP1 PUSH2 0x5EA JUMP JUMPDEST POP CALLER PUSH20 0xFFFFFFFFFFFFFFFFFFFFFFFFFFFFFFFFFFFFFFFF AND PUSH2 0x8FC SELFBALANCE SWAP1 DUP2 ISZERO MUL SWAP1 PUSH1 0x40 MLOAD PUSH0 PUSH1 0x40 MLOAD DUP1 DUP4 SUB DUP2 DUP6 DUP9 DUP9 CALL SWAP4 POP POP POP POP ISZERO DUP1 ISZERO PUSH2 0x250 JUMPI RETURNDATASIZE PUSH0 DUP1 RETURNDATACOPY RETURNDATASIZE PUSH0 REVERT JUMPDEST POP PUSH0 CALLER PUSH20 0xFFFFFFFFFFFFFFFFFFFFFFFFFFFFFFFFFFFFFFFF AND PUSH2 0x8FC SELFBALANCE SWAP1 DUP2 ISZERO MUL SWAP1 PUSH1 0x40 MLOAD PUSH0 PUSH1 0x40 MLOAD DUP1 DUP4 SUB DUP2 DUP6 DUP9 DUP9 CALL SWAP4 POP POP POP POP SWAP1 POP DUP1 PUSH2 0x2C8 JUMPI PUSH1 0x40 MLOAD PUSH32 0x8C379A000000000000000000000000000000000000000000000000000000000 DUP2 MSTORE PUSH1 0x4 ADD PUSH2 0x2BF SWAP1 PUSH2 0x877 JUMP JUMPDEST PUSH1 0x40 MLOAD DUP1 SWAP2 SUB SWAP1 REVERT JUMPDEST PUSH0 CALLER PUSH20 0xFFFFFFFFFFFFFFFFFFFFFFFFFFFFFFFFFFFFFFFF AND SELFBALANCE PUSH1 0x40 MLOAD PUSH2 0x2ED SWAP1 PUSH2 0x8C2 JUMP JUMPDEST PUSH0 PUSH1 0x40 MLOAD DUP1 DUP4 SUB DUP2 DUP6 DUP8 GAS CALL SWAP3 POP POP POP RETURNDATASIZE DUP1 PUSH0 DUP2 EQ PUSH2 0x327 JUMPI PUSH1 0x40 MLOAD SWAP2 POP PUSH1 0x1F NOT PUSH1 0x3F RETURNDATASIZE ADD AND DUP3 ADD PUSH1 0x40 MSTORE RETURNDATASIZE DUP3 MSTORE RETURNDATASIZE PUSH0 PUSH1 0x20 DUP5 ADD RETURNDATACOPY PUSH2 0x32C JUMP JUMPDEST PUSH1 0x60 SWAP2 POP JUMPDEST POP POP SWAP1 POP DUP1 PUSH2 0x370 JUMPI PUSH1 0x40 MLOAD PUSH32 0x8C379A000000000000000000000000000000000000000000000000000000000 DUP2 MSTORE PUSH1 0x4 ADD PUSH2 0x367 SWAP1 PUSH2 0x920 JUMP JUMPDEST PUSH1 0x40 MLOAD DUP1 SWAP2 SUB SWAP1 REVERT JUMPDEST POP POP JUMP JUMPDEST PUSH1 0x3 PUSH1 0x20 MSTORE DUP1 PUSH0 MSTORE PUSH1 0x40 PUSH0 KECCAK256 PUSH0 SWAP2 POP SWAP1 POP SLOAD DUP2 JUMP JUMPDEST PUSH0 SLOAD DUP2 JUMP JUMPDEST PUSH0 SLOAD PUSH2 0x399 CALLVALUE PUSH2 0x4CA JUMP JUMPDEST LT ISZERO PUSH2 0x3DA JUMPI PUSH1 0x40 MLOAD PUSH32 0x8C379A000000000000000000000000000000000000000000000000000000000 DUP2 MSTORE PUSH1 0x4 ADD PUSH2 0x3D1 SWAP1 PUSH2 0x988 JUMP JUMPDEST PUSH1 0x40 MLOAD DUP1 SWAP2 SUB SWAP1 REVERT JUMPDEST PUSH1 0x2 CALLER SWAP1 DUP1 PUSH1 0x1 DUP2 SLOAD ADD DUP1 DUP3 SSTORE DUP1 SWAP2 POP POP PUSH1 0x1 SWAP1 SUB SWAP1 PUSH0 MSTORE PUSH1 0x20 PUSH0 KECCAK256 ADD PUSH0 SWAP1 SWAP2 SWAP1 SWAP2 SWAP1 SWAP2 PUSH2 0x100 EXP DUP2 SLOAD DUP2 PUSH20 0xFFFFFFFFFFFFFFFFFFFFFFFFFFFFFFFFFFFFFFFF MUL NOT AND SWAP1 DUP4 PUSH20 0xFFFFFFFFFFFFFFFFFFFFFFFFFFFFFFFFFFFFFFFF AND MUL OR SWAP1 SSTORE POP CALLVALUE PUSH1 0x3 PUSH0 CALLER PUSH20 0xFFFFFFFFFFFFFFFFFFFFFFFFFFFFFFFFFFFFFFFF AND PUSH20 0xFFFFFFFFFFFFFFFFFFFFFFFFFFFFFFFFFFFFFFFF AND DUP2 MSTORE PUSH1 0x20 ADD SWAP1 DUP2 MSTORE PUSH1 0x20 ADD PUSH0 KECCAK256 PUSH0 DUP3 DUP3 SLOAD PUSH2 0x486 SWAP2 SWAP1 PUSH2 0x9D3 JUMP JUMPDEST SWAP3 POP POP DUP2 SWAP1 SSTORE POP JUMP JUMPDEST PUSH1 0x2 DUP2 DUP2 SLOAD DUP2 LT PUSH2 0x49E JUMPI PUSH0 DUP1 REVERT JUMPDEST SWAP1 PUSH0 MSTORE PUSH1 0x20 PUSH0 KECCAK256 ADD PUSH0 SWAP2 POP SLOAD SWAP1 PUSH2 0x100 EXP SWAP1 DIV PUSH20 0xFFFFFFFFFFFFFFFFFFFFFFFFFFFFFFFFFFFFFFFF AND DUP2 JUMP JUMPDEST PUSH0 DUP1 PUSH2 0x4D4 PUSH2 0x502 JUMP JUMPDEST SWAP1 POP PUSH0 PUSH8 0xDE0B6B3A7640000 DUP5 DUP4 PUSH2 0x4EC SWAP2 SWAP1 PUSH2 0xA06 JUMP JUMPDEST PUSH2 0x4F6 SWAP2 SWAP1 PUSH2 0xA74 JUMP JUMPDEST SWAP1 POP DUP1 SWAP3 POP POP POP SWAP2 SWAP1 POP JUMP JUMPDEST PUSH0 DUP1 PUSH20 0x694AA1769357215DE4FAC081BF1F309ADC325306 SWAP1 POP PUSH0 DUP2 PUSH20 0xFFFFFFFFFFFFFFFFFFFFFFFFFFFFFFFFFFFFFFFF AND PUSH4 0xFEAF968C PUSH1 0x40 MLOAD DUP2 PUSH4 0xFFFFFFFF AND PUSH1 0xE0 SHL DUP2 MSTORE PUSH1 0x4 ADD PUSH1 0xA0 PUSH1 0x40 MLOAD DUP1 DUP4 SUB DUP2 DUP7 GAS STATICCALL ISZERO DUP1 ISZERO PUSH2 0x565 JUMPI RETURNDATASIZE PUSH0 DUP1 RETURNDATACOPY RETURNDATASIZE PUSH0 REVERT JUMPDEST POP POP POP POP PUSH1 0x40 MLOAD RETURNDATASIZE PUSH1 0x1F NOT PUSH1 0x1F DUP3 ADD AND DUP3 ADD DUP1 PUSH1 0x40 MSTORE POP DUP2 ADD SWAP1 PUSH2 0x589 SWAP2 SWAP1 PUSH2 0xB2A JUMP JUMPDEST POP POP POP SWAP2 POP POP PUSH0 DUP2 SLT ISZERO PUSH2 0x5D2 JUMPI PUSH1 0x40 MLOAD PUSH32 0x8C379A000000000000000000000000000000000000000000000000000000000 DUP2 MSTORE PUSH1 0x4 ADD PUSH2 0x5C9 SWAP1 PUSH2 0xBEB JUMP JUMPDEST PUSH1 0x40 MLOAD DUP1 SWAP2 SUB SWAP1 REVERT JUMPDEST PUSH5 0x2540BE400 DUP2 PUSH2 0x5E3 SWAP2 SWAP1 PUSH2 0xC09 JUMP JUMPDEST SWAP3 POP POP POP SWAP1 JUMP JUMPDEST DUP3 DUP1 SLOAD DUP3 DUP3 SSTORE SWAP1 PUSH0 MSTORE PUSH1 0x20 PUSH0 KECCAK256 SWAP1 DUP2 ADD SWAP3 DUP3 ISZERO PUSH2 0x660 JUMPI SWAP2 PUSH1 0x20 MUL DUP3 ADD JUMPDEST DUP3 DUP2 GT ISZERO PUSH2 0x65F JUMPI DUP3 MLOAD DUP3 PUSH0 PUSH2 0x100 EXP DUP2 SLOAD DUP2 PUSH20 0xFFFFFFFFFFFFFFFFFFFFFFFFFFFFFFFFFFFFFFFF MUL NOT AND SWAP1 DUP4 PUSH20 0xFFFFFFFFFFFFFFFFFFFFFFFFFFFFFFFFFFFFFFFF AND MUL OR SWAP1 SSTORE POP SWAP2 PUSH1 0x20 ADD SWAP2 SWAP1 PUSH1 0x1 ADD SWAP1 PUSH2 0x608 JUMP JUMPDEST JUMPDEST POP SWAP1 POP PUSH2 0x66D SWAP2 SWAP1 PUSH2 0x671 JUMP JUMPDEST POP SWAP1 JUMP JUMPDEST JUMPDEST DUP1 DUP3 GT ISZERO PUSH2 0x688 JUMPI PUSH0 DUP2 PUSH0 SWAP1 SSTORE POP PUSH1 0x1 ADD PUSH2 0x672 JUMP JUMPDEST POP SWAP1 JUMP JUMPDEST PUSH0 DUP1 REVERT JUMPDEST PUSH0 PUSH20 0xFFFFFFFFFFFFFFFFFFFFFFFFFFFFFFFFFFFFFFFF DUP3 AND SWAP1 POP SWAP2 SWAP1 POP JUMP JUMPDEST PUSH0 PUSH2 0x6B9 DUP3 PUSH2 0x690 JUMP JUMPDEST SWAP1 POP SWAP2 SWAP1 POP JUMP JUMPDEST PUSH2 0x6C9 DUP2 PUSH2 0x6AF JUMP JUMPDEST DUP2 EQ PUSH2 0x6D3 JUMPI PUSH0 DUP1 REVERT JUMPDEST POP JUMP JUMPDEST PUSH0 DUP2 CALLDATALOAD SWAP1 POP PUSH2 0x6E4 DUP2 PUSH2 0x6C0 JUMP JUMPDEST SWAP3 SWAP2 POP POP JUMP JUMPDEST PUSH0 PUSH1 0x20 DUP3 DUP5 SUB SLT ISZERO PUSH2 0x6FF JUMPI PUSH2 0x6FE PUSH2 0x68C JUMP JUMPDEST JUMPDEST PUSH0 PUSH2 0x70C DUP5 DUP3 DUP6 ADD PUSH2 0x6D6 JUMP JUMPDEST SWAP2 POP POP SWAP3 SWAP2 POP POP JUMP JUMPDEST PUSH0 DUP2 SWAP1 POP SWAP2 SWAP1 POP JUMP JUMPDEST PUSH2 0x727 DUP2 PUSH2 0x715 JUMP JUMPDEST DUP3 MSTORE POP POP JUMP JUMPDEST PUSH0 PUSH1 0x20 DUP3 ADD SWAP1 POP PUSH2 0x740 PUSH0 DUP4 ADD DUP5 PUSH2 0x71E JUMP JUMPDEST SWAP3 SWAP2 POP POP JUMP JUMPDEST PUSH2 0x74F DUP2 PUSH2 0x715 JUMP JUMPDEST DUP2 EQ PUSH2 0x759 JUMPI PUSH0 DUP1 REVERT JUMPDEST POP JUMP JUMPDEST PUSH0 DUP2 CALLDATALOAD SWAP1 POP PUSH2 0x76A DUP2 PUSH2 0x746 JUMP JUMPDEST SWAP3 SWAP2 POP POP JUMP JUMPDEST PUSH0 PUSH1 0x20 DUP3 DUP5 SUB SLT ISZERO PUSH2 0x785 JUMPI PUSH2 0x784 PUSH2 0x68C JUMP JUMPDEST JUMPDEST PUSH0 PUSH2 0x792 DUP5 DUP3 DUP6 ADD PUSH2 0x75C JUMP JUMPDEST SWAP2 POP POP SWAP3 SWAP2 POP POP JUMP JUMPDEST PUSH2 0x7A4 DUP2 PUSH2 0x6AF JUMP JUMPDEST DUP3 MSTORE POP POP JUMP JUMPDEST PUSH0 PUSH1 0x20 DUP3 ADD SWAP1 POP PUSH2 0x7BD PUSH0 DUP4 ADD DUP5 PUSH2 0x79B JUMP JUMPDEST SWAP3 SWAP2 POP POP JUMP JUMPDEST PUSH32 0x4E487B7100000000000000000000000000000000000000000000000000000000 PUSH0 MSTORE PUSH1 0x32 PUSH1 0x4 MSTORE PUSH1 0x24 PUSH0 REVERT JUMPDEST PUSH32 0x4E487B7100000000000000000000000000000000000000000000000000000000 PUSH0 MSTORE PUSH1 0x41 PUSH1 0x4 MSTORE PUSH1 0x24 PUSH0 REVERT JUMPDEST PUSH0 DUP3 DUP3 MSTORE PUSH1 0x20 DUP3 ADD SWAP1 POP SWAP3 SWAP2 POP POP JUMP JUMPDEST PUSH32 0x53656E64206661696C6564212121212100000000000000000000000000000000 PUSH0 DUP3 ADD MSTORE POP JUMP JUMPDEST PUSH0 PUSH2 0x861 PUSH1 0x10 DUP4 PUSH2 0x81D JUMP JUMPDEST SWAP2 POP PUSH2 0x86C DUP3 PUSH2 0x82D JUMP JUMPDEST PUSH1 0x20 DUP3 ADD SWAP1 POP SWAP2 SWAP1 POP JUMP JUMPDEST PUSH0 PUSH1 0x20 DUP3 ADD SWAP1 POP DUP2 DUP2 SUB PUSH0 DUP4 ADD MSTORE PUSH2 0x88E DUP2 PUSH2 0x855 JUMP JUMPDEST SWAP1 POP SWAP2 SWAP1 POP JUMP JUMPDEST PUSH0 DUP2 SWAP1 POP SWAP3 SWAP2 POP POP JUMP JUMPDEST POP JUMP JUMPDEST PUSH0 PUSH2 0x8AD PUSH0 DUP4 PUSH2 0x895 JUMP JUMPDEST SWAP2 POP PUSH2 0x8B8 DUP3 PUSH2 0x89F JUMP JUMPDEST PUSH0 DUP3 ADD SWAP1 POP SWAP2 SWAP1 POP JUMP JUMPDEST PUSH0 PUSH2 0x8CC DUP3 PUSH2 0x8A2 JUMP JUMPDEST SWAP2 POP DUP2 SWAP1 POP SWAP2 SWAP1 POP JUMP JUMPDEST PUSH32 0x43616C6C206661696C6564212121212100000000000000000000000000000000 PUSH0 DUP3 ADD MSTORE POP JUMP JUMPDEST PUSH0 PUSH2 0x90A PUSH1 0x10 DUP4 PUSH2 0x81D JUMP JUMPDEST SWAP2 POP PUSH2 0x915 DUP3 PUSH2 0x8D6 JUMP JUMPDEST PUSH1 0x20 DUP3 ADD SWAP1 POP SWAP2 SWAP1 POP JUMP JUMPDEST PUSH0 PUSH1 0x20 DUP3 ADD SWAP1 POP DUP2 DUP2 SUB PUSH0 DUP4 ADD MSTORE PUSH2 0x937 DUP2 PUSH2 0x8FE JUMP JUMPDEST SWAP1 POP SWAP2 SWAP1 POP JUMP JUMPDEST PUSH32 0x6469646E27742073656E6420656E6F7567682045544800000000000000000000 PUSH0 DUP3 ADD MSTORE POP JUMP JUMPDEST PUSH0 PUSH2 0x972 PUSH1 0x16 DUP4 PUSH2 0x81D JUMP JUMPDEST SWAP2 POP PUSH2 0x97D DUP3 PUSH2 0x93E JUMP JUMPDEST PUSH1 0x20 DUP3 ADD SWAP1 POP SWAP2 SWAP1 POP JUMP JUMPDEST PUSH0 PUSH1 0x20 DUP3 ADD SWAP1 POP DUP2 DUP2 SUB PUSH0 DUP4 ADD MSTORE PUSH2 0x99F DUP2 PUSH2 0x966 JUMP JUMPDEST SWAP1 POP SWAP2 SWAP1 POP JUMP JUMPDEST PUSH32 0x4E487B7100000000000000000000000000000000000000000000000000000000 PUSH0 MSTORE PUSH1 0x11 PUSH1 0x4 MSTORE PUSH1 0x24 PUSH0 REVERT JUMPDEST PUSH0 PUSH2 0x9DD DUP3 PUSH2 0x715 JUMP JUMPDEST SWAP2 POP PUSH2 0x9E8 DUP4 PUSH2 0x715 JUMP JUMPDEST SWAP3 POP DUP3 DUP3 ADD SWAP1 POP DUP1 DUP3 GT ISZERO PUSH2 0xA00 JUMPI PUSH2 0x9FF PUSH2 0x9A6 JUMP JUMPDEST JUMPDEST SWAP3 SWAP2 POP POP JUMP JUMPDEST PUSH0 PUSH2 0xA10 DUP3 PUSH2 0x715 JUMP JUMPDEST SWAP2 POP PUSH2 0xA1B DUP4 PUSH2 0x715 JUMP JUMPDEST SWAP3 POP DUP3 DUP3 MUL PUSH2 0xA29 DUP2 PUSH2 0x715 JUMP JUMPDEST SWAP2 POP DUP3 DUP3 DIV DUP5 EQ DUP4 ISZERO OR PUSH2 0xA40 JUMPI PUSH2 0xA3F PUSH2 0x9A6 JUMP JUMPDEST JUMPDEST POP SWAP3 SWAP2 POP POP JUMP JUMPDEST PUSH32 0x4E487B7100000000000000000000000000000000000000000000000000000000 PUSH0 MSTORE PUSH1 0x12 PUSH1 0x4 MSTORE PUSH1 0x24 PUSH0 REVERT JUMPDEST PUSH0 PUSH2 0xA7E DUP3 PUSH2 0x715 JUMP JUMPDEST SWAP2 POP PUSH2 0xA89 DUP4 PUSH2 0x715 JUMP JUMPDEST SWAP3 POP DUP3 PUSH2 0xA99 JUMPI PUSH2 0xA98 PUSH2 0xA47 JUMP JUMPDEST JUMPDEST DUP3 DUP3 DIV SWAP1 POP SWAP3 SWAP2 POP POP JUMP JUMPDEST PUSH0 PUSH10 0xFFFFFFFFFFFFFFFFFFFF DUP3 AND SWAP1 POP SWAP2 SWAP1 POP JUMP JUMPDEST PUSH2 0xAC2 DUP2 PUSH2 0xAA4 JUMP JUMPDEST DUP2 EQ PUSH2 0xACC JUMPI PUSH0 DUP1 REVERT JUMPDEST POP JUMP JUMPDEST PUSH0 DUP2 MLOAD SWAP1 POP PUSH2 0xADD DUP2 PUSH2 0xAB9 JUMP JUMPDEST SWAP3 SWAP2 POP POP JUMP JUMPDEST PUSH0 DUP2 SWAP1 POP SWAP2 SWAP1 POP JUMP JUMPDEST PUSH2 0xAF5 DUP2 PUSH2 0xAE3 JUMP JUMPDEST DUP2 EQ PUSH2 0xAFF JUMPI PUSH0 DUP1 REVERT JUMPDEST POP JUMP JUMPDEST PUSH0 DUP2 MLOAD SWAP1 POP PUSH2 0xB10 DUP2 PUSH2 0xAEC JUMP JUMPDEST SWAP3 SWAP2 POP POP JUMP JUMPDEST PUSH0 DUP2 MLOAD SWAP1 POP PUSH2 0xB24 DUP2 PUSH2 0x746 JUMP JUMPDEST SWAP3 SWAP2 POP POP JUMP JUMPDEST PUSH0 DUP1 PUSH0 DUP1 PUSH0 PUSH1 0xA0 DUP7 DUP9 SUB SLT ISZERO PUSH2 0xB43 JUMPI PUSH2 0xB42 PUSH2 0x68C JUMP JUMPDEST JUMPDEST PUSH0 PUSH2 0xB50 DUP9 DUP3 DUP10 ADD PUSH2 0xACF JUMP JUMPDEST SWAP6 POP POP PUSH1 0x20 PUSH2 0xB61 DUP9 DUP3 DUP10 ADD PUSH2 0xB02 JUMP JUMPDEST SWAP5 POP POP PUSH1 0x40 PUSH2 0xB72 DUP9 DUP3 DUP10 ADD PUSH2 0xB16 JUMP JUMPDEST SWAP4 POP POP PUSH1 0x60 PUSH2 0xB83 DUP9 DUP3 DUP10 ADD PUSH2 0xB16 JUMP JUMPDEST SWAP3 POP POP PUSH1 0x80 PUSH2 0xB94 DUP9 DUP3 DUP10 ADD PUSH2 0xACF JUMP JUMPDEST SWAP2 POP POP SWAP3 SWAP6 POP SWAP3 SWAP6 SWAP1 SWAP4 POP JUMP JUMPDEST PUSH32 0x4E65676174697665207072696365206E6F7420737570706F7274656400000000 PUSH0 DUP3 ADD MSTORE POP JUMP JUMPDEST PUSH0 PUSH2 0xBD5 PUSH1 0x1C DUP4 PUSH2 0x81D JUMP JUMPDEST SWAP2 POP PUSH2 0xBE0 DUP3 PUSH2 0xBA1 JUMP JUMPDEST PUSH1 0x20 DUP3 ADD SWAP1 POP SWAP2 SWAP1 POP JUMP JUMPDEST PUSH0 PUSH1 0x20 DUP3 ADD SWAP1 POP DUP2 DUP2 SUB PUSH0 DUP4 ADD MSTORE PUSH2 0xC02 DUP2 PUSH2 0xBC9 JUMP JUMPDEST SWAP1 POP SWAP2 SWAP1 POP JUMP JUMPDEST PUSH0 PUSH2 0xC13 DUP3 PUSH2 0xAE3 JUMP JUMPDEST SWAP2 POP PUSH2 0xC1E DUP4 PUSH2 0xAE3 JUMP JUMPDEST SWAP3 POP DUP3 DUP3 MUL PUSH2 0xC2C DUP2 PUSH2 0xAE3 JUMP JUMPDEST SWAP2 POP PUSH32 0x8000000000000000000000000000000000000000000000000000000000000000 DUP5 EQ PUSH0 DUP5 SLT AND ISZERO PUSH2 0xC63 JUMPI PUSH2 0xC62 PUSH2 0x9A6 JUMP JUMPDEST JUMPDEST DUP3 DUP3 SDIV DUP5 EQ DUP4 ISZERO OR PUSH2 0xC78 JUMPI PUSH2 0xC77 PUSH2 0x9A6 JUMP JUMPDEST JUMPDEST POP SWAP3 SWAP2 POP POP JUMP INVALID LOG2 PUSH5 0x6970667358 0x22 SLT KECCAK256 LOG1 TIMESTAMP SWAP5 POP 0xE1 DUP11 TIMESTAMP 0xE7 PUSH13 0x9EE7773DC0D4DA353858FBAE8D 0xD4 0xA9 DUP9 0xB8 0xDE 0x29 LT SWAP16 DUP16 SWAP2 PUSH5 0x736F6C6343 STOP ADDMOD XOR STOP CALLER "
				},
				"gasEstimates": {
					"creation": {
						"codeDepositCost": "650600",
						"executionCost": "47052",
						"totalCost": "697652"
					},
					"external": {
						"addressToAmountFunded(address)": "2802",
						"fund()": "infinite",
						"funders(uint256)": "5010",
						"minUsd()": "2446",
						"withdraw()": "infinite"
					}
				},
				"methodIdentifiers": {
					"addressToAmountFunded(address)": "3e47d6f3",
					"fund()": "b60d4288",
					"funders(uint256)": "dc0d3dff",
					"minUsd()": "51b80e41",
					"withdraw()": "3ccfd60b"
				}
			},
			"storageLayout": {
				"storage": [
					{
						"astId": 55,
						"contract": "solidity-fundamentals/3-fund-me/9-withdraw-transfer-send-call.sol:FundMe",
						"label": "minUsd",
						"offset": 0,
						"slot": "0",
						"type": "t_uint256"
					},
					{
						"astId": 58,
						"contract": "solidity-fundamentals/3-fund-me/9-withdraw-transfer-send-call.sol:FundMe",
						"label": "chainlinkAggregatorV3InterfaceAddressEthUsd",
						"offset": 0,
						"slot": "1",
						"type": "t_address"
					},
					{
						"astId": 61,
						"contract": "solidity-fundamentals/3-fund-me/9-withdraw-transfer-send-call.sol:FundMe",
						"label": "funders",
						"offset": 0,
						"slot": "2",
						"type": "t_array(t_address)dyn_storage"
					},
					{
						"astId": 65,
						"contract": "solidity-fundamentals/3-fund-me/9-withdraw-transfer-send-call.sol:FundMe",
						"label": "addressToAmountFunded",
						"offset": 0,
						"slot": "3",
						"type": "t_mapping(t_address,t_uint256)"
					}
				],
				"types": {
					"t_address": {
						"encoding": "inplace",
						"label": "address",
						"numberOfBytes": "20"
					},
					"t_array(t_address)dyn_storage": {
						"base": "t_address",
						"encoding": "dynamic_array",
						"label": "address[]",
						"numberOfBytes": "32"
					},
					"t_mapping(t_address,t_uint256)": {
						"encoding": "mapping",
						"key": "t_address",
						"label": "mapping(address => uint256)",
						"numberOfBytes": "32",
						"value": "t_uint256"
					},
					"t_uint256": {
						"encoding": "inplace",
						"label": "uint256",
						"numberOfBytes": "32"
					}
				}
			},
			"userdoc": {
				"kind": "user",
				"methods": {},
				"version": 1
			}
		}
	}
}