{
	"solidity-fundamentals/3-fund-me/SafeMathTester-1.sol": {
		"SafeMathTester": {
			"abi": [
				{
					"inputs": [],
					"name": "increaseNum",
					"outputs": [],
					"stateMutability": "nonpayable",
					"type": "function"
				},
				{
					"inputs": [],
					"name": "num",
					"outputs": [
						{
							"internalType": "uint8",
							"name": "",
							"type": "uint8"
						}
					],
					"stateMutability": "view",
					"type": "function"
				}
			],
			"devdoc": {
				"kind": "dev",
				"methods": {},
				"version": 1
			},
			"evm": {
				"assembly": "    /* \"solidity-fundamentals/3-fund-me/SafeMathTester-1.sol\":196:917  contract SafeMathTester {... */\n  mstore(0x40, 0x80)\n    /* \"solidity-fundamentals/3-fund-me/SafeMathTester-1.sol\":245:248  255 */\n  0xff\n    /* \"solidity-fundamentals/3-fund-me/SafeMathTester-1.sol\":226:248  uint8 public num = 255 */\n  0x00\n  dup1\n  0x0100\n  exp\n  dup2\n  sload\n  dup2\n  0xff\n  mul\n  not\n  and\n  swap1\n  dup4\n  0xff\n  and\n  mul\n  or\n  swap1\n  sstore\n  pop\n    /* \"solidity-fundamentals/3-fund-me/SafeMathTester-1.sol\":196:917  contract SafeMathTester {... */\n  callvalue\n  dup1\n  iszero\n  tag_1\n  jumpi\n  0x00\n  dup1\n  revert\ntag_1:\n  pop\n  dataSize(sub_0)\n  dup1\n  dataOffset(sub_0)\n  0x00\n  codecopy\n  0x00\n  return\nstop\n\nsub_0: assembly {\n        /* \"solidity-fundamentals/3-fund-me/SafeMathTester-1.sol\":196:917  contract SafeMathTester {... */\n      mstore(0x40, 0x80)\n      callvalue\n      dup1\n      iszero\n      tag_1\n      jumpi\n      0x00\n      dup1\n      revert\n    tag_1:\n      pop\n      jumpi(tag_2, lt(calldatasize, 0x04))\n      shr(0xe0, calldataload(0x00))\n      dup1\n      0x4e70b1dc\n      eq\n      tag_3\n      jumpi\n      dup1\n      0x816ff417\n      eq\n      tag_4\n      jumpi\n    tag_2:\n      0x00\n      dup1\n      revert\n        /* \"solidity-fundamentals/3-fund-me/SafeMathTester-1.sol\":226:248  uint8 public num = 255 */\n    tag_3:\n      tag_5\n      tag_6\n      jump\t// in\n    tag_5:\n      mload(0x40)\n      dup1\n      dup3\n      0xff\n      and\n      dup2\n      mstore\n      0x20\n      add\n      swap2\n      pop\n      pop\n      mload(0x40)\n      dup1\n      swap2\n      sub\n      swap1\n      return\n        /* \"solidity-fundamentals/3-fund-me/SafeMathTester-1.sol\":297:352  function increaseNum() public {... */\n    tag_4:\n      tag_7\n      tag_8\n      jump\t// in\n    tag_7:\n      stop\n        /* \"solidity-fundamentals/3-fund-me/SafeMathTester-1.sol\":226:248  uint8 public num = 255 */\n    tag_6:\n      0x00\n      dup1\n      sload\n      swap1\n      0x0100\n      exp\n      swap1\n      div\n      0xff\n      and\n      dup2\n      jump\t// out\n        /* \"solidity-fundamentals/3-fund-me/SafeMathTester-1.sol\":297:352  function increaseNum() public {... */\n    tag_8:\n        /* \"solidity-fundamentals/3-fund-me/SafeMathTester-1.sol\":344:345  1 */\n      0x01\n        /* \"solidity-fundamentals/3-fund-me/SafeMathTester-1.sol\":337:340  num */\n      0x00\n      dup1\n        /* \"solidity-fundamentals/3-fund-me/SafeMathTester-1.sol\":337:345  num += 1 */\n      dup3\n      dup3\n      dup3\n      swap1\n      sload\n      swap1\n      0x0100\n      exp\n      swap1\n      div\n      0xff\n      and\n      add\n      swap3\n      pop\n      0x0100\n      exp\n      dup2\n      sload\n      dup2\n      0xff\n      mul\n      not\n      and\n      swap1\n      dup4\n      0xff\n      and\n      mul\n      or\n      swap1\n      sstore\n      pop\n        /* \"solidity-fundamentals/3-fund-me/SafeMathTester-1.sol\":297:352  function increaseNum() public {... */\n      jump\t// out\n\n    auxdata: 0xa2646970667358221220693521ed1ae80de8a8e5d8e3fe72d8b28ffd7c96794d780e5860ba654775c1c264736f6c634300060c0033\n}\n",
				"bytecode": {
					"linkReferences": {},
					"object": "608060405260ff6000806101000a81548160ff021916908360ff16021790555034801561002b57600080fd5b5060d48061003a6000396000f3fe6080604052348015600f57600080fd5b506004361060325760003560e01c80634e70b1dc146037578063816ff417146056575b600080fd5b603d605e565b604051808260ff16815260200191505060405180910390f35b605c606f565b005b60008054906101000a900460ff1681565b60016000808282829054906101000a900460ff160192506101000a81548160ff021916908360ff16021790555056fea2646970667358221220693521ed1ae80de8a8e5d8e3fe72d8b28ffd7c96794d780e5860ba654775c1c264736f6c634300060c0033",
					"opcodes": "PUSH1 0x80 PUSH1 0x40 MSTORE PUSH1 0xFF PUSH1 0x0 DUP1 PUSH2 0x100 EXP DUP2 SLOAD DUP2 PUSH1 0xFF MUL NOT AND SWAP1 DUP4 PUSH1 0xFF AND MUL OR SWAP1 SSTORE POP CALLVALUE DUP1 ISZERO PUSH2 0x2B JUMPI PUSH1 0x0 DUP1 REVERT JUMPDEST POP PUSH1 0xD4 DUP1 PUSH2 0x3A PUSH1 0x0 CODECOPY PUSH1 0x0 RETURN INVALID PUSH1 0x80 PUSH1 0x40 MSTORE CALLVALUE DUP1 ISZERO PUSH1 0xF JUMPI PUSH1 0x0 DUP1 REVERT JUMPDEST POP PUSH1 0x4 CALLDATASIZE LT PUSH1 0x32 JUMPI PUSH1 0x0 CALLDATALOAD PUSH1 0xE0 SHR DUP1 PUSH4 0x4E70B1DC EQ PUSH1 0x37 JUMPI DUP1 PUSH4 0x816FF417 EQ PUSH1 0x56 JUMPI JUMPDEST PUSH1 0x0 DUP1 REVERT JUMPDEST PUSH1 0x3D PUSH1 0x5E JUMP JUMPDEST PUSH1 0x40 MLOAD DUP1 DUP3 PUSH1 0xFF AND DUP2 MSTORE PUSH1 0x20 ADD SWAP2 POP POP PUSH1 0x40 MLOAD DUP1 SWAP2 SUB SWAP1 RETURN JUMPDEST PUSH1 0x5C PUSH1 0x6F JUMP JUMPDEST STOP JUMPDEST PUSH1 0x0 DUP1 SLOAD SWAP1 PUSH2 0x100 EXP SWAP1 DIV PUSH1 0xFF AND DUP2 JUMP JUMPDEST PUSH1 0x1 PUSH1 0x0 DUP1 DUP3 DUP3 DUP3 SWAP1 SLOAD SWAP1 PUSH2 0x100 EXP SWAP1 DIV PUSH1 0xFF AND ADD SWAP3 POP PUSH2 0x100 EXP DUP2 SLOAD DUP2 PUSH1 0xFF MUL NOT AND SWAP1 DUP4 PUSH1 0xFF AND MUL OR SWAP1 SSTORE POP JUMP INVALID LOG2 PUSH5 0x6970667358 0x22 SLT KECCAK256 PUSH10 0x3521ED1AE80DE8A8E5D8 0xE3 INVALID PUSH19 0xD8B28FFD7C96794D780E5860BA654775C1C264 PUSH20 0x6F6C634300060C00330000000000000000000000 "
				},
				"gasEstimates": {
					"creation": {
						"codeDepositCost": "42400",
						"executionCost": "20960",
						"totalCost": "63360"
					},
					"external": {
						"increaseNum()": "21861",
						"num()": "1022"
					}
				},
				"methodIdentifiers": {
					"increaseNum()": "816ff417",
					"num()": "4e70b1dc"
				}
			},
			"storageLayout": {
				"storage": [
					{
						"astId": 4,
						"contract": "solidity-fundamentals/3-fund-me/SafeMathTester-1.sol:SafeMathTester",
						"label": "num",
						"offset": 0,
						"slot": "0",
						"type": "t_uint8"
					}
				],
				"types": {
					"t_uint8": {
						"encoding": "inplace",
						"label": "uint8",
						"numberOfBytes": "1"
					}
				}
			},
			"userdoc": {
				"kind": "user",
				"methods": {},
				"version": 1
			}
		}
	}
}